S01100004E6F6E5365637572652E7372656381
S1138000482800207D8100007981000079810000EA
S1138010000000000000000000000000000000005C
S11380200000000000000000000000007981000052
S11380300000000000000000798100007981000048
S11380407981000079810000798100007981000044
S11380507981000079810000798100007981000034
S11380607981000079810000798100007D8C000015
S1138070ED87000069880000E58800006189000040
S11380807981000079810000798100007981000004
S113809079810000798100007981000079810000F4
S11380A079810000798100007981000079810000E4
S11380B079810000798100007981000079810000D4
S11380C079810000798100007981000079810000C4
S11380D079810000798100007981000079810000B4
S11380E079810000798100007981000079810000A4
S11380F07981000010B542F27004C2F200042378C2
S113810063B940F20003C0F200032BB14AF2C40089
S1138110C0F2000000E000BF0123237010BDC04680
S113812040F20003C0F2000310B54BB142F27401F7
S11381304AF2C400C2F20001C0F2000000E000BF35
S11381404AF2C400C0F20000036803B910BD40F253
S11381500003C0F20003002BF8D09847F6E7C046AE
S113816010B548F2E123C0F20003984748F60773BC
S1138170C0F20003984710BDFEE7000010B54AF2B4
S1138180C402C0F2000242F20003C2F200039A42A7
S113819020D01A0042F26403C2F200039A4219D2B8
S11381A042F26403C2F200030333244A9B1A9B087D
S11381B001339B00002242F20001C2F20001511877
S11381C04AF2C400C0F200001018006808600432CB
S11381D09A42F0D142F27002C2F2000242F2442307
S11381E0C2F200039A4213D242F27002C2F20002B7
S11381F0D34342F24421C2F200018C46634403217A
S11382008B43043394466344002102C29342FCD15D
S113821048F20003C0F200037F2293434EF600525B
S1138220CEF20002936048F62D73C0F20003984723
S113823048F60D63C0F200039847FEE704200020CF
S113824010B500210E2047F61943C0F200039847E9
S113825010BD30B543F20003C4F200035822995C08
S11382600125A94301242143C9B299543C20195C36
S1138270493A91430C3A1143195459215A5CAA437F
S11382802243D2B25A541A5C4A390A4021310A4371
S11382901A5430BD10B500210D2047F61944C0F220
S11382A00004A04700210A20A04710BD10B548F2E1
S11382B09523C0F20003984740F60041C4F2002120
S11382C042F23410C2F20000002248F28B43C0F2A2
S11382D00003984748F25323C0F20003984710BDA7
S11382E010B5C023DB0580225A619A6043F2000373
S11382F0C4F20003C4F200029A62C02212069A6217
S113830047215A5C012082435A5448F24123C0F267
S11383100003984748F62F33C0F20003984748F209
S1138320AD23C0F20003984710BD70B506000C00E1
S1138330150098B10800431E9841C0B249F6007177
S1138340C0F20001342248F20B53C0F200039847F4
S113835033682A0021003000984770BD0020EDE703
S113836070B506000C00150098B10800431E984132
S1138370C0B249F60071C0F200013D2248F20B532D
S1138380C0F20003984773682A0021003000984720
S113839070BD0020EDE7F8B5CE46474680B5040031
S11383A00F009046002837D0002937D01000431E14
S11383B0984149F61471C0F20001F12248F20B53BE
S11383C0C0F200039847083448F61135C0F200059E
S11383D02000A8470028FBD0002648F60139C0F247
S11383E0000948F61135C0F20005B95D2000C84700
S11383F02000A8470028FBD001364645F5D348F6AF
S11384001B35C0F200052000A8470028FBD030002F
S11384100CBC90469946F8BD0020CAE70020C8E786
S1138420F8B5CE46474680B504008846914640B329
S113843049B31000431E984149F61471C0F200017B
S113844040F20C1248F20B53C0F200039847002686
S1138450083448F62535C0F2000548F60937C0F25D
S113846000072000A8470028FBD02000B847434657
S1138470985501364E45F4D330000CBC90469946CD
S1138480F8BD0020D8E70020D6E770B505000C0041
S113849008B30800431E9841C0B249F61471C0F2F3
S11384A00001342248F20B53C0F20003984728001D
S11384B00830210048F6BD23C0F20003984748B9AC
S11384C048F22143C0F200036B6048F29733C0F2D4
S11384D000032B6070BD0020DFE710B5040049F6EF
S11384E01471C0F20001431E9841C0B2532248F2F5
S11384F00B53C0F2000398472000083048F6ED23E0
S1138500C0F200039847002010BD00B900BE7047B8
S1138510020042F28C03C2F200031B683BB142F238
S11385208C03C2F20003186882181A60704742F282
S11385308C03C2F2000342F64801C2F20001196042
S1138540EDE701204042704742F200034B600020F7
S113855070470120704700207047F0B5CE4647466B
S113856080B546F20003C4F200131A8802218A433C
S11385701A801A8802318A431A804022995C0120A9
S11385800143C9B2995440F600721A805A7B012102
S11385908A430243D2B25A7380225A6142F2401291
S11385A0C2F200025A6342F2C012C2F200029A639B
S11385B049F63072C0F20002002146F20000C4F213
S11385C0001040F23F0C4024012742F24015C2F251
S11385D0000540F20009CBB266468355035D984618
S11385E013789B093B409B014646A64333430355FE
S11385F053684364138998460B0146465E5342F21E
S11386004016C2F20006B04643444E46DE600131D5
S11386100C320829DFD10B231F2401204EF2001154
S1138620CEF20001DAB21D060FD50133102BF9D1B9
S113863046F20003C4F200131A8802210A431A8086
S113864000200CBC90469946F0BD5D09224006000E
S113865096402A002035AD006E50BFF34F8FBFF314
S11386606F8F15006035AD006E5092005650DCE7F8
S113867010B546F20003C4F200133F24185581B923
S11386803AB946F20003C4F2001302314C32995451
S113869009E046F20003C4F2001302214D2299546A
S11386A001E0012900D010BD3AB146F20003C4F242
S11386B0001301214D229954F5E746F20003C4F258
S11386C000134C329954EEE7000142F24013C2F217
S11386D000039C466044816000207047000142F220
S11386E04013C2F200039C4660444160002070477E
S11386F010B542F24013C2F200030001C25A8902CB
S1138700034C2240114389B2C152002010BDC0461F
S1138710FFFBFFFF30B542F24012C2F20002040137
S1138720A3189D68A35A9B059B0FA25A12050AD54C
S11387300C009C406419020142F24015C2F200058B
S1138740AC466244946042F24012C2F20002040158
S1138750A5186D68A45A62050AD50A009A405219F0
S1138760030142F24014C2F20004A44663445A6076
S113877089B2000142F24013C2F200039C466044F5
S11387804180002030BD70B546F20003C4F20013EE
S11387903F22985442F24012C2F200020501AC5A40
S11387A001263443AC5240241A5D02252A431A554B
S11387B041B146F20002C4F2001211690123834060
S11387C00B431361002070BD10B542F24013C2F296
S11387D000030001C25AC902034C2240114389B26A
S11387E0C152002010BDC046FFF7FFFF70B546F22E
S11387F00002C4F20012118C07230B403F21545C89
S1138800E4B25800C018800042F29005C2F200059C
S1138810AC46604453540F31525CD2B2D10708D4F1
S1138820920710D446F20003C4F200133F229C5472
S113883070BD46F20002C4F2001201254E215554C7
S113884043689847EEE746F20002C4F2001202259C
S11388504E21555442F29001C2F200015A00D3183D
S11388609B005B589847DDE770B546F20002C4F2FE
S11388700012118C07230B403F21545CE4B25800D2
S1138880C018800042F29005C2F20005AC46604474
S113889053540F31525CD2B2D10708D4920710D48A
S11388A046F20003C4F200133F229C5470BD46F20A
S11388B00002C4F2001201254E2155544368984722
S11388C0EEE746F20002C4F2001202254E2155548E
S11388D042F29001C2F200015A00D3189B005B5887
S11388E09847DDE770B546F20002C4F20012118C1D
S11388F007230B403F21545CE4B25800C0188000A9
S113890042F29005C2F20005AC46604453540F3164
S1138910525CD2B2D10708D4920710D446F20003B5
S1138920C4F200133F229C5470BD46F20002C4F20C
S1138930001201254E21555443689847EEE746F24C
S11389400002C4F2001202254E21555442F2900155
S1138950C2F200015A00D3189B005B589847DDE728
S113896070B546F20002C4F20012118C07230B40CA
S11389703F21545CE4B25800C018800042F29005D4
S1138980C2F20005AC46604453540F31525CD2B27B
S1138990D10708D4920710D446F20003C4F200139E
S11389A03F229C5470BD46F20002C4F2001201251D
S11389B04E21555443689847EEE746F20002C4F24C
S11389C0001202254E21555442F29001C2F20001D8
S11389D05A00D3189B005B589847DDE730B585B043
S11389E001AA49F69073C0F2000332CB32C20300ED
S11389F0019A82420CD0029A824207D00020039A44
S1138A009A4201D005B030BD023002E0012000E0FE
S1138A100020C0B2F6E7000010B5040048F6DD13EC
S1138A20C0F20003984702280BD049F6B471C0F293
S1138A30000140F24722002048F20B53C0F2000329
S1138A409847E369DB0718D40322E3691A42FCD18F
S1138A5023689B070BD523680222934323600132CA
S1138A60E3691A42FCD10222E3691A42FCD10523CC
S1138A7023600322E3691A42FCD10122E3691A420A
S1138A80FCD10423C4F2310323600322E3691A42B4
S1138A90FCD1C0239B0263600F22E3691A42FCD11C
S1138AA00223C0F27003A360034BA3810023A373CA
S1138AB03022A354002010BD098AFFFF70B50500C1
S1138AC00C0049F6B471C0F20001431E9841C0B2D3
S1138AD0BB2248F20B53C0F2000398472C602000DD
S1138AE048F61923C0F20003984770BD0268136862
S1138AF002210B4313600131D3691942FCD1704741
S1138B00036889B2198570470368188DC0B270472D
S1138B100368187E0123184070470368187E800795
S1138B20C00F70470368187E4007C00F704741F2BA
S1138B300003C4F200231B69DB0734D441F20002B2
S1138B40C4F20022032113691942FCD141F200034B
S1138B50C4F200231B689B0717D541F20003C4F23B
S1138B6000231A6802218A431A6041F20002C4F207
S1138B700022013113691942FCD141F20002C4F20E
S1138B800022022113691942FCD141F20003C4F20C
S1138B90002301221A6041F20002C4F200220321E0
S1138BA013691942FCD141F20002C4F200220121EE
S1138BB013691942FCD141F20003C4F200230822D4
S1138BC01A6041F20002C4F200220321136919421F
S1138BD0FCD141F20003C4F2002380225A71013A0D
S1138BE01A711A6802210A431A6041F20002C4F29F
S1138BF00022013113691942FCD10020704702227E
S1138C004E23C254704770B505000021002048F27D
S1138C10F163C0F2000398470021002048F2C973B1
S1138C20C0F20003984742F2F004C2F200042100AB
S1138C302831002048F2DD63C0F200039847210088
S1138C402C31002048F2C963C0F200039847290080
S1138C50002048F21573C0F2000398470021002059
S1138C6048F28773C0F200039847012200210020D4
S1138C7048F27163C0F20003984770BD80B584B0B8
S1138C8000AF41F20003C4F20023FB6041F214037D
S1138C90C4F20023BB6046F21003C4F200137B60ED
S1138CA041F20403C4F200233B603B6848F2000233
S1138CB01A60FB681B68022293431A00FB681A605F
S1138CC042F22013C2F200031968BB681A6849F61D
S1138CD0D073C0F20003180048F68D73C0F200038D
S1138CE0984746F20003C4F20013180048F6FF3315
S1138CF0C0F20003984742F22413C2F200031B6837
S1138D005A1C42F22413C2F200031A6042F22413E2
S1138D10C2F200031B68632B1FDD42F22013C2F270
S1138D2000031B68FE2B11DC42F22013C2F2000385
S1138D301B685A1C42F22013C2F200031A6042F26A
S1138D402413C2F2000300221A6006E042F2201348
S1138D50C2F2000300221A6021E041F6407048F696
S1138D600743C0F200039847BB6800221A60FB68FF
S1138D701B6802221A43FB681A607B681B68012285
S1138D801A437B681A6042F22013C2F200031B6884
S1138D90180047F60143C0F200039847C046BD4699
S1138DA004B080BD80B584B000AF41F20003C4F2CA
S1138DB00023FB6041F21403C4F20023BB6046F2BB
S1138DC01003C4F200137B6041F6407048F6074379
S1138DD0C0F200039847BB6800221A60FB681B6856
S1138DE002221A43FB681A607B681B6801221A433B
S1138DF07B681A6042F22013C2F200031B68180059
S1138E0047F60143C0F200039847FEE710B548F265
S1138E106113C0F20003984740F60003C4F2000354
S1138E201A6908210A431A6148F25B53C0F200032D
S1138E30984748F6A553C0F200039847FEE710B5DB
S1138E400B0060B91100180048F6BF63C0F20003BC
S1138E509847002800DB10BD01204042FBE70120B9
S1138E604042F8E710B50B00013802280CD8110075
S1138E70180048F6E363C0F200039847002800DBBB
S1138E8010BD01204042FBE701204042F8E770B5E5
S1138E90060042F20005C2F200052B689868002122
S1138EA048F6BD74C0F20004A0472B68586800213E
S1138EB0A04742F22813C2F200031E6070BD10B531
S1138EC0040042F22813C2F20003186838B18AB2CF
S1138ED0210048F26133C0F20003984710BD00201E
S1138EE0FCE710B5040042F22813C2F2000318682C
S1138EF038B18AB2210048F22B33C0F200039847FC
S1138F0010BD0020FCE710B542F23414C2F2000494
S1138F10200048F2DB43C0F200039847200048F6E3
S1138F208F63C0F20003984710BD000070B50025A0
S1138F300E4B0F4CE41AA410A54209D1002501F0F0
S1138F40B1F80C4C0C4BE41AA410A54207D170BD27
S1138F50064AAB009B181B6898470135ECE7064AA4
S1138F60AB009B181B6898470135EEE7B0A00000E2
S1138F70B0A00000B4A00000B0A00000030082185C
S1138F80934200D1704719700133F9E70FB40A4BCB
S1138F9013B51C6824B1A36913B9200000F078FA52
S1138FA005AB049AA1682000019300F041FC16BCB3
S1138FB008BC04B01847C046002000204A424A4179
S1138FC010B5520040F2004300F002F810BD00005A
S1138FD0F0B51D004D4B85B01E6804000F000092D3
S1138FE026B1B36913B9300000F052FA484B9C42E1
S1138FF04FD17468009B022B05D0012B00D982E06D
S1139000002D00DA7FE02100300000F0D5F9616B1B
S113901041B123004433994202D0300000F038FBC0
S1139020002363630023A3616360A3891B0603D544
S11390302169300000F02CFBA389364A1340A38138
S1139040009B022B59D003AB02AA2100300000F090
S1139050ADFAA3891843A0812DBB029D280000F01E
S11390600DFB01950700002841D1029B0193AB42FF
S113907037D1012040420223A2891343A381002354
S1139080A36023004733236023610123636105B098
S1139090F0BD214B9C4201D1B468ABE71F4B9C420D
S11390A0A8D1F468A6E7002FD8D0B36913B930006B
S11390B000F0EEF9009B012B03D1A389009A1A4317
S11390C0A2810820A3892760184027616561C0B187
S11390D001201840002390B16D42A360A5611800DF
S11390E0D5E7019800F0CAFA07000028C1D0802310
S11390F0A289019D1343A381D7E70020BBE7A560A4
S1139100C5E7A060C3E701204042C0E7002000207B
S113911030A000005CF3FFFF50A0000010A000008E
S1139120F8B505000E00140018B183690BB900F0FE
S1139130AFF9214B9C422AD16C68A369A360A3892F
S11391401B072ED5236963B323682269F7B2981AE3
S11391506369F6B2984204DB2100280000F02CF980
S113916028BBA3680130013BA36023685A1C22601A
S11391701F706369984204D0A389DB0719D50A2EAE
S113918017D12100280000F017F990B10FE00B4B24
S11391909C4201D1AC68D0E7094B9C42CDD1EC682C
S11391A0CBE72100280000F00DF80028CCD00126E0
S11391B076423000F8BDC04630A0000050A0000048
S11391C010A00000344B70B51D6806000C0025B1DA
S11391D0AB6913B9280000F05BF9304B9C420FD106
S11391E06C680C23E25E93B219072CD4D90611D40F
S11391F009230120336037331343A381404270BDF8
S1139200274B9C4201D1AC68EBE7264B9C42E8D14A
S1139210EC68E6E75B0712D5616B41B12300443388
S1139220994202D0300000F033FA00236363242211
S1139230A3899343A38100236360236923600823E4
S1139240A2891343A38123695BB940F2802140F2D0
S11392500022A3890B40934203D02100300000F088
S1139260CDF90123A28913408BB10023A360636964
S11392705B42A36123690020002BC0D10C23E25E72
S11392801306BCD540231343A3810138B7E79207E3
S113929000D46369A360EDE70020002030A0000043
S11392A050A0000010A00000F7B58A8905000C004A
S11392B013075ED44B68002B04DC0B6C002B01DC21
S11392C00020FEBDE76A002FFAD000232E682B6031
S11392D041F200031A4092B3606DA3895B0705D580
S11392E06368C01A636B0BB1236CC01A0200216A55
S11392F000232800E76AB847A189431C06D12B68DC
S11393001D2B30D82B4ADA40D3072CD500236360B9
S113931023692360CB0404D5431C01D12B6803B912
S11393206065616B2E600029CAD0230044339942E2
S113933002D0280000F0ACF900206063C1E70123EB
S1139340216A2800B847431CC7D12B68002BC4D01E
S11393501D2B01D0162B01D12E60B1E74023A28929
S11393601343A381ADE740230B430120A381404273
S1139370A7E70F69002FA3D00B680F60DB1B0193D5
S11393800023920700D14B69A360019B002B00DCF2
S113939096E7019B3A00216A2800A66AB047002894
S11393A003DC4023A2891343DFE7019B3F181B1A08
S11393B00193EAE7010040200B6970B505000C0039
S11393C00BB9002070BD18B183690BB900F060F8C7
S11393D00B4B9C4209D16C680C22A35E002BF0D08D
S11393E021002800FFF760FFECE7064B9C4201D107
S11393F0AC68F1E7044B9C42EED1EC68ECE7C04664
S113940030A0000050A0000010A0000010B50249D8
S113941000F0ACF810BDC046B9930000002310B5AD
S1139420040003604360836081814366C2810361F9
S113943043618361190008225C30FFF79FFD054BEF
S113944024626362044BA362044BE362044B236310
S113945010BDC0467D9D0000A59D0000DD9D00005F
S1139460099E000070B568254A1E55430E00290068
S1139470743100F057F9040040B100212A00016062
S113948046600C30A0606832FFF778FD200070BDA4
S1139490836913B5040043BB8364C3640365134B3E
S11394A0134A1B6882620193984201D101238361AC
S11394B0200000F01FF86060200000F01BF8A0609E
S11394C0200000F017F80022E06004216068FFF734
S11394D0A5FF01220921A068FFF7A0FF02221221A3
S11394E0E068FFF79BFF0123A36113BD0CA00000FC
S11394F00D940000F8B51C4B07001E68B36913B93E
S11395003000FFF7C5FF4836B4687368013B03D5E4
S1139510336833B13668F7E70C22A55E6DB1683461
S1139520F4E704213800FFF79DFF30600028F1D1F3
S11395300C2304003B602000F8BD012320005B42A3
S1139540E3810233A38165662560A56065602561BA
S11395506561A561082229005C30FFF70FFD656392
S1139560A563A564E564E6E70CA00000F7B5040074
S113957007000026019148340CB93000FEBD636831
S1139580A5680093009B013B009301D52468F3E791
S1139590AB89012B08D90E22AB5E013304D029001C
S11395A03800019B984706436835EBE770B50E0019
S11395B01D000E23C95E90B01400002907DA0023B1
S11395C02B60B3891B0611D440F200430FE001AABB
S11395D000F042FC0028F2DB4FF20002029B134031
S11395E0054A9B185A4253412B60EDE74023002063
S11395F0236010B070BDC04600E0FFFFF7B502263F
S11396008B8905000C00334206D0230047332360C6
S1139610236101236361F7BD01AB6A46FFF7C6FF0F
S113962000990700280000F07DF840B90C22A35EE1
S11396309A05F0D4032293431E43A681E5E70E4B1B
S1139640AB628023A28920601343A381009B206125
S11396506361019B63B10E23E15E280000F00EFC00
S113966030B10322A38993431A0001231343A38136
S1139670A0893843A081CEE70D94000010B5034BB8
S11396800100186800F04EF810BDC046002000200C
S113969070B5050081B10C1F2368002B00DAE418B3
S11396A0280000F018FC1E4A136811002BB96360EF
S11396B01460280000F010FC70BDA3420BD922688E
S11396C0A018834203D118685B6882182260636023
S11396D00C60EEE713005A680AB1A242FAD919687D
S11396E05818A0420BD120680918581819608242F2
S11396F0DFD110685268411819605A60D9E7A04256
S113970002D90C232B60D4E721686018824203D16C
S1139710106852684118216062605C60C9E7C04605
S11397202C210020032370B5CD1C9D430835060071
S11397300C2D1CD20C25A9421BD8300000F0CBFB09
S1139740254A14682100C1B9244C23681BB9300090
S113975000F004FB20602900300000F0FFFA431CF5
S11397602DD10C233000336000F0B6FB03E0002D54
S1139770E1DA0C233360002070BD0B685B1B1BD443
S11397800B2B03D90B60CC18256003E08C420FD15E
S113979063681360300000F09FFB200007220B3049
S11397A0231D9043C31A002BE6D05A42E250E3E74C
S11397B04B6863600C00EDE70C004968C3E70323C2
S11397C0C41C9C43A042DFD0211A300000F0C6FA2A
S11397D0431CD9D1C5E7C0462C21002030210020EC
S11397E0936810B5013B9360002B05DA9469A3429A
S11397F008DBCBB20A2B05D01368581C1060197013
S1139800C8B210BDFFF78CFCFBE7F8B506000F00EB
S11398101400D518AC4201D1002007E021783A00A9
S11398203000FFF7DDFF0134431CF3D1F8BD000025
S1139830F0B59FB002900F001600059320B1836924
S113984004930BB9FFF724FE7E4B9F425BD1029B2E
S11398505F68BB891B0762D53B69002B5FD000237F
S113986006AD6B6120336B761033AB76340023780E
S1139870002B5ED1A31B04936BB1A31B32003900F0
S11398800298FFF7C2FF431C00D1CBE06A69049B36
S1139890944663446B612378002B00D1C2E001221B
S11398A0002352426A6002A95432521801342B60D8
S11398B0EB60AB601370AB65634E0522217830001A
S11398C000F0FEFA621C002837D12968CB0604D5C3
S11398D0532302AE20309B1918700B0704D5532371
S11398E02B2002AE9B19187023782A2B2DD000212F
S11398F00A200126099B2278303A092A69D90029CD
S11399002BD0099329E0514B9F4202D1029B9F68BF
S11399109FE74F4B9F429CD1029BDF6899E7390038
S11399200298FFF74FFC002899D0012040421FB055
S1139930F0BD252B9ED0013499E70123801B834081
S1139940296814000B432B60B6E7059B181D1B68A0
S11399500590002B37DB0993140023782E2B0BD1B1
S11399606378621C2A2B3CD1059B02341A1D1B68A8
S11399700592002B32DB0793364E21780322300008
S113998000F09EFA30B14023801B83402A680134E2
S113999013432B60217806222F48661C297600F099
S11399A08FFA002844D02D4B83BB2968059B0722DE
S11399B0C90529D59B189343083305936B69039A0A
S11399C09B186B6152E75B42EB6002230B432B60F5
S11399D0C2E7434301349B1831008CE701235B4207
S11399E0C9E7002314000A201A0001266B602178BD
S11399F03039092903D9002BBED00792BCE7424372
S1139A00013452183300F2E70733D4E705AB00936F
S1139A103A00134B2900029800E000BF0390039B17
S1139A200133CBD1BB895B0600D57EE70B987EE77B
S1139A3005AB00933A000A4B2900029800F07EF827
S1139A40ECE7C04630A0000070A0000050A0000069
S1139A5010A0000076A000007AA000000000000022
S1139A600B980000F7B5150001938A680B69009004
S1139A700C00934200DA130022002B604332127868
S1139A800AB101332B6023689B0602D52B6802338D
S1139A902B60062723681F403FB3230043331B7802
S1139AA05A1E93412268920630D42200019943320F
S1139AB00098089EB047431C25D0062320682A68D6
S1139AC0E16803400025042B03D18D1AEB43DB1717
S1139AD01D40A3682269934201DD9B1AED180027FB
S1139AE0BD4220D1002010E00137E3682A689B1AA8
S1139AF09F42D2DA22000123193201990098089E6C
S1139B00B047431CF0D101204042FEBD3020E11893
S1139B104331087021005A1C45310978A218433298
S1139B2002331170C1E7220001231A32019900980F
S1139B30089EB047431CE6D00137D1E7F0B50E00CC
S1139B4089B00593039004920A7E0C000E9B433661
S1139B506E2A00D18BE017D8632A2CD008D8002AAB
S1139B6000D195E0582A65D0250042352A7029E0B5
S1139B70642A01D0692AF7D121681A68080623D516
S1139B80111D1960136825E0732A00D184E008D8F8
S1139B906F2A27D0702AE7D1202209680A4322605D
S1139BA003E0752A1ED0782ADED1220078214532BE
S1139BB01170684941E00D001A684235111D1960A1
S1139BC013682B70012374E04906D9D5111D19605F
S1139BD00023D35E002B02DA2D225B4232705E49F1
S1139BE00A2215E020681968050603D5081D1860C7
S1139BF00B6805E04006F9D5081D18600B689BB298
S1139C0055496F2A31D1673A200000254330057049
S1139C106068A060002872DB04252768AF432760D2
S1139C20002B6ED13500002877D025000B78423503
S1139C302B7072E045310A7047491A682068151D77
S1139C401D60136805060CD5C20702D520221043F7
S1139C5020601022002BD7D1202025688543256061
S1139C60D2E74506F0D59BB2EEE70A22CCE70968B5
S1139C701A68080605D5111D1960136862691A600F
S1139C8006E04906F7D5111D19601368A28A1A80E7
S1139C900023350023614EE01A68111D1960156810
S1139CA000216268280000F00BF908B1401B6060D5
S1139CB063682361002333703DE023692A0004991B
S1139CC00398059DA847431C3FD0236800259B07A4
S1139CD00FD4079BE068984239DA180037E0220075
S1139CE00123193204990398059EB047431C2CD0D4
S1139CF00135E368079A9B1A9D42F0DBE9E7002BE4
S1139D0093D03500B3FBF2F017004743DB1BCB5C69
S1139D10013D2B7003000028F4D1082A09D12368DF
S1139D20DB0706D563682269934202DC3023013DD8
S1139D302B70761B2661059B07AA00932100049BC8
S1139D400398FFF78FFE431CB7D10120404209B0AE
S1139D50F0BDC04692A0000081A00000002370B5B1
S1139D60054C050008002360FEF7D2FB431C02D11A
S1139D70236803B12B6070BD4022002070B50C0035
S1139D800E25495F00F0AAF8002803DB636D1B1859
S1139D90636570BDA389024A1340A381F9E7C046F5
S1139DA0FFEFFFFFF8B51F008B8905000C001600BC
S1139DB0DB0505D50E23C95E0022022300F06EF8F0
S1139DC0A389054A28001340A38132000E23E15ED3
S1139DD03B0000F01FF8F8BDFFEFFFFF70B50C006B
S1139DE00E25495F00F05AF8A389421C03D1054AA5
S1139DF01340A38170BD41F200021343A381606547
S1139E00F8E7C046FFEFFFFF10B50E23C95E00F070
S1139E1013F810BD70B50500080011000022054CB0
S1139E2022601A00FFF71EF8431C02D1236803B115
S1139E302B6070BD40220020002370B5054C050046
S1139E4008002360FEF77DFB431C02D1236803B1A5
S1139E502B6070BD40220020002370B5064C050025
S1139E60080011002360FEF76FFB431C02D1236836
S1139E7003B12B6070BDC04640220020002370B5A2
S1139E80054C050008002360FEF763FB431C02D168
S1139E90236803B12B6070BD4022002070B505001B
S1139EA0080011000022054C22601A00FEF753FB43
S1139EB0431C02D1236803B12B6070BD40220020F3
S1139EC0C9B28218904201D10020704703788B42B6
S1139ED0FBD00130F6E770477047000070B505000D
S1139EE0080011000022054C22601A00FEF7A7FFAB
S1139EF0431C02D1236803B12B6070BD40220020B3
S1139F002E2E2F68616C2F7372632F68616C5F69EA
S1139F106F2E63002E2E2F68616C2F7372632F686F
S1139F20616C5F75736172745F73796E632E630025
S1139F304200000000000000000E0000420000008B
S1139F4000000000000E00000000000000000000FF
S1139F5000000000000000000000000000000000FD
S1139F6000000000000000000000000000000000ED
S1139F7000000000000000000000000000000000DD
S1139F8000000000000000000000000000000000CD
S1139F900004004200080042000C004200000000DF
S1139FA000000000000000000000000000000000AD
S1139FB0000000002E2E2F68706C2F736572636F83
S1139FC06D2F68706C5F736572636F6D2E63000034
S1139FD02825642C202564290D0A00005352435B74
S1139FE025645D203D202564207C7C206473745BA3
S1139FF025645D203D202564207C7C2044696666C0
S113A000203D202564200D0A0000000004200020CB
S113A010000000000000000000000000000000003C
S113A020000000000000000000000000000000002C
S113A030000000000000000000000000000000001C
S113A040000000000000000000000000000000000C
S113A05000000000000000000000000000000000FC
S113A06000000000000000000000000000000000EC
S113A070232D302B2000686C4C00656667454647ED
S113A0800030313233343536373839414243444570
S113A09046003031323334353637383961626364DF
S113A0A065660000F8B5C046F8BC08BC9E4670471B
S113A0B021810000F8B5C046F8BC08BC9E46704734
S107A0C0F580000023
S113A0C4042000200000000030A0000050A0000084
S113A0D410A00000000000000000000000000000C8
S113A0E40000000000000000000000000000000068
S113A0F40000000000000000000000000000000058
S113A1040000000000000000000000000000000047
S113A1140000000000000000000000000000000037
S107A1240000000033
S90380007C
