:020000021000EC
:100000000030032045010100DD010100DF01010096
:10001000E1010100E3010100E5010100E701010048
:10002000000000000000000000000000E9010100E5
:10003000EB01010000000000ED010100EF010100F3
:10004000630E01006B0E0100730E01007B0E0100B8
:10005000830E01008B0E0100930E01009B0E010028
:10006000A30E0100AB0E0100B30E0100BB0E010098
:10007000C30E0100CB0E0100D30E0100DB0E010008
:10008000E30E0100EB0E0100F30E0100FB0E010078
:10009000030F01000B0F0100130F01001B0F0100E4
:1000A000230F01002B0F0100330F01003B0F010054
:1000B000430F01004B0F0100530F01005B0F0100C4
:1000C000630F01006B0F0100730F01007B0F010034
:1000D000830F01008B0F0100930F01009B0F0100A4
:1000E000A30F0100AB0F0100B30F0100BB0F010014
:1000F000C30F0100CB0F0100D30F0100DB0F010084
:10010000E30F0100EB0F0100F30F0100FB0F0100F3
:10011000031001000B100100131001001B1001005F
:10012000231001002B100100331001003B100100CF
:100130002413010000800020000000000080002047
:100140001401000072B6134B134A17480360196874
:1001500081F3088882F30A8800F073FF0F4B07E0F1
:1001600003F10C049A685968186800F01FF82346D8
:100170000B4A9342F4D306E01C46596854F8080B26
:1001800000F023F82346074A9342F5D362B600F005
:1001900097FAFEE700000100002003203001010073
:1001A0003C0101004401010008ED00E000239342FE
:1001B0000AD210B450F8044B41F8044B0433934274
:1001C000F8D35DF8044B70477047002303E000222A
:1001D00040F8042B04338B42F9D37047FEE7FEE767
:1001E000FEE7FEE7FEE7FEE7FEE7FEE7FEE7FEE7E7
:1001F000FEE7FFFF80B586B002AFF860B9607A60B5
:100200003B607B680093BB68FA683968024800F07D
:1002100091FD00BEFDE700BFE010010080B584B095
:1002200000AF786039600023FB60094B1B7C002B1A
:1002300002D14FF0FF3306E03A687968054800F0D4
:1002400023F8F860FB6818461037BD4680BD00BF34
:10025000008000205902010080B582B000AF7860B4
:10026000084B1B7C002B02D14FF0FF3306E0054BFF
:100270009B68391D01220348984701231846083717
:10028000BD4680BD0080002080B59CB002AFF86004
:10029000B9607A6000233B660023FB650023FB61A5
:1002A000002387F84A3000237B61BB687B667B6E46
:1002B0001B78002B00F0D2817B6E1B7887F84930C9
:1002C00097F84930252B0BD097F84920FB6810464A
:1002D0009847FB690133FB617B6E01337B66BCE1B0
:1002E000012387F84B3000237B65002387F85B30C0
:1002F00020E07B6E01337B667B6E1B7887F849308C
:1003000097F849302F2B0FD997F84930392B0BD854
:100310007A6D13469B0013445B001A4697F84930E8
:100320001344303B7B6505E07B6E013B7B6601231C
:1003300087F85B3097F85B3083F00103DBB2002B6A
:10034000D7D17B6E01337B667B6E1B782E2B2ED133
:1003500000233B65002387F85B3020E07B6E013390
:100360007B667B6E1B7887F8493097F849302F2BD6
:100370000FD997F84930392B0BD83A6D13469B00AB
:1003800013445B001A4697F849301344303B3B65F1
:1003900005E07B6E013B7B66012387F85B3097F8B5
:1003A0005B3083F00103DBB2002BD7D102E07B6E20
:1003B000013B7B667B6E01337B667B6E1B7887F827
:1003C000493097F84930642B24D097F84930692B8D
:1003D00020D097F84930662B1CD097F84930462B2F
:1003E00018D097F84930782B14D097F84930582B0B
:1003F00010D097F849306F2B0CD097F84930622B0A
:1004000008D097F84930702B04D097F84930752BF5
:1004100040F0DC8097F84930642B03D097F84930DE
:10042000692B15D17B681A1D7A601B68BB6107F1C7
:10043000180107F1200097F84B3000930A2301229E
:1004400000F0AEFCF86507F12002FB6D13443B663B
:1004500097F84930582B03D097F84930782B1CD1A6
:1004600097F84930782B02D1002387F84B307B680E
:100470001A1D7A601B687B6107F1140107F12000E7
:1004800097F84B3000931023002200F089FCF865A8
:1004900007F12002FB6D13443B6697F849306F2B40
:1004A0000BD097F84930622B07D097F84930702B62
:1004B00003D097F84930752B6AD197F84930702BE3
:1004C0000DD17B681A1D7A601B683B6107F1100132
:1004D00007F114030422184600F0DAFD04E07B68FB
:1004E0001A1D7A601B687B6197F84930623B132BB9
:1004F0003AD801A252F823F0510501006905010024
:10050000690501006905010069050100690501002F
:10051000690501006905010069050100690501001F
:10052000690501006905010069050100490501002F
:10053000590501006905010069050100690501000F
:100540006905010061050100082387F84A300CE0C5
:10055000022387F84A3008E0102387F84A3004E085
:100560000A2387F84A3000E000BF97F84A2007F1D5
:10057000140107F1200097F84B3000931346002236
:1005800000F00EFCF86507F12002FB6D13443B669A
:100590007A6D07F11C01FB6800930B46F96D202072
:1005A00000F0DEFB3B6E002B54D00AE03B6E5A1E7F
:1005B0003A661B781A46FB6810469847FB69013378
:1005C000FB613B6E1B78002BF0D143E097F849307C
:1005D000632B0BD17B681A1D7A601B687B64FB68F8
:1005E000786C9847FB690133FB6133E097F8493039
:1005F000732B27D17B681A1D7A601B68FB64FB6C28
:10060000002B27D0F86C00F050FD0346FB657A6D97
:1006100007F11C01FB6800930B46F96D202000F0E8
:100620009FFB0AE0FB6C5A1CFA641B781A46FB68B5
:1006300010469847FB690133FB61FB6C1B78002B6C
:10064000F0D107E097F84920FB6810469847FB690E
:100650000133FB617B6E01337B6628E600BFFB69DB
:1006600018466837BD4680BD80B483B000AF0346EE
:10067000FB710B46BB7113467B71104B1B6B23F058
:100680007F02FB7903F01F031A43BB795B0103F080
:1006900060030A4913430B63084B9B6823F0020273
:1006A0007B795B0003F00203044913438B6000BFB6
:1006B0000C37BD465DF8047B704700BF0000024068
:1006C00080B500AF002201210720FFF7CDFF0348CE
:1006D00000F0F6FC142000F0FBFCFEE72011010006
:1006E00080B584B000AF78600023FB6009E00E4A5B
:1006F000FB6852F823307A689A4206D0FB680133CF
:10070000FB60FB68012BF2D900E000BFFB68012B06
:1007100005D9064B064A6D210648FFF76BFDFB68BD
:1007200018461037BD4680BD3C1101004411010040
:10073000741101006811010090B589B000AF7860B4
:10074000786800F085FCB8610023FB610023FB752D
:100750000023BB7500237B750023FB61C2E0FA69AF
:10076000BB691344644A52F823303B613B69002B58
:1007700000F0B4803B691B7B03F01F03FB733B69F4
:100780009B6803F148023B691B7B5B09DBB29B0062
:1007900013441A68FB7B22FA03F303F00103002BD6
:1007A00014BF01230023FB753B699B6803F15802CA
:1007B0003B691B7B5B09DBB29B0013441A68FB7B24
:1007C00022FA03F303F00103002B14BF01230023DB
:1007D000BB75FB7D002B1DD0BB7D002B1AD0FA7B97
:1007E0003B699B6803F158013B691B7B5B09DBB2EA
:1007F0009B000B44012101FA02F21A603B691B685D
:10080000002B07D03B691C683B6959680023012213
:100810003869A0473B699B6803F160023B691B7B19
:100820005B09DBB29B0013441A68FB7B22FA03F3DB
:1008300003F00103002B14BF012300237B75FB7D14
:10084000002B1DD07B7D002B1AD0FA7B3B699B6867
:1008500003F160013B691B7B5B09DBB29B000B442E
:10086000012101FA02F21A603B691B68002B07D0D4
:100870003B691C683B695968012301223869A0471C
:100880003B699B6803F140023B691B7B5B09DBB260
:100890009B0013441A68FB7B22FA03F303F0010365
:1008A000002B1CD0FA7B3B699B6803F140013B693C
:1008B0001B7B5B09DBB29B000B44012101FA02F2B6
:1008C0001A603B691B68002B09D03B691C683B69B7
:1008D0005968022300223869A04700E000BFFB6985
:1008E0000133FB61FB69162B7FF639AF00BF00BFF8
:1008F0002437BD4690BD00BF1480002080B500AFF6
:100900000248FFF719FF00BF80BD00BF002008406C
:1009100080B500AF0248FFF70FFF00BF80BD00BFEA
:1009200000700A4080B584B000AF78607B68BB601F
:100930000023FB6009E0BA680D49FB6851F82330D9
:100940009A4206D0FB680133FB60FB68082BF2D9A2
:1009500000E000BFFB68082B05D9064B064A6A2158
:100960000648FFF747FCFB6818461037BD4680BDB8
:1009700084110100A811010010120100D81101001A
:1009800080B582B000AF1148FFF7CCFF7860104A05
:100990007B6852F82330002B05D10E4B0E4AB7214D
:1009A0000E48FFF727FC0A4A7B6852F823300C49AF
:1009B0007A6851F8222010460A497A6851F82220B4
:1009C0001146984700BF0837BD4680BD006008400B
:1009D000CC800020E811010028120100D81101008C
:1009E00084110100F080002080B582B000AF114872
:1009F000FFF798FF7860104A7B6852F82330002B8D
:100A000005D10E4B0E4AC5210E48FFF7F3FB0A4AEB
:100A10007B6852F823300C497A6851F8222010463E
:100A20000A497A6851F822201146984700BF0837D2
:100A3000BD4680BD00700840CC800020E811010058
:100A400044120100D811010084110100F08000203F
:100A500080B582B000AF1148FFF764FF7860104A9C
:100A60007B6852F82330002B05D10E4B0E4AD32160
:100A70000E48FFF7BFFB0A4A7B6852F823300C4947
:100A80007A6851F8222010460A497A6851F82220E3
:100A90001146984700BF0837BD4680BD008008401A
:100AA000CC800020E811010060120100D811010083
:100AB00084110100F080002080B582B000AF1148A1
:100AC000FFF730FF7860104A7B6852F82330002B24
:100AD00005D10E4B0E4AE1210E48FFF78BFB0A4A67
:100AE0007B6852F823300C497A6851F8222010466E
:100AF0000A497A6851F822201146984700BF083702
:100B0000BD4680BD00900840CC800020E811010067
:100B10007C120100D811010084110100F080002036
:100B200080B582B000AF1148FFF7FCFE7860104A34
:100B30007B6852F82330002B05D10E4B0E4AEF2173
:100B40000E48FFF757FB0A4A7B6852F823300C49DE
:100B50007A6851F8222010460A497A6851F8222012
:100B60001146984700BF0837BD4680BD00A0084029
:100B7000CC800020E811010098120100D81101007A
:100B800084110100F080002080B582B000AF1148D0
:100B9000FFF7C8FE7860104A7B6852F82330002BBC
:100BA00005D10E4B0E4AFE210E48FFF723FB0A4AE1
:100BB0007B6852F823300C497A6851F8222010469D
:100BC0000A497A6851F822201146984700BF083731
:100BD000BD4680BD00600940CC800020E8110100C6
:100BE000B4120100D811010084110100F08000202E
:100BF00080B582B000AF1248FFF794FE7860114ACA
:100C00007B6852F82330002B06D10F4B0F4A4FF46C
:100C100086710F48FFF7EEFA0A4A7B6852F82330D4
:100C20000C497A6851F8222010460B497A6851F82D
:100C300022201146984700BF0837BD4680BD00BF3F
:100C400000700940CC800020E8110100D0120100A2
:100C5000D811010084110100F080002080B582B01D
:100C600000AF1248FFF75EFE7860114A7B6852F8C9
:100C70002330002B06D10F4B0F4A4FF48D710F48D4
:100C8000FFF7B8FA0A4A7B6852F823300C497A68B1
:100C900051F8222010460B497A6851F8222011465B
:100CA000984700BF0837BD4680BD00BF008009409F
:100CB000CC800020E8110100EC120100D8110100E5
:100CC00084110100F080002080B582B000AF12488E
:100CD000FFF728FE7860114A7B6852F82330002B1A
:100CE00006D10F4B0F4A4FF494710F48FFF782FA69
:100CF0000A4A7B6852F823300C497A6851F822205E
:100D000010460B497A6851F822201146984700BFD7
:100D10000837BD4680BD00BF00F00940CC800020F0
:100D2000E811010008130100D8110100841101002D
:100D3000F08000200FB480B582B000AF00237B604C
:100D400007F114033B6039683869FFF767FA786088
:100D50007B6818460837BD46BDE8804004B0704740
:100D600080B586B000AFB9607A603B600346FB7324
:100D7000BB687B610BE0FA7B3B6A104698473B6897
:100D80001B685A1C3B681A607B6901337B617A6976
:100D90007B689A42EFDB00BF00BF1837BD4680BDBD
:100DA00080B48FB000AFF860B9607A603B60002318
:100DB000FB62FB68BB62BB6A5A1CBA6200221A70F3
:100DC00000237B6000237B6200233B620023FB61E6
:100DD00000237B630023BB6100233B6300237B6113
:100DE000BB681B687B637B6B002B30D1BB6A3022F6
:100DF0001A70FB6A0133FB62FB6A2CE03B687A6B7A
:100E0000B2FBF3F3BB613B68BA6902FB03F37A6B95
:100E1000D31A3B633B6B092B03D83B6B30333B63EB
:100E20000AE097F84030002B01D0412200E0612217
:100E30003B6B13440A3B3B63BB697B63BB6A5A1C35
:100E4000BA623A6BD2B21A70FB6A0133FB627B6BF7
:100E5000002BD3D1FB6A18463C37BD465DF8047BB6
:100E6000704708B5FFF7C4F908BD08B5FFF746FDA0
:100E700008BD08B5FFF7BCF908BD08B5FFF7B8F91C
:100E800008BD08B5FFF7B4F908BD08B5FFF7B0F91C
:100E900008BD08B5FFF7ACF908BD08B5FFF7A8F91C
:100EA00008BD08B5FFF7A4F908BD08B5FFF7A0F91C
:100EB00008BD08B5FFF79CF908BD08B5FFF798F91C
:100EC00008BD08B5FFF794F908BD08B5FFF790F91C
:100ED00008BD08B5FFF754FD08BD08B5FFF784FD50
:100EE00008BD08B5FFF7B4FD08BD08B5FFF7E4FD80
:100EF00008BD08B5FFF714FE08BD08B5FFF744FEAE
:100F000008BD08B5FFF774FE08BD08B5FFF7A6FEDB
:100F100008BD08B5FFF76CF908BD08B5FFF768F91B
:100F200008BD08B5FFF764F908BD08B5FFF760F91B
:100F300008BD08B5FFF75CF908BD08B5FFF758F91B
:100F400008BD08B5FFF754F908BD08B5FFF750F91B
:100F500008BD08B5FFF74CF908BD08B5FFF748F91B
:100F600008BD08B5FFF744F908BD08B5FFF740F91B
:100F700008BD08B5FFF73CF908BD08B5FFF738F91B
:100F800008BD08B5FFF734F908BD08B5FFF730F91B
:100F900008BD08B5FFF72CF908BD08B5FFF728F91B
:100FA00008BD08B5FFF724F908BD08B5FFF720F91B
:100FB00008BD08B5FFF71CF908BD08B5FFF718F91B
:100FC00008BD08B5FFF714F908BD08B5FFF710F91B
:100FD00008BD08B5FFF70CF908BD08B5FFF708F91B
:100FE00008BD08B5FFF704F908BD08B5FFF700F91B
:100FF00008BD08B5FFF7FCF808BD08B5FFF7F8F81D
:1010000008BD08B5FFF7F4F808BD08B5FFF7F0F81C
:1010100008BD08B5FFF7ECF808BD08B5FFF7E8F81C
:1010200008BD08B5FFF7E4F808BD08B5FFF7E0F81C
:1010300008BD08B5FFF76CFC08BD08B5FFF744FE16
:1010400008BD80B400AF00BFBD465DF8047B7047AB
:1010500080B586B000AF786000237B610023FB6021
:1010600000233B617868FFF73BFBF86000233B619E
:1010700005E07B6917337B613B6901333B613A696A
:10108000FB689A42F5D37B6918461837BD4680BD88
:101090000A44431E914200D1704710B511F8014B2C
:1010A000914203F8014FF9D110BD034613F8012B0B
:1010B000002AFBD1181A01387047FFFFFFFFFFFF1E
:1010C00001B40248844601BC604700BF11FE001015
:1010D00001B40248844601BC604700BF01FE001015
:1010E000415353455254204552524F5220222025FD
:1010F0007320223A2066696C652022257322204CD9
:10110000696E6520222564222066756E6374696F9E
:101110006E206E616D652022257322200A00FFFF7C
:1011200057656C636F6D6520696E206E6F726D61BF
:101130006C20776F726C64210D0A00FF002008405C
:1011400000700A40696E7374616E6365203C2041D3
:10115000525241595F53495A4528735F646D614249
:10116000617365732900000066736C5F646D612EA6
:101170006300FFFF444D415F476574496E737461BE
:101180006E63650000600840007008400080084001
:101190000090084000A0084000600940007009402D
:1011A0000080094000F0094069203C202875696EE4
:1011B0007433325F742946534C5F4645415455524F
:1011C000455F534F435F464C4558434F4D4D5F433A
:1011D0004F554E540000000066736C5F666C657876
:1011E000636F6D6D2E6300FF735F666C6578636F70
:1011F0006D6D49727148616E646C65725B696E7386
:1012000074616E63655D20213D204E554C4C00FF9E
:10121000464C4558434F4D4D5F476574496E737456
:10122000616E636500FFFFFF464C4558434F4D4DCF
:10123000305F44726976657249525148616E646CE0
:10124000657200FF464C4558434F4D4D315F447227
:101250006976657249525148616E646C657200FF2F
:10126000464C4558434F4D4D325F44726976657226
:1012700049525148616E646C657200FF464C455896
:10128000434F4D4D335F4472697665724952514800
:10129000616E646C657200FF464C4558434F4D4D7E
:1012A000345F44726976657249525148616E646C6C
:1012B000657200FF464C4558434F4D4D355F4472B3
:1012C0006976657249525148616E646C657200FFBF
:1012D000464C4558434F4D4D365F447269766572B2
:1012E00049525148616E646C657200FF464C455826
:1012F000434F4D4D375F447269766572495251488C
:10130000616E646C657200FF464C4558434F4D4D0D
:10131000385F44726976657249525148616E646CF7
:04132000657200FFF3
:0400000310000145A3
:00000001FF
