:10000000382200202501000021010000210100000C
:1000100000000000000000000000000000000000E0
:1000200000000000000000000000000021010000AE
:10003000000000000000000021010000210100007C
:100040002101000021010000210100002101000028
:100050002101000021010000C9040000210100006D
:100060002101000021010000210100002101000008
:1000700021010000210100002101000021010000F8
:1000800021010000210100002101000021010000E8
:1000900021010000210100002101000021010000D8
:1000A00021010000210100002101000021010000C8
:1000B0000000000010B5064C2378002B07D1054B3B
:1000C000002B02D0044800E000BF0123237010BDC4
:1000D0007000002000000000901E0000084B10B5CA
:1000E000002B03D00749084800E000BF0748036819
:1000F000002B00D110BD064B002BFBD09847F9E731
:100100000000000074000020901E0000901E0000FF
:100110000000000010B5014B984710BDC10200005F
:10012000FEE70000F8B52A4A2A4B9A4211D01A007D
:10013000294B9A420DD2294A03339B1A9B0801335B
:100140009B000022234822498C58845004329A4252
:10015000FAD1234A234B9A420AD2D34321495B184E
:1001600003218B4304339B18002102C29342FCD12C
:100170001D4AFF211D4B8B439360FD3990235B008B
:100180001B4AD1501B4AD3780325AB430224234397
:10019000D370D3780C27BB4308263343D370164B58
:1001A000987B30229043202210439873997BB94367
:1001B000314399739A7BAA4322439A730F4A536837
:1001C00080210B4353600E4B98470E4B9847FEE738
:1001D000901E0000000000206800002004000020A5
:1001E000700000203402002000ED00E0000000005C
:1001F00000700041005000410048004100400041B3
:100200005D0D00001106000030B50E4B5622995CC2
:100210000125A94301242143C9B299543B20195C0B
:10022000473A91430D3A1143195457215A5CAA4356
:100230002243D2B25A541A5C48390A4011310A4357
:100240001A5430BD00440041044A136A20210B4374
:100250001362034A034B5A807047C04600040040B3
:1002600017400000000C004010B5054B98470022D5
:1002700004490548054B9847054B984710BDC046B3
:100280004902000000140042A40000206907000099
:1002900009020000074B196A802252010A431A62C0
:1002A000196A802292010A431A62034A034B5A8058
:1002B0007047C046000400401C400000000C004095
:1002C00010B50D4B9847C023DB058022D20598213D
:1002D0005A5010395A50094B20315A50084A5A5036
:1002E00036315A5C012082435A54064B9847064BDC
:1002F0009847064B984710BD250800000044004170
:10030000004000C06902000095020000ED0B0000F3
:1003100002224E23C254704710B582B0040001A9D6
:10032000087001220248034B9847200002B010BD1C
:10033000A40000205106000070470000F8B5171E09
:1003400007DD0C008D18044E2078B0470134AC4214
:10035000FAD13800F8BDC0461903000080B584B05A
:1003600000AF78600023FB6070E0FA687B689A4217
:1003700000DA3A48FA687B689A4200DB384801683C
:100380000168016801680168016801680168016825
:100390000168016801680168016801680168016815
:1003A0000168016801680168016801680168016805
:1003B00001680168016801680168016801680168F5
:1003C00001680168016801680168016801680168E5
:1003D00001680168016801680168016801680168D5
:1003E00001680168016801680168016801680168C5
:1003F00001680168016801680168016801680168B5
:1004000001680168016801680168016801680168A4
:100410000168016801680168016801680168016894
:100420000168016801680168016801680168016884
:100430000168016801680168016801680168016874
:10044000016801680168FB680133FB60FB68FF2BF2
:1004500000DC8AE7C046BD4604B080BD0400002031
:100460000000006070B50500002100200E4B984789
:10047000002100200D4B98470D4C210000200D4B12
:100480009847210000200C4B9847290000200B4B77
:100490009847002100200A4B9847012200210020A4
:1004A000084B984770BDC0467D0900002D0A00002A
:1004B0008C0000206D0900005D0900009D0900000E
:1004C000F10900001909000080B584B000AF2C4B81
:1004D000FB602C4BBB602C4B7B60BB681B683B609C
:1004E000FB681B68022293431A00FB681A60274BC3
:1004F0001800274B9847274B1B68002B06D1264B2B
:1005000019683A68254B1800254B9847214B002263
:100510001A60244B1B685A1C224B1A60214B1B6823
:10052000632B10DD1C4B1B68FE2B08DC1A4B1B6871
:100530005A1C194B1A601B4B00221A6003E0164B21
:1005400000221A6019E0FA23DB001800164B9847C6
:10055000BB6800221A60FB681B6802221A43FB6812
:100560001A607B681B6801221A437B681A600A4B79
:100570001B6818000D4B9847C046BD4604B080BDAF
:100580000030004210300042104800410048004155
:10059000110300000000002090000020EC1C00006F
:1005A000B50D000094000020650400005D0300000C
:1005B00080B584B000AF104BFB60104BBB60104B9C
:1005C0007B60FA23DB0018000E4B9847BB680022C3
:1005D0001A60FB681B6802221A43FB681A607B687A
:1005E0001B6801221A437B681A60074B1B681800BE
:1005F000064B9847FEE7C0460030004210300042EC
:100600001048004165040000900000205D030000D8
:1006100080B500AF084B9847084B1800084B984727
:10062000084B1800084B9847064B1800064B984794
:10063000064B9847FEE7C04615010000A4000020C5
:10064000B5070000F81C0000A90E0000B10500006D
:1006500070B506000C00150000280DD00800431EE0
:100660009841C0B234220549054B984733682A00A7
:1006700021003000984770BD0020F3E7FC1C00000B
:10068000E1070000F8B5CE46474680B504000F00EC
:100690009046002826D0002926D01000431E9841FD
:1006A000F1221249124B98470834124D2000A847F6
:1006B0000028FBD00026104B99460E4DB95D200056
:1006C000C8472000A8470028FBD001364645F5D38F
:1006D0000A4D2000A8470028FBD030000CBC9046F3
:1006E0009946F8BD0020DBE70020D9E7101D000087
:1006F000E1070000790B0000690B0000830B00008C
:10070000F8B5CE46474680B504000F009046002855
:100710001DD000291DD01000431E98418622520092
:100720000D490E4B9847002608340D4D0D4B994648
:100730002000A8470028FBD02000C847B855013644
:100740004645F5D330000CBC90469946F8BD0020D4
:10075000E4E70020E2E7C046101D0000E1070000CA
:100760008D0B0000710B000070B505000C00002817
:1007700013D00800431E9841C0B234220849094BE7
:100780009847280008302100074B9847002803D1DC
:10079000064B6B60064B2B6070BD0020EDE7C0463A
:1007A000101D0000E1070000290B000001070000F8
:1007B0008506000010B50400431E9841C0B25322C4
:1007C0000449054B984720000830044B9847002007
:1007D00010BDC046101D0000E1070000550B0000D1
:1007E000002800D100BE70470300064A1268002AA4
:1007F00004D0044A1068C318136070470249014AC4
:100800001160F6E7980000203822002001204042C5
:10081000704780239B014B60002070470120704788
:100820000020704710B50C4B5A685A600B4B984724
:100830000B4B98470B4B9847FF200B4B98470B4BA4
:100840005A6920210A435A61DA6910390A43DA6188
:10085000074B984710BDC046004000416D0A00009C
:10086000990B0000DD0B00004D0A00000004004061
:1008700075080000F0B5234B1A8802218A431A80BC
:100880001A8802318A431A804022995C0120014370
:10089000C9B29954F02212011A805A7B01218A436D
:1008A0000243D2B25A7300225A61174A5A63174A56
:1008B0009A63174904310023124C3F27124800263F
:1008C000DAB2E2550A6862648D881A0115528218FC
:1008D000D66001330C310C2BF2D10E4B402280211B
:1008E0005A50BFF34F8FBFF36F8F0131FF315A5012
:1008F0001A60044A13887F39FF390B4313800020A4
:10090000F0BDC04600480041B0000020700100204A
:100910002C1D000000E100E010B53F230E4CE05418
:1009200000290AD1002A03D102310D33E15406E037
:1009300002214D23084AD15401E0012900D010BD05
:10094000002A04D001214D23034AD154F7E74C2358
:10095000014AD154F3E7C046004800410301024870
:10096000C018816000207047B000002003010248D9
:10097000C018416000207047B000002010B5054A43
:100980000001835A8902044C2340194389B28152E1
:10099000002010BDB0000020FFFBFFFF30B5134A60
:1009A000040113199D68A35A9B059B0FA25A1205B7
:1009B00006D50C009C40641905010C4A521994603C
:1009C0000A4A040115196D68A45A620506D50A0081
:1009D0009A4052190401054B1B195A6089B2000153
:1009E000024B18184180002030BDC046B0000020E6
:1009F00070B50C4B3F2298540B4C05012A5B012625
:100A000032432A5340241A5D02252A431A550029ED
:100A100005D01A001969012383400B43136100209C
:100A200070BDC04600480041B000002010B5054A26
:100A30000001835AC902044C2340194389B28152F0
:100A4000002010BDB0000020FFF7FFFFC3070AD54C
:100A5000054B802252009A60832252025A601A008B
:100A60005378DB09FCD17047000C0040064B1A7A22
:100A7000D2B21A725A7AD2B25A729A7AD2B29A729E
:100A8000DA7AD2B2DA7270470004004010B504007E
:100A90001F4BC3189B0ADBB2032B04D01D4A1E490F
:100AA00000201E4B9847E369DB0718D40322E36953
:100AB0001A42FCD123689B070BD52368022293437B
:100AC00023600132E3691A42FCD10222E3691A422F
:100AD000FCD1052323600322E3691A42FCD10122E1
:100AE000E3691A42FCD10E4B23600322E3691A42E8
:100AF000FCD1C0239B0263600722E3691A42FCD148
:100B0000084BA3810023A3733022A354002010BDFF
:100B100000F8FFBD3A020000BC1D0000E107000024
:100B20000400104015FBFFFF70B505000C00431ECC
:100B30009841C0B2B4220449044B98472C6020006D
:100B4000034B984770BDC046BC1D0000E107000084
:100B50008D0A00000268136802210B431360013103
:100B6000D3691942FCD17047036889B2198570476F
:100B70000368188DC0B270470368187E01231840BF
:100B800070470368187E8007C00F70470368187E9F
:100B90004007C00F704700000E4B196A1A6A0E48D2
:100BA0000140920F9207022002430A431A629A6997
:100BB00002439A611A7F1F210A401A7719000822FE
:100BC000CB681A42FCD0034A136A80210B4313629C
:100BD0007047C046000800400000FF0F024A9369BA
:100BE00002218B439361704700080040124AD37B77
:100BF000DB09FCD1104B1B889B0707D50E4A1388D5
:100C000002218B431380D37BDB09FCD101220A4BE9
:100C10001A801A00D37BDB09FCD1074B074A1A80E4
:100C2000074A5A8001221A721A8802218A430A430B
:100C30001A8000207047C0460030004208080000BB
:100C400010C0FFFF002243088B4274D303098B427C
:100C50005FD3030A8B4244D3030B8B4228D3030C8C
:100C60008B420DD3FF22090212BA030C8B4202D32E
:100C70001212090265D0030B8B4219D300E0090A56
:100C8000C30B8B4201D3CB03C01A5241830B8B425F
:100C900001D38B03C01A5241430B8B4201D34B0348
:100CA000C01A5241030B8B4201D30B03C01A5241AD
:100CB000C30A8B4201D3CB02C01A5241830A8B4232
:100CC00001D38B02C01A5241430A8B4201D34B021B
:100CD000C01A5241030A8B4201D30B02C01A52417F
:100CE000CDD2C3098B4201D3CB01C01A5241830933
:100CF0008B4201D38B01C01A524143098B4201D36D
:100D00004B01C01A524103098B4201D30B01C01A97
:100D10005241C3088B4201D3CB00C01A5241830811
:100D20008B4201D38B00C01A524143088B4201D33E
:100D30004B00C01A5241411A00D20146524110469E
:100D40007047FFE701B5002000F006F802BDC0467D
:100D50000029F7D076E770477047C04670B5002687
:100D60000C4D0D4C641BA410A64209D1002601F0C5
:100D70007FF80A4D0A4C641BA410A64205D170BD31
:100D8000B300EB5898470136EEE7B300EB589847AD
:100D90000136F2E77C1E00007C1E00007C1E000075
:100DA000801E000003008218934200D17047197022
:100DB0000133F9E70FB40B4B13B51C68002C05D0B9
:100DC000A369002B02D1200000F03CFA05AB049A85
:100DD000A1682000019300F007FC16BC08BC04B019
:100DE0001847C0460400002070B505000E0000281A
:100DF00004D08369002B01D100F024FAAB69AC6800
:100E0000002B02D1280000F01DFA244B9C420FD188
:100E10006C68A3891B0702D52369002B20D1210010
:100E2000280000F0A1F800281AD00120404270BD2F
:100E30001B4B9C4201D1AC68EBE71A4B9C42E8D1BA
:100E4000EC68E6E7013B0136A360002B04DAA269F7
:100E5000934216DB0A2914D023685A1C22601970A9
:100E60003178A3680029EDD1013BA360002B0FDA94
:100E700022000A31280000F021F8431CD5D00A20B6
:100E8000D5E72200280000F019F8431CE8D1CCE790
:100E90000A2023685A1C22601870C8E7FC1D000055
:100EA0001C1E0000DC1D000010B5034B010018687B
:100EB000FFF79AFF10BDC04604000020F8B50500FA
:100EC0000E001400002804D08369002B01D100F02B
:100ED000B9F9224B9C422DD16C68A369A360A38908
:100EE0001B0731D52369002B2ED023682269F7B266
:100EF000981A6369F6B2984205DB2100280000F0D9
:100F000033F9002826D1A3680130013BA360236890
:100F10005A1C22601F706369984204D0A389DB07C2
:100F20001AD50A2E18D12100280000F01DF900283A
:100F300012D00FE00A4B9C4201D1AC68CDE7094BBF
:100F40009C42CAD1EC68C8E72100280000F00CF8E8
:100F50000028CAD0012676423000F8BDFC1D0000F2
:100F60001C1E0000DC1D0000364B70B51D6806001D
:100F70000C00002D05D0AB69002B02D1280000F039
:100F800061F9314B9C420FD16C680C23E25E93B245
:100F900019072DD4D90611D4092301203360373322
:100FA0001343A381404270BD284B9C4201D1AC68E1
:100FB000EBE7274B9C42E8D1EC68E6E75B0713D5EB
:100FC000616B002908D023004433994202D03000DD
:100FD00000F03AFA002363632422A3899343A38198
:100FE00000236360236923600823A2891343A3813C
:100FF0002369002B0BD1A0218022A38989009200B4
:101000000B40934203D02100300000F0D9F90123B6
:10101000A289134011D00023A36063695B42A361DE
:10102000002023698342BED10C23E25E1306BAD5A9
:1010300040231343A3810138B5E7920700D46369C5
:10104000A360EDE704000020FC1D00001C1E000052
:10105000DC1D0000F7B58A8905000C00130760D479
:101060004B68002B04DC0B6C002B01DC0020FEBD68
:10107000E76A002FFAD000232E682B6080235B01E3
:101080001A4034D0606DA3895B0706D56368C01A27
:10109000636B002B01D0236CC01A0200216A00236D
:1010A0002800E76AB847A189431C06D12B681D2B8D
:1010B00031D82C4ADA40D3072DD500236360236949
:1010C0002360CB0405D5431C02D12B68002B00D133
:1010D0006065616B2E600029C8D0230044339942BB
:1010E00002D0280000F0B0F900206063BFE70123C0
:1010F000216A2800B847431CC5D12B68002BC2D0F9
:101100001D2B01D0162B01D12E60AFE74023A28901
:101110001343A381ABE740230B430120A38140424B
:10112000A5E70F69002FA1D00B680F60DB1B0193AF
:101130000023920700D14B69A360019B002B00DCC8
:1011400094E7019B3A00216A2800A66AB04700286C
:1011500003DC4023A2891343DFE7019B3F181B1ADE
:101160000193EAE7010040200B6970B505000C000F
:10117000002B01D1002070BD002804D08369002B12
:1011800001D100F05FF80B4B9C4209D16C680C2236
:10119000A35E002BEED021002800FFF75BFFEAE7FB
:1011A000054B9C4201D1AC68F1E7044B9C42EED167
:1011B000EC68ECE7FC1D00001C1E0000DC1D0000BC
:1011C00010B5024900F0B2F810BDC0466911000028
:1011D000002310B50400036043608360818143668F
:1011E000C281036143618361190008225C30FFF70B
:1011F000D9FD054B24626362044BA362044BE36296
:10120000044B236310BDC046551B00007D1B00002E
:10121000B51B0000E11B000070B568254A1E554350
:101220000E002900743100F059F9041E08D0002185
:101230002A00016046600C30A0606832FFF7B2FD02
:10124000200070BD836913B50400002B28D183648E
:10125000C3640365134B144A1B688262019398426E
:1012600001D101238361200000F020F8606020009C
:1012700000F01CF8A060200000F018F80022E060E8
:1012800004216068FFF7A4FF01220921A068FFF78D
:101290009FFF02221221E068FFF79AFF0123A3615A
:1012A00013BDC046D81D0000C1110000F8B51E4B8B
:1012B00007001E68B369002B02D13000FFF7C2FFA0
:1012C0004836B4687368013B04D53368002B07D0F7
:1012D0003668F6E70C22A55E002D0DD06834F2E7E3
:1012E00004213800FFF798FF30600028F0D10C236C
:1012F00004003B602000F8BD012320005B42E38135
:101300000233A38165662560A5606560256165611E
:10131000A561082229005C30FFF744FD6563A563E1
:10132000A564E564E6E7C046D81D0000F7B50400F3
:101330000700002601914834002C01D13000FEBD89
:101340006368A5680093009B013B009301D5246866
:10135000F2E7AB89012B08D90E22AB5E013304D032
:1013600029003800019B984706436835EBE70000E9
:1013700070B50E001D000E23C95E90B01400002948
:1013800007DA00232B60B3891B0611D48023DB000E
:101390000FE001AA00F050FC0028F2DBF022029BD3
:1013A00012021340054A9B185A4253412B60EDE745
:1013B00040230020236010B070BDC04600E0FFFF56
:1013C000F7B502268B8905000C00334206D02300B6
:1013D00047332360236101236361F7BD01AB6A4694
:1013E000FFF7C6FF00990700280000F077F80028F3
:1013F00008D10C22A35E9A05EFD4032293431E4327
:10140000A681E4E70F4BAB628023A28920601343DF
:10141000A381009B20616361019B002B0DD00E23F3
:10142000E15E280000F01AFC002806D00322A38900
:1014300093431A0001231343A381A0893843A08159
:10144000CBE7C046C111000070B50500002910D0DF
:101450000C1F2368002B00DAE418280000F02FFC92
:101460001D4A1368002B05D163601460280000F04A
:1014700027FC70BDA34209D9216860188342F3D1CB
:1014800018685B6841182160EEE713005A68002A6B
:1014900001D0A242F9D919685818A0420BD120688E
:1014A0000918581819608242E0D110685268411832
:1014B00019605A60DAE7A04202D90C232B60D5E705
:1014C00021686018824203D1106852684118216077
:1014D00062605C60CAE7C0469C000020032370B5D0
:1014E000CD1C9D43083506000C2D1ED20C25A942AB
:1014F0001DD8300000F0E3FB254A146821000029C4
:1015000019D1244C2368002B03D1300000F010FBCC
:1015100020602900300000F00BFB431C2CD10C2371
:101520003000336000F0CCFB03E0002DDFDA0C2349
:101530003360002070BD0B685B1B1AD40B2B03D9E2
:101540000B60CC18256003E08C420ED163681360F9
:10155000300000F0B5FB200007220B30231D904324
:10156000C31AE7D05A42E250E4E74B6863600C00CC
:10157000EEE70C004968C2E70323C41C9C43A04269
:10158000E0D0211A300000F0D3FA431CDAD1C6E7CC
:101590009C000020A0000020936810B5013B9360E0
:1015A000002B05DA9469A34208DBCBB20A2B05D0E5
:1015B0001368581C10601970C8B210BDFFF77EFC8C
:1015C000FBE7F8B506000F001400D518AC4201D1B6
:1015D000002007E021783A003000FFF7DDFF0134FA
:1015E000431CF3D1F8BD0000F0B59FB006000F001A
:1015F00014000593002804D08369002B01D1FFF764
:1016000021FE7F4B9F425CD17768BB891B0762D567
:101610003B69002B5FD0002306AD6B6120336B76F6
:101620001033AB760294029C2378002B5DD1029B91
:10163000E31A04930DD0049B029A39003000FFF79F
:10164000C0FF431C00D1CCE06A69049B944663440C
:101650006B612378002B00D1C3E0012200235242AA
:101660006A6002A95432521801342B60EB60AB60FF
:101670001370AB6521780522624800F015FB631CEE
:101680009C46002835D12968CB0604D5532302AAED
:1016900020309B1818700B0704D553232B2002AA67
:1016A0009B18187023782A2B2CD000200A21099B24
:1016B0002278303A092A00D86BE000282AD0099312
:1016C00028E0514B9F4201D1B7689EE74F4B9F42A4
:1016D0009BD1F76899E739003000FFF745FC0028F7
:1016E00099D0012040421FB0F0BD252B9FD001347E
:1016F0009AE7444B2968C01A012383400B432B60AF
:101700006446B7E7059B181D1B680590002B3ADB64
:101710000993644623782E2B0BD16378621C2A2B05
:101720003FD1059B02341A1D1B680592002B35DB47
:10173000079321780322364800F0B6FA002807D034
:10174000334B2A68C01A4023834013432B60013473
:101750002178631C06222F480293297600F0A4FA10
:10176000002844D02C4B002B2FD12968059B072241
:10177000C90528D59B189343083305936B69039AD1
:101780009B186B614FE75B42EB6002230B432B60BE
:10179000BFE74B4301349B18012089E701235B42DB
:1017A000C6E7002314000A201A006B602178303944
:1017B000092903D9002BBCD00792BAE74243013470
:1017C00052180123F2E70733D5E705AB00933A003F
:1017D000124B2900300000E000BF0390039B01334F
:1017E000CCD1BB895B0600D57BE70B987BE705ABCB
:1017F00000933A00094B2900300000F07FF8ECE735
:10180000FC1D00003C1E00001C1E0000DC1D000032
:10181000421E0000461E000000000000C31500002C
:10182000F7B5150001938A680B6900900C0093428C
:1018300000DA130022002B6043321278002A01D014
:1018400001332B6023689B0602D52B6802332B6083
:10185000062723681F4027D0230043331B785A1ED6
:1018600093412268920630D42200019943320098B5
:10187000089EB047431C25D0062320682A68E168EB
:1018800003400025042B03D18D1AEB43DB171D40C9
:10189000A3682269934201DD9B1AED180027BD421F
:1018A00020D1002010E00137E3682A689B1A9F428C
:1018B000D2DA22000123193201990098089EB0471C
:1018C000431CF0D101204042FEBD3020E1184331DD
:1018D000087021005A1C45310978A218433202339E
:1018E0001170C1E7220001231A3201990098089E65
:1018F000B047431CE6D00137D1E70000F0B58BB00C
:1019000006920A0043320793059004920A7E0C0067
:10191000109B6E2A00D18FE017D8632A2CD008D8EC
:10192000002A00D199E0582A54D02600423632705D
:1019300029E0642A01D0692AF7D121681A680806CB
:1019400023D5111D1960156825E0732A00D188E0A0
:1019500008D86F2A29D0702AE7D1202209680A43C3
:10196000226003E0752A20D0782ADED12200782177
:10197000453211706C4A30E00E001A684236111D73
:10198000196013683370012379E04906D9D5111D18
:1019900019600023D55E002D03DA2D23049A6D42D1
:1019A0001370624B0A2703932FE02068196805061D
:1019B00003D5081D18600D6805E04006F9D50D68CF
:1019C000081D1860ADB2594B082703936F2A18D031
:1019D0000A2716E045310A70544A03921A682168B2
:1019E000101D18601568080622D5CB0702D52023E4
:1019F000194321601027002D03D1202322689A4328
:101A000022602300002243331A706368A360002B16
:101A10005CDB0422216891432160002D58D1049E93
:101A2000002B64D02600039B42361B7833705EE0A7
:101A30004806DAD5ADB2D8E709681A68080605D5B0
:101A4000111D1960136862691A6006E04906F7D52E
:101A5000111D19601368A28A1A800023049E236155
:101A600054E01A68111D1960166800216268300080
:101A700000F01AF9002801D0801B606063682361C0
:101A80000023049A137041E02369320006990598F7
:101A9000079DA847431C43D0236800259B070FD40C
:101AA000099BE06898423DDA18003BE022000123E0
:101AB000193206990598079EB047431C30D001356E
:101AC000E368099A9B1A9D42F0DBE9E7002DA9D053
:101AD000049E28003900FFF73BF9039B013E5B5C45
:101AE000280033703900FFF7ADF8051EF1D1082F3B
:101AF00009D12368DB0706D563682269934202DCBB
:101B00003023013E3370049B9B1B2361079B09AA72
:101B100000932100069B0598FFF782FE431CB3D17A
:101B2000012040420BB0F0BD5E1E00004D1E0000C3
:101B3000002370B5064C050008002360FEF754FE34
:101B4000431C03D12368002B00D02B6070BDC0461E
:101B50003002002070B50C000E25495F00F0B2F88D
:101B6000002803DB636D1B18636570BDA389024AFF
:101B70001340A381F9E7C046FFEFFFFFF8B51F0050
:101B80008B8905000C001600DB0505D50E23C95E08
:101B90000022022300F074F8A389054A28001340AC
:101BA000A38132000E23E15E3B0000F01FF8F8BD78
:101BB000FFEFFFFF70B50C000E25495F00F060F8E5
:101BC000A389421C03D1054A1340A38170BD802222
:101BD00052011343A3816065F8E7C046FFEFFFFFA2
:101BE00010B50E23C95E00F015F810BD70B50500E4
:101BF000080011000022064C22601A00FEF79EFB2E
:101C0000431C03D12368002B00D02B6070BDC0465D
:101C100030020020002370B5064C05000800236048
:101C2000FEF7F4FD431C03D12368002B00D02B608A
:101C300070BDC04630020020002370B5064C050080
:101C4000080011002360FEF7E4FD431C03D1236864
:101C5000002B00D02B6070BD30020020002370B537
:101C6000064C050008002360FEF7D8FD431C03D195
:101C70002368002B00D02B6070BDC04630020020CE
:101C800070B50500080011000022064C22601A0001
:101C9000FEF7C6FD431C03D12368002B00D02B6048
:101CA00070BDC04630020020C9B28218904201D1F6
:101CB0000020704703788B42FBD00130F6E7704775
:101CC0007047000070B50500080011000022064CA6
:101CD00022601A00FEF730FB431C03D12368002B5F
:101CE00000D02B6070BDC046300200202825642C37
:101CF000202564290D0A00000D0000002E2E2F68FB
:101D0000616C2F7372632F68616C5F696F2E630063
:101D10002E2E2F68616C2F7372632F68616C5F7554
:101D2000736172745F73796E632E6300020000004A
:101D300000000000000E0000000000000000000095
:101D40000000000000000000000000000000000093
:101D50000000000000000000000000000000000083
:101D60000000000000000000000000000000000073
:101D70000000000000000000000000000000000063
:101D80000000000000000000000000000000000053
:101D90000000000000000000000000000000000043
:101DA0000000000000000000000000000000000033
:101DB0000000000000000000000000002E2E2F6830
:101DC000706C2F736572636F6D2F68706C5F7365D5
:101DD00072636F6D2E630000080000200000000099
:101DE00000000000000000000000000000000000F3
:101DF00000000000000000000000000000000000E3
:101E000000000000000000000000000000000000D2
:101E100000000000000000000000000000000000C2
:101E200000000000000000000000000000000000B2
:101E3000000000000000000000000000232D302BF7
:101E40002000686C4C0065666745464700303132BB
:101E50003334353637383941424344454600303112
:101E60003233343536373839616263646566000071
:101E7000F8B5C046F8BC08BC9E467047DD000000BF
:101E8000F8B5C046F8BC08BC9E467047B5000000D7
:101E9000010000000800002000000000FC1D000000
:101EA0001C1E0000DC1D00000000000000000000FF
:101EB0000000000000000000000000000000000022
:101EC0000000000000000000000000000000000012
:101ED0000000000000000000000000000000000002
:101EE00000000000000000000000000000000000F2
:081EF0000000000000000000EA
:00000001FF
