S01E000053414D444535345F436F766572745F4368616E6E656C2E7372656349
S1130000B8060120E1020000DD020000DD0200006C
S1130010DD020000DD020000DD020000000000003F
S1130020000000000000000000000000DD020000ED
S1130030DD02000000000000DD020000DD0200001F
S1130040DD020000DD020000DD020000DD02000030
S1130050DD020000DD020000DD020000DD02000020
S1130060DD020000DD020000DD020000DD02000010
S1130070DD020000DD020000DD020000DD02000000
S1130080DD020000DD020000DD020000DD020000F0
S1130090DD020000DD020000DD020000DD020000E0
S11300A0DD020000DD020000DD020000DD020000D0
S11300B0DD020000DD020000DD0200004D0500004D
S11300C0410B00004D0B0000590B0000650B0000B4
S11300D0DD020000DD020000DD020000DD020000A0
S11300E0DD020000DD02000000000000000000004E
S11300F000000000D50B0000DD020000DD0200005E
S1130100DD020000DD020000DD020000DD0200006F
S1130110DD020000DD020000DD020000DD0200005F
S1130120DD020000DD020000DD020000DD0200004F
S1130130DD020000DD020000DD020000DD0200003F
S1130140DD020000DD020000DD020000DD0200002F
S1130150DD020000DD020000DD020000DD0200001F
S1130160DD020000DD020000DD020000DD0200000F
S1130170DD020000DD020000DD020000DD020000FF
S1130180DD020000DD020000DD020000DD020000EF
S1130190DD020000DD020000DD020000DD020000DF
S11301A0DD020000DD020000DD020000DD020000CF
S11301B0DD020000DD020000DD020000DD020000BF
S11301C0DD020000DD020000DD020000DD020000AF
S11301D0DD020000DD020000DD020000DD0200009F
S11301E0DD020000DD020000DD020000DD0200008F
S11301F0DD020000DD020000DD020000DD0200007F
S1130200DD020000DD020000DD020000DD0200006E
S1130210DD020000DD020000DD020000DD0200005E
S1130220DD020000DD020000DD020000DD0200004E
S1130230DD020000DD020000DD020000DD0200003E
S1130240DD020000DD020000DD020000DD0200002E
S1130250DD020000DD020000DD020000DD0200001E
S1130260DD02000010B5054C237833B9044B13B1FB
S11302700448AFF300800123237010BD70000020F8
S113028000000000601900000C4B43B10C480D49FC
S113029010B5AFF300800C48036823B910BD0A48B9
S11302A0036833B97047094B002BF7D0BDE8104001
S11302B01847064B002BF5D0184700BF000000007C
S11302C060190000740000206019000000000000A4
S11302D008B5014B984708BD35040000FEE700004F
S11302E008B51C4B1C4A9A4210D01C4B194A9A421E
S11302F00CD2013B9B1A23F0030304331344164925
S113030051F8040B42F8040B9A42F9D1144B154AE4
S11303109A420AD2013B9B1A23F003030433134489
S1130320002142F8041B9342FBD10F4B0F4A22F0E9
S11303307F029A60D3F8882042F47002C3F88820C0
S1130340BFF34F8FBFF36F8F094B9847094B984703
S1130350FEE700BF000000206019000064000020D8
S1130360B40600207000002000ED00E00000000052
S1130370F50D00009D060000104B93F8D92002F003
S1130380FE0242F0010283F8D92093F8BC2002F067
S11303900F0242F0300283F8BC2093F8D82002F018
S11303A0FE0242F0010283F8D82093F8BC2002F048
S11303B0F00242F0030283F8BC2070470080004141
S11303C0064B4022C3F8DC204322C3F88C20044AA5
S11303D0936943F400739361704700BF001C0040AD
S11303E00008004008B5054B984700220449054819
S11303F0054B9847054B984708BD00BFC103000053
S11304000020014128020020C507000079030000F4
S1130410074B5A6942F480425A615A6942F40042D5
S11304205A61402203F5A053C3F8A420704700BFCB
S11304300008004008B50E4B98470E4B4FF480223D
S1130440C3F81821C3F808214FF08042C3F82821CB
S1130450094AC3F8282193F8522102F0FE0283F8D6
S11304605221064B9847064B9847064B984708BDC0
S11304706508000000800041040000C0E50300009E
S113048011040000690D000000EB0111022381F842
S11304904E30704780B485B000AF78600023FB60B5
S11304A016E0FA687B689A4200DA0E48FA687B68BC
S11304B09A4200DB0B480168016801680168016821
S11304C001680168016801680168FB680133FB6029
S11304D0FB68FF2BE5DD00BF1437BD465DF8047BE8
S11304E0704700000400032038B505460021084683
S11304F00E4B9847002108460D4B98470D4C21465A
S113050000200D4B9847214600200C4B9847294664
S113051000200B4B9847002108460A4B98470122BC
S113052000210846084B984738BD00BF710A0000F7
S1130530250B000090000020610A0000510A000011
S11305408D0A0000E50A0000FD09000090B585B0A1
S113055000AF2C4BFB602C4BBB602C4B7B602C4BBB
S11305603B603B684FF400421A60FB681B6823F051
S11305700202FB681A60274B1A68BB681B6826498D
S11305802648274CA047642224492648264B9847EE
S113059000212648264B9847264B1B680133254AE1
S11305A01360244B1B68632B10DD1A4B1B68FE2B56
S11305B008DC184B1B680133164A13601D4B0022DC
S11305C01A6003E0134B00221A6018E04FF4FA603B
S11305D0194B9847BB6800221A60FB681B6843F0FC
S11305E00202FB681A607B681B6843F001027B68A7
S11305F01A60084B1B681846104B984700BF143705
S1130600BD4690BD003800401438004010A00041A1
S113061004380040940000201C170000340200201D
S11306203D0E000028020020C106000000A0004189
S11306308904000098000020E904000095040000EB
S113064080B584B000AF0F4BFB600F4BBB600F4B0A
S11306507B604FF4FA600E4B9847BB6800221A6027
S1130660FB681B6843F00202FB681A607B681B6826
S113067043F001027B681A60064B1B681846064B60
S11306809847FEE7003800401438004010A00041AD
S1130690E9040000940000209504000008B5044B10
S11306A098470448044B9847044B9847FEE700BF1B
S11306B0D1020000280200200D08000041060000BD
S11306C070B50D461646044660B1081C18BF0120DB
S11306D034220549054B984723683246294620466B
S11306E0984770BD0020F3E7281700003908000080
S11306F02DE9F8430F469046044628B331B3101C45
S113070018BF0120F1221249124B98470834124DA8
S11307102046A8470028FBD0013F0026DFF8409080
S11307200D4D17F8011F2046C8472046A84700284A
S1130730FBD001364645F4D3084D2046A84700288F
S1130740FBD03046BDE8F8830020DBE70020D9E782
S11307503C170000390800004B0D0000550D000047
S11307603D0D00002DE9F8430F4690460446E0B1E4
S1130770E9B1101C18BF01204FF486720D490E4BCD
S11307809847013F002608340C4DDFF8349020468A
S1130790A8470028FBD02046C84707F8010F0136B8
S11307A04645F4D33046BDE8F8830020E4E7002052
S11307B0E2E700BF3C170000390800005F0D0000AD
S11307C0430D000038B50D46044698B1081C18BF07
S11307D0012034220849094B9847294604F10800AE
S11307E0074B9847034618B9064A6260064A2260D6
S11307F0184638BD0020ECE73C170000390800001B
S1130800FD0C000065070000F106000010B5044669
S113081053220649003018BF0120054B984704F1C4
S11308200800044B9847002010BD00BF3C1700008F
S113083039080000290D000000B900BE704700000F
S11308400346064A126822B1044A1068034413603E
S113085070470349014A1160F6E700BF9C0000207D
S1130860B806012008B50C4A13889BB213800B4BC1
S113087098470B4B98470B4B98470B4B984740F6C0
S1130880FF700A4B98470A4A136943F400731361D3
S1130890084B984708BD00BF00400041A10B000071
S11308A0B50B0000950B0000D10B0000710B00008C
S11308B0000800401D09000008B5164A138C03F017
S11308C01F0303EB4301144800EB8100128C12F464
S11308D0807F05D10F4A128C12F4007F0BD108BD22
S11308E01A0102F1824202F52042012182F84E10DF
S11308F04368984708BD1A0102F1824202F520427A
S1130900022182F84E1003EB4303034A52F82330CA
S11309109847E4E700A00041A000002070B4324AE8
S1130920138823F002031B041B0C1380538823F445
S11309307C531B041B0C538013889BB243F00103AC
S11309401380138813F0010FFBD1274B4FF470620F
S11309501A805A7B02F0FE0242F001025A7300210F
S11309605961224A5A63224A9A63224B1F4C0E460B
S11309701D68080100F1824202F5204215641D79C8
S113098082F845505D7982F84650DD882218255258
S1130990D660013108332029EAD11F2301201649EA
S11309A09AB213F4004F0BD00133242BF8D10E4A22
S11309B013889BB243F002031380002070BC70477D
S11309C05C0902F01F0200FA02F204F1200541F86A
S11309D02520BFF34F8FBFF36F8F04F1600541F8FB
S11309E0252041F82420DFE700A00041A0020020D8
S11309F0A00400205817000000E100E091B942B9BA
S1130A00000100F1824000F52040022380F84C30C0
S1130A107047000100F1824000F52040022380F875
S1130A204D307047012900D0704742B1000100F1F8
S1130A30824000F52040012380F84D30F4E70001A6
S1130A4000F1824000F5204080F84C10704700000F
S1130A50024B03EB0010816000207047A0020020CD
S1130A60024B03EB0010416000207047A0020020FD
S1130A70054A0001135A9BB223F4806343EA81219F
S1130A8089B2115200207047A002002030B4144CE7
S1130A900201A3189D68A35AC3F30123A25A12F4B6
S1130AA0006F06D001FA03F42C440D4A02EB001245
S1130AB094600B4C0201A5186D68A25A12F4806F61
S1130AC005D001FA03F32B4404EB0012536089B2FE
S1130AD0034B03EB00104180002030BC704700BF83
S1130AE0A002002010B40D4C0301E25A92B242F06D
S1130AF00102E25203F1824303F520431A6C42F0EF
S1130B0002021A6431B1064A1169012303FA00F0A2
S1130B100843106100205DF8044B7047A0020020D8
S1130B2000A00041054A0001135A9BB223F400635C
S1130B3043EAC12189B2115200207047A00200206B
S1130B4008B5014B984708BDB908000008B5014B2A
S1130B50984708BDB908000008B5014B984708BD7F
S1130B60B908000008B5014B984708BDB908000052
S1130B7010F0010F08D0054A054B1A62194643F6D6
S1130B80FD724B681342FCD1704700BF01010100A4
S1130B90001C00400122014B5A71704700080040BC
S1130BA0034BDA6902F47C52DA6101221A74704749
S1130BB000140040044A054B9A611A46136913F065
S1130BC0020FFBD0704700BF062600030010004050
S1130BD07047000000B583B00D4B9B78DBB20193E6
S1130BE0019B13F0020F06D00A4B1B681BB1084A85
S1130BF05068984709E0019B13F0010F05D0054B9D
S1130C005B6813B1024A5068984703B05DF804FB6F
S1130C1000000241A006002070B489B006466C466C
S1130C200D4D0FCD0FC495E80F0084E80F00009B15
S1130C30B3420DD0314601AB012053F8042B8A4254
S1130C4007D001300828F8D1002009B070BC7047E3
S1130C500020C0B2F9E700BF5818000010B50446E0
S1130C60214B9847022805D040F247221F49002013
S1130C701F4B9847E36913F0010F19D1E36913F08F
S1130C80030FFBD1236813F0020F0BD0236823F06A
S1130C9002032360E36913F0030FFBD1E36913F04C
S1130CA0020FFBD105232360E36913F0030FFBD18B
S1130CB0E36913F0010FFBD10E4B2360E36913F0DA
S1130CC0030FFBD14FF440336360E36913F01F0F4C
S1130CD0FBD1094BA3604FF6B943A3810020A07355
S1130CE084F8300010BD00BF190C000090180000FB
S1130CF039080000040010400200700038B50C46AA
S1130D000546BB220549003018BF0120044B984713
S1130D102C602046034B984738BD00BF9018000054
S1130D20390800005D0C00000268136843F00203F8
S1130D301360D36913F0030FFBD170470368996202
S1130D4070470368986AC0B270470368187E00F061
S1130D50010070470368187EC0F3400070470368C1
S1130D60187EC0F380007047214B1B6913F0010FFC
S1130D701FD11F4A136913F0030FFBD11C4B1B68CF
S1130D8013F0020F0DD01A4A136823F00203136004
S1130D90136913F0030FFBD1154A136913F0020F03
S1130DA0FBD10122124B1A601A46136913F0030F88
S1130DB0FBD10F4A136913F0010FFBD148220C4BEE
S1130DC01A601A46136913F0030FFBD1084B002273
S1130DD05A71FF221A710122DA731A6842F0020270
S1130DE01A601A46136913F0030FFBD100207047F1
S1130DF00038004070B50D4E0D4CA41BA410002506
S1130E00A54209D10B4E0C4C00F09AFDA41BA41072
S1130E100025A54205D170BD56F825309847013507
S1130E20EEE756F8253098470135F2E74C190000F3
S1130E304C1900004C190000501900000EB400B504
S1130E409CB04FF402711DABADF8141002900690E3
S1130E506FF000410A48049107914FF6FF7153F86F
S1130E60042BADF816100068019302A900F0C4F831
S1130E70029B00221A701CB05DF804EB03B07047AB
S1130E800000002070B5CD1C25F0030508350C2D9D
S1130E9038BF0C25002D064601DBA94203D90C23DB
S1130EA03360002070BD00F0B8FB234A146821466B
S1130EB091B9224C23681BB9304600F027FB20600F
S1130EC02946304600F022FB431C26D10C23336014
S1130ED0304600F0A3FBE4E70B685B1B1AD40B2B32
S1130EE00FD90B60CD50CC18304600F097FB04F1BD
S1130EF00B00231D20F00700C31A1BD05A42E250F6
S1130F0070BD8C420DBF63684B686360136018BF8B
S1130F100C46E9E70C464968CAE7C41C24F00304FC
S1130F20A04205D0211A304600F0F0FA0130CDD0AD
S1130F302560D9E770BD00BF2002002024020020F4
S1130F402DE9F0478E689E4282460C4691469846AB
S1130F5035D88A8912F4906F31D0256809696F1ADF
S1130F606569022305EB450595FBF3F508F10103DB
S1130F703B449D4238BF1D46530531D52946FFF7F2
S1130F8081FF064650B90C23CAF80030A38943F008
S1130F904003A3814FF0FF30BDE8F0873A46216952
S1130FA000F016FBA38923F4906343F08003A3812C
S1130FB0266165613E44ED1B2660A56046464645B4
S1130FC028BF464632464946206800F00CFBA36819
S1130FD09B1BA36023681E4426600020BDE8F087A5
S1130FE02A4600F06BFB06460028E1D121695046F1
S1130FF000F016FBC7E700002DE9F04F9DB08046D6
S113100003938B891C060D4616460FD50B696BB9E5
S11310104021FFF737FF2860286128B90C23C8F85E
S113102000304FF0FF30C5E040236B61002309938B
S113103020238DF8293030238DF82A304FF0010B0E
S113104037463C4614F8013B002B3CD1B7EB060A6B
S11310500BD05346324629464046FFF771FF013014
S113106000F0A380099B534409933B78002B00F0C4
S11310709C8000234FF0FF3204930793059206935C
S11310808DF853301A9305222178504800F050FA15
S1131090671C049BD8B9D90644BF20228DF853207D
S11310A01A0744BF2B228DF8532022782A2A16D0FF
S11310B0079A00210A20274601343B78303B092B4C
S11310C051D9C9B111E0252BC0D02746B9E73F4A11
S11310D0801A0BFA00F0184304903C46D3E7039AB5
S11310E0111D12680391002A01DB079204E05242A9
S11310F043F00203079204933B782E2B0ED17B78A6
S11311002A2B07F1010132D1039B1A1D1B6803929C
S1131110002BB8BF4FF0FF33023705932C4C3978BE
S11311200322204600F004FA38B14023001B03FADE
S113113000F0049B034304930137397825488DF864
S1131140281006227E1C00F0F3F9002835D0224B2B
S1131150FBB9039B073323F0070308330393099B6D
S11311604B4409936CE700FB02320121A3E70023FF
S1131170059318460A240F4601313A78303A092A71
S113118003D9002BCAD00590C8E704FB0020012333
S1131190F1E703AB00932A46104B04A94046AFF392
S11311A00080B0F1FF3F8146D9D1AB895B063FF5A2
S11311B038AF09981DB0BDE8F08F03AB00932A4601
S11311C0064B04A9404600F081F8EAE70C19000038
S11311D0121900001619000000000000410F000061
S11311E02DE9F04791461F468A680B69DDF8208097
S11311F09342B8BF1346C9F8003091F8432006461D
S11312000C4612B10133C9F800302368990642BF75
S1131210D9F800300233C9F80030256815F0060506
S113122007D104F1190AE368D9F800209B1A9D42FA
S113123029DB94F843302268003318BF0123920657
S11312402ED404F1430239463046C047013021D040
S11312502368E568D9F8002003F00603042B08BFCF
S1131260AD1AA36822690CBF25EAE57500259342EF
S1131270C4BF9B1AED184FF000091A344D451BD119
S11312800020BDE8F0870123524639463046C04766
S1131290013003D14FF0FF30BDE8F0870135C2E7DC
S11312A0E1185A1C302081F84300224494F8451078
S11312B082F843100233C4E70123224639463046FC
S11312C0C0470130E6D009F10109D7E72DE9F04321
S11312D017460A7E85B06E2A984606460C460C9B35
S11312E001F1430E00F0BC801AD8632A2ED00AD82C
S11312F0002A00F0C880582A00F08A8004F14205D0
S113130084F842202AE0642A01D0692AF6D12168AF
S11313101A6811F0800F23D0111D1960136827E09B
S1131320732A00F0B48008D86F2A2AD0702AE5D135
S11313300A6842F020020A6003E0752A21D0782A64
S1131340DCD1782284F845206E4964E01A6801F102
S11313504205111D1960136884F842300123A3E08B
S113136011F0400F02F104011960D7D0B2F9003036
S1131370002B03DA2D225B4284F8432062490A22BF
S113138017E02068196810F0800F03D0081D18605A
S11313900B6806E010F0400F01F104001860F7D06C
S11313A00B8859496F2A14BF0A220822002084F8A6
S11313B043006568A560002DC0F29C80206820F081
S11313C004002060002B3FD1002D40F0958075462D
S11313D0082A0BD12368DA0708D5236962689A4280
S11313E0DEBF302305F8013C05F1FF35AEEB050304
S11313F02361CDF800803B4603AA21463046FFF71F
S1131400EFFE013055D14FF0FF3005B0BDE8F08359
S113141081F845203C492268186812F0800F00F1D9
S113142004051D6001D0036802E05506FBD503885E
S1131430D00744BF42F0200222601BB9226822F088
S1131440200222601022B1E77546B3FBF2F002FBE2
S11314501033CB5C05F8013D03460028F5D1B7E70E
S113146008681A68496910F0800F04D0101D1860CC
S11314701368196007E010F0400F02F104001860CF
S11314801368F6D01980002323617546B1E71A6802
S1131490111D1960156862680021284600F048F89B
S11314A008B1401B606063682361002384F8433003
S11314B09FE723692A4639463046C0470130A2D007
S11314C023689B0707D5002504F11909E368039AEB
S11314D09B1A9D4205DBE068039B9842B8BF1846FF
S11314E093E701234A4639463046C04701308AD043
S11314F00135EBE7002BA7D10B7884F8423004F1D7
S1131500420565E72E1900001D19000038B5064C88
S11315100023054608462360FFF792F9431C02D1D5
S1131520236803B12B6038BDB00600200000000022
S113153001F0FF01102A2BDB10F0070F08D010F880
S1131540013B013A8B422DD010F0070F42B3F6D184
S1131550F0B441EA012141EA014122F007047FF09D
S113156000070023F0E80256083C85EA010586EAF4
S1131570010685FA47F5A3FA87F586FA47F6A5FA30
S113158087F68EB9EED1F0BC01F0FF0102F007023C
S113159032B110F8013B013A83EA010313B1F8D1E7
S11315A00020704701387047002D06BF35460338C8
S11315B0073815F0010F07D1013015F4807F02BF01
S11315C0013015F4C03F0130F0BC0138704700BF52
S11315D010B5431E0A44914200D110BD11F8014BCD
S11315E003F8014FF7E7884210B501EB020303D873
S11315F0421E99420CD110BD9842F9D28118D21AD8
S1131600D34200D110BD13F8014D01F8014DF7E7A5
S113161011F8014B02F8014FEBE7704770470000E7
S113162038B50546002945D051F8043C0C1F002B61
S1131630B8BFE418FFF7F1FF1F4A1368104633B927
S1131640636014602846BDE83840FFF7E7BFA34253
S11316500CD921686218934204BF1A685B686360FE
S113166004BF521822600460ECE713465A680AB1BA
S1131670A242FAD919685818A0420BD12068014433
S1131680581882421960DDD1106852685A600144CA
S11316901960D7E702D90C232B60D3E720682118FF
S11316A08A4204BF11685268626004BF091821604D
S11316B05C60C7E738BD00BF20020020F8B50746CC
S11316C014460E4621B91146BDE8F840FFF7DABBCF
S11316D022B9FFF7A5FF25462846F8BD00F014F807
S11316E084420FD921463846FFF7CCFB0546002833
S11316F0F2D031462246FFF76BFF31463846FFF7FA
S11317008FFFE9E73546E7E751F8040C0028A0F11C
S11317100400BCBF0B58C018704700002825642C77
S1131720202564290D0A00002E2E2F68616C2F736A
S113173072632F68616C5F696F2E63002E2E2F68B1
S1131740616C2F7372632F68616C5F75736172745F
S11317505F73796E632E6300400000000000000E8A
S11317600000000000000000000000000000000075
S11317700000000000000000000000000000000065
S11317800000000000000000000000000000000055
S11317900000000000000000000000000000000045
S11317A00000000000000000000000000000000035
S11317B00000000000000000000000000000000025
S11317C00000000000000000000000000000000015
S11317D00000000000000000000000000000000005
S11317E000000000000000000000000000000000F5
S11317F000000000000000000000000000000000E5
S113180000000000000000000000000000000000D4
S113181000000000000000000000000000000000C4
S113182000000000000000000000000000000000B4
S113183000000000000000000000000000000000A4
S11318400000000000000000000000000000000094
S113185000000000000000000030004000340040A0
S11318600020014100400141000000430004004306
S113187000080043000C00430000000000000000CA
S11318800000000000000000000000000000000054
S11318902E2E2F68706C2F736572636F6D2F6870B6
S11318A06C5F736572636F6D2E630000000000004F
S11318B00000000000000000000000000000000024
S11318C00000000000000000000000000000000014
S11318D00000000000000000000000000000000004
S11318E000000000000000000000000000000000F4
S11318F000000000000000000000000000000000E4
S1131900000000000000000000000000232D302B28
S11319102000686C4C0065666745464700303132EC
S11319203334353637383941424344454600303143
S113193032333435363738396162636465660000A2
S1131940F8B500BFF8BC08BC9E4670478902000089
S1131950F8B500BFF8BC08BC9E467047650200009D
S11319600400002000000000CC180000EC18000067
S1131970AC1800000000000000000000000000009F
S11319800000000000000000000000000000000053
S11319900000000000000000000000000000000043
S11319A00000000000000000000000000000000033
S11319B00000000000000000000000000000000023
S10719C0000000001F
S9030000FC
