:040000005DEF00F0C0
:10000800870987098709870987098709870983096C
:10001800540987098709870987098709870987098B
:1000280087092E002E002E00A7088709870987094F
:100038008709870987098709870987098709870938
:100048008709870987098709870987098709870928
:100058008709870987092E0087098709870987097A
:100068005A098709870987098709870987092E0097
:1000780087098709870987092E008709870987095A
:1000880087098709870987092E0087092E008709AC
:1000980087098709870987098709870987098709D8
:1000A80060092E002E0087098709870987098709B3
:0600B800FF0099EF10F0BB
:1016000000261E00000000FC2500002E2400000023
:1016100000000000000000000000000000000000CA
:101620000000000000000000001825FC24E0240059
:1016300000482304261226B425CA25000028256464
:101640002C202575290D0A0048656C6C6C6F0A0DFD
:10165000000035C5D9F436C5DAF4DEC4F6F4DDC4CD
:10166000F7F4F86A0800F550250AD8A43AEF0BF011
:101670003CEF0BF0FFEF0BF035C5D9F436C5DAF4CB
:10168000DE2A000EDD22000E0501616F000E606F84
:1016900060C555F549684A6835C5D9F436C5DAF4E8
:1016A000DEC43FF5DDC440F53FC5F6F440C5F7F4B0
:1016B000F86A0800F550640AD8B461EF0BF063EFE4
:1016C0000BF072EF0BF03FC5F6F440C5F7F4F86A83
:1016D0000800F550690AD8A470EF0BF072EF0BF018
:1016E000A0EF0BF037C5D9F438C5DAF4DFC439F50B
:1016F000020EDE26DFC43AF5000EDD2239C5D9F42C
:101700003AC5DAF4DEC43BF5DDC43CF5010E3F24F6
:10171000396E000E40203A6E35C5D9F436C5DAF47C
:1017200039C5DEF43AC5DDF433C526F534C527F5F1
:101730003BC528F53CC529F515EC0CF014EF0CF071
:101740003FC5F6F440C5F7F4F86A0800F550750A8D
:10175000D8A4ADEF0BF0AFEF0BF0F6EF0BF037C501
:10176000D9F438C5DAF4DFC439F5020EDE26DFC459
:101770003AF5000EDD2239C5D9F43AC5DAF4DEC4F3
:101780003BF5DDC43CF5010E3F24396E000E4020D0
:101790003A6E35C5D9F436C5DAF439C5DEF43AC542
:1017A000DDF4DFEF0BF033C526F534C527F53BC577
:1017B00028F53CC529F5DFEC0CF014EF0CF03FC523
:1017C000F6F440C5F7F4F86A0800F550396E3A6A45
:1017D0003A50000AD8B4EFEF0BF0F6EF0BF03950A7
:1017E000750AD8B4D3EF0BF0F6EF0BF035C5D9F48A
:1017F00036C5DAF4DE2A000EDD2214EF0CF035C512
:10180000D9F436C5DAF4DEC4F6F4DDC4F7F4F86AC8
:101810000800F5500B6E0C6A33C50DF534C50EF596
:1018200057EC0DF0F6EF0BF0120029BE1AEF0CF09A
:101830001DEF0CF0010E1EEF0CF0000E306E30505C
:10184000D8B425EF0CF027EF0CF02BEF0CF0286C40
:10185000291ED8B0292A4ABE32EF0CF030EF0CF026
:1018600038EF0CF0000E2D6E010E2C6E3CEF0CF0DC
:1018700049C52CF54AC52DF560C52EF561C52FF576
:101880003050D8B446EF0CF048EF0CF05FEF0CF09E
:101890002E06D8A02F063050D8A451EF0CF053EFED
:1018A0000CF059EF0CF0000E2B6E2B0E2A6E5DEF34
:1018B0000CF0000E2B6E2D0E2A6E2AC530F5000E90
:1018C000326E1F0E316E000E0501956F98EF0CF011
:1018D0003106D8A03206760E3124D96E050E32209C
:1018E000DA6E28C509F529C50AF5000E0C6E0A0E38
:1018F0000B6E1EEC0EF009C50FF50AC510F52EECA7
:1019000011F00F50300FDF6E2C06D8A02D062E06DA
:10191000D8A02F0628C509F529C50AF5000E0C6EBA
:101920000A0E0B6EBCEC0DF009C528F50AC529F5A9
:1019300032BEA3EF0CF0325008E13104D8A0A3EF7F
:101940000CF0A5EF0CF0BBEF0CF028502910D8A438
:10195000ACEF0CF0AEEF0CF068EF0CF02DBEBBEF6F
:101960000CF02D5006E12C04D8B0B9EF0CF0BBEF11
:101970000CF068EF0CF03050D8B4C1EF0CF0C3EFAE
:101980000CF0CEEF0CF03106D8A03206760E3124E2
:10199000D96E050E3220DA6E30C5DFF426C51BF590
:1019A00027C51CF5760E31241D6E050E32201E6EE5
:1019B0002EC51FF52FC520F552EC0FF012004ABEC0
:1019C000E6EF0CF0E4EF0CF0ECEF0CF0000E2D6EF7
:1019D000010E2C6EF0EF0CF049C52CF54AC52DF523
:1019E00060C52AF561C52BF5000E2F6E1F0E2E6EF9
:1019F000000E0501956F27EF0DF02E06D8A02F06DB
:101A0000760E2E24D96E050E2F20DA6E28C509F524
:101A100029C50AF5000E0C6E0A0E0B6E3AEC10F09A
:101A20000950300FDF6E2C06D8A02D062A06D8A04C
:101A30002B0628C509F529C50AF5000E0C6E0A0EFD
:101A40000B6E8FEC0FF009C528F50AC529F52E504D
:101A50002F10D8B42EEF0DF030EF0DF046EF0DF053
:101A600028502910D8A437EF0DF039EF0DF0FDEF15
:101A70000CF02DBE46EF0DF02D5006E12C04D8B031
:101A800044EF0DF046EF0DF0FDEF0CF026C51BF511
:101A900027C51CF5760E2E241D6E050E2F201E6EFA
:101AA0002AC51FF52BC520F552EC0FF012000D5082
:101AB0000E10D8B45EEF0DF060EF0DF069EF0DF091
:101AC0000D500E10D8A467EF0DF069EF0DF06EEF1A
:101AD0000DF00B5053EC12F0BBEF0DF020EE0AF0BE
:101AE0000D50D9260E50DA22DE50DE10D8B47BEF2E
:101AF0000DF07DEF0DF098EF0DF020EE0AF00D5097
:101B0000D9260E50DA2210EE03F00D50E1260E50C9
:101B1000E222DE50E65CE650800A136EDE50800A58
:101B20001358D8B096EF0DF098EF0DF0BBEF0DF015
:101B300020EE03F00D50D9260E50DA22DEC40FF548
:101B4000DDC410F50DC5D9F40EC5DAF4DEC411F507
:101B5000DDC412F50F501124D96E10501220DA6E28
:101B60000BC5DFF420EE03F00D50D9260E50DA221B
:101B7000DE2A000EDD221200000E0E6E0CBEC5EF36
:101B80000DF0C3EF0DF0CBEF0DF00B6C0C1ED8B0C9
:101B90000C2A010E0E6E0ABED2EF0DF0D0EF0DF042
:101BA000D8EF0DF0096C0A1ED8B00A2A010E0E1AE1
:101BB000000E106E000E0F6E0B500C10D8B4E3EF39
:101BC0000DF0E5EF0DF00DEF0EF0010E0D6EEDEFE7
:101BD0000DF0D8900B360C360D2A0CAEF2EF0DF04E
:101BE000F4EF0DF0E9EF0DF0D8900F3610360B50F2
:101BF000095C0C500A58D8A000EF0EF002EF0EF06E
:101C000007EF0EF00B50095E0C500A5A0F80D89067
:101C10000C320B320D2EF4EF0DF00E50D8B413EF42
:101C20000EF015EF0EF019EF0EF00F6C101ED8B07D
:101C3000102A0FC509F510C50AF51200000E0E6E28
:101C40000ABE27EF0EF025EF0EF02DEF0EF0096C17
:101C50000A1ED8B00A2A010E0E6E0CBE34EF0EF02A
:101C600032EF0EF038EF0EF00B6C0C1ED8B00C2AD1
:101C70000B500C10D8B43FEF0EF041EF0EF065EFB3
:101C80000EF0010E0D6E49EF0EF0D8900B360C36AB
:101C90000D2A0CAE4EEF0EF050EF0EF045EF0EF0A9
:101CA0000B50095C0C500A58D8A059EF0EF05BEFAE
:101CB0000EF05FEF0EF00B50095E0C500A5AD890F0
:101CC0000C320B320D2E50EF0EF00E50D8B46BEFDD
:101CD0000EF06DEF0EF071EF0EF0096C0A1ED8B029
:101CE0000A2A09C509F50AC50AF512005650D8A4F2
:101CF0007CEF0EF07EEF0EF08FEF0EF03D0E050143
:101D00009A6F160E9B6F53C59CF554C59DF518C36D
:101D10009EF519C39FF52CEC12F0514A522A000E81
:101D2000566E52BE9DEF0EF0525009E1640E515CAA
:101D3000D8A09DEF0EF09FEF0EF0BAEF0EF054BE5C
:101D4000ACEF0EF0545006E15328D8B0AAEF0EF0D5
:101D5000ACEF0EF0B4EF0EF0534A542A000E526E60
:101D6000000E516EBAEF0EF0000E546E000E536E60
:101D7000CAEF0EF0000E0A6E000E096EDAEC12F0D9
:101D800002EC13F0E0EC12F053C509F554C50AF566
:101D9000C9EC0FF01200000EBE6E000EBF6E000EFA
:101DA000C06E3F0EC66E700EC76EFD0EC86E370E4B
:101DB0000401006F500E086FFD0E106F000E016FD2
:101DC000000E096F000E116F000E0201876F000EEA
:101DD000866F000E0401026F000E0A6F000E126F74
:101DE000370E036FF00E0B6F13693F0E046FF00E8A
:101DF0000C6F14690D0E0201726F100E106F000E41
:101E00000401056F000E066F000E076F000E0D6FC8
:101E1000000E0E6F000E0F6F000E156F000E166F86
:101E2000000E176F1200000E0201A16F000EA26FCC
:101E3000000EA36F000EA46F000EA56F000EA66F1C
:101E4000000EA76F000EA86F000EA96F000EAA6FFC
:101E5000B00EAB6F800EAC6F080EAD6F400EAE6F64
:101E6000030EAF6F200EB06F000EB16F800EB26F19
:101E7000000EB36F000E096E000E0A6E8CEC12F0AD
:101E8000000E096E000E0A6E7EEC12F0000E096E56
:101E9000000E0A6E70EC12F0000E05016D6F000E60
:101EA0006C6F120020BE57EF0FF059EF0FF05FEF8D
:101EB0000FF01FC524F520C525F563EF0FF0000EC8
:101EC000256E000E246E000E236E000E226E75EF3E
:101ED0000FF0000E0C6E200E0B6E1BC50DF51CC511
:101EE0000EF557EC0DF0224A232A2450225C235091
:101EF000800A216E2550800A2158D8A082EF0FF069
:101F000084EF0FF069EF0FF01DC514F51EC515F530
:101F10001BC516F51CC517F5ECEC10F01200000EF1
:101F20000F6E000E0E6E0B500C10D8B49AEF0FF01F
:101F30009CEF0FF0C4EF0FF0010E0D6EA4EF0FF049
:101F4000D8900B360C360D2A0CAEA9EF0FF0ABEF84
:101F50000FF0A0EF0FF0D8900E360F360B50095C43
:101F60000C500A58D8A0B7EF0FF0B9EF0FF0BEEF42
:101F70000FF00B50095E0C500A5A0E80D8900C32AC
:101F80000B320D2EABEF0FF00EC509F50FC50AF59C
:101F90001200000E0C6E000E0B6E09500B5C0A5006
:101FA0000C58D8B0D6EF0FF0D8EF0FF0E2EF0FF0EB
:101FB00000F000F000F000F000F000F000F000F0A1
:101FC00000F000F009500B5C0A500C58D8A0EBEF61
:101FD0000FF0EDEF0FF0F7EF0FF000F000F000F072
:101FE00000F000F000F000F000F000F000F00B4A0C
:101FF0000C2A0C04D8A0FFEF0FF001EF10F0CDEF8A
:102000000FF01200D68A000ED6BE010E0B6ED69EC1
:10201000550E0401596FAA0E596F5991000E5F6F4A
:10202000000E5E6F080E5D6F550E596FAA0E596F48
:1020300059810BB002D0D69E01D0D68E0301678F96
:102040006989B490D680200E096E260E0A6EF4ECD3
:1020500012F0B990D682220E096E260E0A6EEFECAF
:1020600012F0BD90D684240E096E260E0A6EEAEC9C
:1020700012F012000B500C10D8B441EF10F043EFE7
:1020800010F067EF10F0010E0D6E4BEF10F0D890CE
:102090000B360C360D2A0CAE50EF10F052EF10F04C
:1020A00047EF10F00B50095C0C500A58D8A05BEFBA
:1020B00010F05DEF10F061EF10F00B50095E0C5066
:1020C0000A5AD8900C320B320D2E52EF10F009C57F
:1020D00009F50AC50AF51200000E0001E86F980E16
:1020E000F96F050EFA6F000EFB6F050EF16F960E7D
:1020F000F06F000EFD6F000EF86F640EF76F000EAC
:10210000EF6F640EEE6F000EFF6F000EFE6FB59A5C
:10211000B598B59EB59CAA9AAA88260E096E260E79
:102120000A6EF9EC12F0AA9EAA9C800E0001FC6FC8
:102130001200180EF66E260EF76E000EF86E0900ED
:10214000F5C4A6F50900F5C4A7F5280EF66E260E0F
:10215000F76E000EF86E0900F5C456F501EE60F159
:102160003A0EEE6AE806FDE101EE49F10D0EEE6A67
:10217000E806FDE10401080E5D6F000E5E6F000EC3
:102180005F6F000162EF12F043C547F544C548F5A3
:10219000D8EF10F041C533F542C534F5470E356E22
:1021A000050E366E45C537F546C538F529EC0BF0FA
:1021B00047C5F6F448C5F7F4F86A0800F550000979
:1021C000D8A4E5EF10F0E7EF10F0CAEF10F0000E22
:1021D000426E000E416E1200000E1A6E000E196E55
:1021E000FDEF10F018C50BF50C6A16C50DF517C5F7
:1021F0000EF557EC0DF0194A1A2A19501424D96E0D
:102200001A501520DA6EDF50186E1850D8A40BEF54
:1022100011F00DEF11F0F2EF10F01200A60E096EA2
:10222000250E0A6EF9EC12F0070E0A6ED00E096E3A
:102230008AEC11F0E0EC12F04F505010D8B423EFBC
:1022400011F025EF11F01CEF11F0000E506E000E92
:102250004F6E76EC0EF01CEF11F0120010BE3BEF4B
:1022600011F0105006E10F04D8B039EF11F03BEF38
:1022700011F049EF11F00FC511F510C512F5111E3F
:10228000121E114A122A11C50FF512C510F54DEF95
:1022900011F00FC50FF510C510F51200FAC407F5BF
:1022A000FBC408F5B5980501A251A311D8B45BEFA2
:1022B00011F05DEF11F069EF11F002D869EF11F044
:1022C0000500FA6EA251FD6EA351FE6EFF6AFA5030
:1022D000120008C5FBF407C5FAF41100000E020154
:1022E000B66F000EB86F000EBA6F000EBC6F000E16
:1022F000BE6F000EBF6F000EC06F000EC16F000EEC
:10230000C26F200EC36F000EC46F800EC56F000E2B
:10231000C66F1200000E0001FC6F000EE86F500E39
:10232000F96F060EFA6F000EFB6F060EF16F510E7D
:10233000F06F09C5F7F00AC5F8F009C5EEF00AC557
:10234000EFF0800EFC6F1200000E0301196F000EFB
:10235000186F700E1B6F19510B6E18514B6E0BC519
:102360004CF5000E096E000E0A6EE5EC12F0B69EFA
:10237000900E03011A6F1200050166516711D8B45F
:10238000C4EF11F0C6EF11F0D2EF11F002D8D2EF86
:1023900011F00500FA6E6651FD6E6751FE6EFF6A20
:1023A000FA5012001200050164516511D8B4DBEF38
:1023B00011F0DDEF11F0E9EF11F002D8E9EF11F0C3
:1023C0000500FA6E6451FD6E6551FE6EFF6AFA50AB
:1023D00012001200050162516311D8B4F2EF11F03E
:1023E000F4EF11F000EF12F002D800EF12F0050048
:1023F000FA6E6251FD6E6351FE6EFF6AFA50120072
:102400001200000E0001B46F070EB56F070EB66F15
:10241000070EB76F070EB86F070EB96F070EBE6FC6
:10242000070EBF6F000EF46E000EF36E1200000E6A
:10243000096E0201B0AB1FEF12F021EF12F02AEF8C
:1024400012F0ABAB26EF12F028EF12F02AEF12F0E9
:10245000010E096E095012009C0E0501A06F050EB9
:10246000A16F000E416E000E426E9AC543F59BC5EA
:1024700044F5A00E456E050E466EC4EC10F0120039
:102480009AEC12F0CBEC0EF001EC12F06CEC10F0C8
:10249000A4EC11F013EC0FF06EEC11F002EC10F064
:1024A000CCEC12F012000A6E17EC12F00009D8B44E
:1024B0005CEF12F05EEF12F054EF12F00A50FEECF7
:1024C00012F0120040EC12F0D68E480E05019A6F01
:1024D000160E9B6F2CEC12F00EEC11F05DEF00F07D
:1024E00009500A10D8B477EF12F079EF12F07DEFAF
:1024F00012F009C568F50AC569F5120009500A10FD
:10250000D8B485EF12F087EF12F08BEF12F009C507
:102510006AF50AC56BF5120009500A10D8B493EF9A
:1025200012F095EF12F099EF12F009C54DF50AC5BA
:102530004EF51200600E0001AD6F000EAF6F000E81
:10254000B36F080EB16F000EB06F000EAC6F1200CB
:10255000FAC401F5FBC402F5B490BCEC11F002C55D
:10256000FBF401C5FAF41100FAC403F5FBC404F549
:10257000B990D3EC11F004C5FBF403C5FAF41100D3
:10258000FAC405F5FBC406F5BD90EAEC11F006C5EA
:10259000FBF405C5FAF41100550E0001B46FAA0E44
:1025A000B46FB481120009EC13F0000E506E010EEE
:1025B0004F6E12000A500301196F09C518F312007B
:1025C000000E0001E86FFC8B120009C5A4F50AC5D6
:1025D000A5F5120009C562F50AC563F5120009C523
:1025E00064F50AC565F5120009C566F50AC567F503
:1025F000120009C5A2F50AC5A3F51200096E09C5A6
:0A260000A3F2120003011A8F12006A
:0E260C000FEC13F0110003011A9F12001803C7
:0D261C001100120012001200120012000145
:020000040020DA
:10000000FF0FFF0FFF0FFF0FFF0FFF0FFF0FFF0F80
:10001000FF0FFF0FFF0FFF0FFF0FFF0FFF0FFF0F70
:10002000FF0FFF0FFF0FFF0FFF0FFF0FFF0FFF0F60
:10003000FF0FFF0FFF0FFF0FFF0FFF0FFF0FFF0F50
:020000040030CA
:0A000000ECFFFFFF9FFFFFFFFFFF73
:00000001FF
