S00E00005365637572652E73726563AF
S2140000005006002019040000170400001704000022
S21400001000000000000000000000000000000000DB
S21400002000000000000000000000000017040000B0
S2140000300000000000000000170400001704000085
S214000040170400001704000017040000170400003F
S214000050170400001704000017040000170400002F
S214000060170400001704000017040000170400001F
S214000070170400001704000017040000170400000F
S21400008017040000170400001704000017040000FF
S21400009017040000170400001704000017040000EF
S2140000A017040000170400001704000017040000DF
S2140000B017040000170400001704000017040000CF
S2140000C017040000170400001704000017040000BF
S2140000D017040000170400001704000017040000AF
S2140000E0170400001704000017040000170400009F
S2140000F017040000FF2303409B0041F6004CC4F2A7
S214000100000C634480229A580120520604D44022F0
S214000110114340329950002001000200030084463B
S2140001208EF300887447F0B5CE46474680B587B054
S214000130029003910492059342F60023C4F2000352
S214000140986899691A6BDC69A4461F6C029E464043
S2140001503E404640049B01931D004D403D404D40AF
S214000160059C54403C405440A146002100230120F9
S21400017040F20F0802E00133082B08D002009A4034
S2140001801742F8D09A00444694402143F3E760466D
S214000190039B584008406346584042F60023C4F28A
S2140001A000031A7802218A431A7042F60022C4F22B
S2140001B00002013153681942FCD142F60022C4F213
S2140001C00002022153681942FCD142F60023C4F211
S2140001D000039E609D614A461A63D8611A78022120
S2140001E00A431A7042F60022C4F200020131536834
S2140001F01942FCD1002007B001000200030084462B
S2140002000CBC90469946F0BC02BC864681F300883A
S2140002100C4710B540F24803C2F20003186841F2DA
S2140002208313C0F20003984741F2F913C0F20003AB
S2140002309847010002000300844610BC02BC8646B4
S21400024081F300880C47000080B584B000AF78606A
S2140002500023FB6070E0FA687B689A4200DA3F4849
S214000260FA687B689A4200DB3D48016801680168CD
S2140002700168016801680168016801680168016831
S2140002800168016801680168016801680168016821
S2140002900168016801680168016801680168016811
S2140002A00168016801680168016801680168016801
S2140002B001680168016801680168016801680168F1
S2140002C001680168016801680168016801680168E1
S2140002D001680168016801680168016801680168D1
S2140002E001680168016801680168016801680168C1
S2140002F001680168016801680168016801680168B1
S21400030001680168016801680168016801680168A0
S2140003100168016801680168016801680168016890
S2140003200168016801680168016801680168016880
S2140003300168FB680133FB60FB68FF2B00DC8AE783
S214000340C046BD4604B000200100020003008446FB
S21400035080BC01BC864680F300880447002000204D
S2140003600000006010B540F20004C2F200042378DA
S21400037063B940F20003C0F200032BB144F2200040
S214000380C0F2800000E000BF0123237010BDC0460D
S21400039040F20003C0F2000310B54BB140F2040176
S2140003A044F22000C2F20001C0F2800000E000BF6C
S2140003B044F22000C0F28000036803B910BD40F28A
S2140003C00003C0F20003002BF8D09847F6E7C046BB
S2140003D010B540F2A353C0F20003984743F200233F
S2140003E0C4F200038022C0F20032DA664EF2001336
S2140003F0CEF200034FF60002CCF2000240F280215B
S2140004005A501F2140F28422995041F28D13C0F2B7
S2140004100003984710BDFEE710B542F63822C0F23A
S214000420000240F20003C2F200039A4220D01A00F3
S21400043040F20003C2F200039A4219D240F20003CF
S214000440C2F200030333244A9B1A9B0801339B0025
S214000450002240F20001C2F20001511842F6382094
S214000460C0F2000010180068086004329A42F0D10A
S21400047040F20002C2F2000240F24C03C2F2000355
S2140004809A4213D240F20002C2F20002D34340F274
S2140004904C01C2F200018C46634403218B430433B3
S2140004A094466344002102C29342FCD140F200030A
S2140004B0C0F200037F2293434EF60052CEF20002B3
S2140004C0936042F69503C0F20003984741F2190381
S2140004D0C0F200039847FEE70400002040F6000341
S2140004E0C4F20003DA6940210A43DA6141F60043A8
S2140004F0C4F20003BC229950704770B543F2002343
S214000500C4F200035020195C042291431954195C6C
S2140005100125A94301242143C9B219541838195C8E
S2140005200F26B1430C3E3143195451215E5C96436D
S2140005305E545A5CAA432243D2B25A541A5C4239D9
S2140005400A4021310A431A5470BD41F60043C4F2F2
S21400055000034021AC2299500331043A995040F6EA
S2140005600003C4F20003DA6941390A43DA617047CE
S21400057010B540F24B53C0F20003984740F20041DA
S214000580C4F2002140F22800C2F2000040F23163BB
S214000590C0F20003984740F2FB43C0F200039847BE
S2140005A010BD10B540F20973C0F20003984740F240
S2140005B0DD43C0F20003984740F66173C0F20003C3
S2140005C0984740F27153C0F20003984710BD0000F0
S2140005D010B584B0140001AB1438828B1A800294D4
S2140005E0064A5A800391190040F62D23C0F20003F4
S2140005F0984700B9200004B010BDC0460080FFFF39
S21400060010B584B0140001AB1438828B1A800294A3
S214000610064A5A800391190040F62D23C0F20003C3
S214000620984700B9200004B010BDC0460180FFFF07
S21400063070B504000D0042F6E401C0F20001431E4E
S2140006409841C0B25E2240F20373C0F2000398479E
S2140006502900200040F67913C0F20003984748B9F5
S21400066040F20163C0F20003A36140F2D153C0F22E
S2140006700003636170BD10B540F6AD13C0F2000311
S214000680984710BD40F2FF33194001331A400A4321
S21400069082831000704770B506000C00150098B1F4
S2140006A00800431E9841C0B242F60011C0F2000195
S2140006B0342240F20373C0F20003984733682A00DE
S2140006C021003000984770BD0020EDE770B50600A9
S2140006D00C00150098B10800431E9841C0B242F6BF
S2140006E00011C0F200013D2240F20373C0F2000385
S2140006F0984773682A0021003000984770BD002094
S214000700EDE700B900BE704710B545F20003C4F22D
S21400071000135A685A60002040F2D773C0F20003F4
S214000720984740F28F73C0F20003984740F2A773D1
S214000730C0F20003984740F28173C0F20003984766
S21400074040F2D573C0F2000398471F2040F2597359
S214000750C0F20003984710BDC30710D541F600430A
S214000760C4F2000340F20512C0F201021A6241F61A
S2140007700042C4F200027D2153681942FCD1704742
S21400078040F60003C4F2000301221A71704741F2DA
S2140007900043C4F20003DA6941F600710A40DA61E8
S2140007A000221A74704741F20003C4F200030222CA
S2140007B01A7641F20002C4F20002102113691942AF
S2140007C0FCD041F20003C4F200031A7E80210A43E3
S2140007D01A767047704740F20043C4F200039B78D5
S2140007E003221340984212D040F20042C4F20002A4
S2140007F0FF239371937803218B430840184390702E
S21400080040F20042C4F200029379002BFCD07047FD
S21400081030B585B001AA42F61413C0F2000332CBFD
S21400082032C20300019A82420CD0029A824207D05A
S2140008300020039A9A4201D005B030BD023002E093
S214000840012000E00020C0B2F6E710B540F6110324
S214000850C0F20003984768B142F63811C0F20001B2
S21400086040F2A632002040F20373C0F2000398471D
S2140008700120404210BD000070B505000C000800C5
S21400088040F64B03C0F200039847C0B2E369DB07AB
S21400089025D443001B18DB0042F61412C0F20002F7
S2140008A09446634419691C2319400322E3691A42DB
S2140008B0FCD123689B070BD5236802229343236051
S2140008C00132E3691A42FCD10222E3691A42FCD1E2
S2140008D001230B4323600322E3691A42FCD1012261
S2140008E0E3691A42FCD143001B18DB0042F61412DF
S2140008F0C0F2000294466344196921600322E3694A
S2140009001A42FCD143001B18DB0042F61412C0F258
S2140009100002944663445B6963600422E3691A42FA
S214000920FCD143001B18DB0042F61412C0F2000292
S214000930944663449B69E3608901890FA981636AD1
S2140009400C4E1E4001238B429B415B429B0333436C
S21400095063620422E3691A42FCD143001818C000FF
S21400096042F61413C0F200039C466044C38BEB812E
S214000970002070BDFFBFFFFF70B504000D0042F6FB
S2140009803811C0F20001431E9841C0B240F218521E
S21400099040F20373C0F20003984725612900200047
S2140009A040F67903C0F20003984770BD70B50400A6
S2140009B042F63816C0F20006431E9841C0B240F216
S2140009C03552310040F20375C0F20005A84724698D
S2140009D02000431E9841C0B240F205623100A8478D
S2140009E023680222134323600132E3691A42FCD1D2
S2140009F004250422032010264FF6FF71E3691A42ED
S214000A00FCD1638B1B090340012B09D00139002957
S214000A10F4D1013D35B16683E3691A42FCD1EBE7B8
S214000A20002070BD06204042FBE70000F0B5DE4621
S214000A3057464E464546E0B583B0050088460469ED
S214000A400600731E9E41F3B2019342F63816C0F2BA
S214000A50000640F2D0523100180040F20377C0F290
S214000A600007B8472869431E9841C0B240F2D152E9
S214000A703100B8474046431E9841C0B240F2D252B9
S214000A803100B8476B88DB0500D51EE243465B881D
S214000A9040F200121343424653802B0043CA43C31E
S214000AA0636840F2001213436360FC3AE3691A423B
S214000AB0FCD12F693B68994642F63811C0F2000116
S214000AC040F2A552019840F20373C0F20003984723
S214000AD06B68012B5CD07B68B64A13407B600422AF
S214000AE0FB691A42FCD12B885A055ED56A88D20764
S214000AF004D56A8840F200410A436A805B0040F2EF
S214000B00FE7119400422FB691A42FCD17A6A44F24B
S214000B100003134048F2000213430B437B62042297
S214000B20FB691A42FCD129690B7EDBB24FF6FF72D5
S214000B300320184204D10B7EDBB2013A002AF8D11A
S214000B403E680421FA691142FCD17A8B92B2D90729
S214000B5000D49FE093073ED501233B766B8841F295
S214000B6000010B436B806B8893490B406B80012020
S214000B70030013405842584105386B888E4A13408C
S214000B806B8003B03CBC90469946A246AB46F0BD8F
S214000B904B461B019FD57A688023DB0213437B609C
S214000BA00422FB691A42FCD19DE76A885B00FF219C
S214000BB00B40FE39114019430422FB691A42FCD14E
S214000BC07A6A44F2000313400B437B620422FB69FB
S214000BD01A42FCD1A7E753071BD46B885B0535D5B3
S214000BE02B88DB09062119400422FB691A42FCD136
S214000BF07A6A44F200031340F12213430B437B62EC
S214000C00ED3AFB691A42FCD16B886C4A13406B8044
S214000C1065E06B68002B04DD6B8841F2000213432D
S214000C206B806B881BB2002B06DB6B88624A134016
S214000C306B8002204042A0E77A68C0239B021343E1
S214000C407B600423FA691342FCD1EEE76B6893B924
S214000C506B881BB2002B04DB6B88574A13406B80F3
S214000C603DE07A68C0239B0213437B600422FB6945
S214000C701A42FCD1F0E7AB681A782823FA5404220B
S214000C80FB691A42FCD1AB680133AB606B68013B71
S214000C906B6024E09B0722D56B68002B3FD0520781
S214000CA03DD43601F60F013B6B60002B00D00FE100
S214000CB0002E00D112E16B881BB2002B1CDB6B8868
S214000CC03D4A13406B80A9684B1CAB600422FB694D
S214000CD01A42FCD12823FB5C0B7002233B760023D0
S214000CE0019340F2001A0321042240F2010C40F264
S214000CF0020940F2280BB3E07B682F4A13407B6062
S214000D000632FF32FB691A42FCD17A68C0239B0286
S214000D1013437B600422FB691A42FCD1CFE702230F
S214000D203B760220404228E76268C0239B021343BA
S214000D3063600422E3691A42FCD1A7E002421BD199
S214000D406B885B053CD52B88DB0906201840E369D9
S214000D501A42FCD1666A44F200033340F12633435C
S214000D6003436362E3691A42FCD16B88134803406D
S214000D706B800023019373E06B68002B04DD6B88A7
S214000D8041F2000003436B806B881BB2002B07DB2D
S214000D906B88094803406B8002235B4201935FE047
S214000DA06068C0239B0203436360E3691A42FCD178
S214000DB0EEE7C046FFFFFBFFFFFEFFFFFFFBFFFF68
S214000DC06B689BB96B881BB2002B06DB6B8863488D
S214000DD003406B800023019342E06068C0239B02BF
S214000DE003436360E3691A42FCD1EFE7AB681B7804
S214000DF058462354E3691A42FCD1AB680133AB6012
S214000E006B68013B6B600023019329E00027019784
S214000E104F461F4224D06B68002B4ED002424CD166
S214000E20F60E60460640013B6B60002B00D082E069
S214000E30002E00D185E06B881BB2002B2DDB6B8863
S214000E40464803406B80A868431CAB60E3691A42BF
S214000E50FCD15B46E35C03704B462376002301938C
S214000E606B88504603422ED02E69337EDBB24FF697
S214000E70FF70194240D1337EDBB201380028F8D12A
S214000E8043465B881BB2002B00DA4DE76B88334A7B
S214000E9013406B800520404273E663682F4803408A
S214000EA06360E3691A42FCD16068C0239B02034377
S214000EB06360E3691A42FCD1C1E74B4623760223FE
S214000EC05B420193CCE701985BE60620404258E679
S214000ED0012B00D0F7E6002E00D1F4E67A688023D6
S214000EE0DB0213437B600422FB691A42FCD16B6869
S214000EF0002B00D1DFE6E6E62668E0690242FCD178
S214000F00608B80B267461F4200D17FE74B460342A4
S214000F1000D113E727766B8841F2000633436B80D7
S214000F206B880E4E33406B806346034058425841F0
S214000F30431F019394E7012B00D084E7002E00D1D5
S214000F4081E760688023DB0203436360E3691A423B
S214000F50FCD16B68002B00D16DE774E7FFFEFFFF46
S214000F6041F60003C4F200231B69DB0734D441F6C4
S214000F700002C4F20022032113691942FCD141F693
S214000F800003C4F200231B689B0717D541F6000335
S214000F90C4F200231A6802218A431A6041F600024E
S214000FA0C4F20022013113691942FCD141F6000255
S214000FB0C4F20022022113691942FCD141F6000353
S214000FC0C4F2002301221A6041F60002C4F2002295
S214000FD0032113691942FCD141F60002C4F2002233
S214000FE0012113691942FCD141F60003C4F2002323
S214000FF000225A71FF321A71FE3ADA731A68022119
S2140010000A431A6041F60002C4F200220131136955
S2140010101942FCD10020704710B540F2D133C0F21F
S2140010200003984748F200031B6883F3888848F259
S21400103004031C68640864002000210022002300CA
S21400104000F0C0F8C046FDE7F0B583B006000568BE
S21400105001AC00232370637040F600024F21280085
S21400106040F28563C0F20003984714350122210040
S214001070280040F29763C0F200039847022221003E
S214001080280040F2CD63C0F20003984723781B0285
S2140010906078184300B2C30F5B00357A47F6FF74DA
S2140010A004400722521B14410120C01A40B241F2EC
S2140010B0DD73C0F200039847061CA0B241F67D031C
S2140010C0C0F200039847011C41F22923C0F2000336
S2140010D0301C984742F2ED43C0F2000398470600E2
S2140010E00F000120A84042F26943C0F2000398476F
S2140010F002000B0041F60914C0F200040020002193
S214001100C3F6E071A04702000B0041F65974C0F226
S214001110000430003900A04742F29153C0F20003A9
S214001120984703B0F0BDF0B583B00400170042F650
S2140011305412C0F2000241F27D13C0F20003984739
S2140011402568277201AE012333707F017770002374
S214001150B37040F600024F21280040F28563C0F2CB
S21400116000039847280014300322310040F29763AA
S214001170C0F200039847200003B0F0BD0160426053
S214001180704710B543681B68984710BD10B540F20D
S2140011902804C2F20004200040F27763C0F2000385
S2140011A0984740F21C00C2F200000222210041F2E1
S2140011B02713C0F20003984740F24803C2F2000328
S2140011C0186010BDE0B545464E465746E0B45D464D
S2140011D020B4254626462746A046A146A246A34654
S2140011E0A44684F30088A44720BCAB46E0BCBA46BD
S2140011F0B146A846E0BD00009E2110B5C905041CF6
S21400120001F082FA18B9201C00F0CAFA10BD9E211F
S214001210201CC90500F034F900F0C2FA80231B0632
S2140012209C466044F2E7C046F0B546464F46D64672
S2140012304302C0B546005B0A360E88469946C40F80
S214001240002E51D0FF2E23D08020DB00C004184390
S2140012508146002740F2000A7F3E434658005D0262
S214001260000EDB0F6D0A984608B3FF2842D0EB004D
S2140012708025ED041D4300237F3841463618614023
S214001280701C1F430F2F69D87B4ABF00D259974660
S214001290002B48D1434658005D02000EDB0F08279E
S2140012A0FF2640F2020A6D0A98460028DDD1002D7E
S2140012B03ED100200123E0E74146022B20D0032B3D
S2140012C000D1CFE0012B00D0ADE000220020194075
S2140012D0CCB24002D205400AE407104320431CBCAF
S2140012E090469946A246F0BD7BB90427002640F2F8
S2140012F0010AB2E7FF200223002DBED00323BCE77D
S2140013000124FF220C400020E3E7180001F006FA53
S2140013104A46431F76269A4076429146361A00275A
S21400132040F2000A99E70C27FF2640F2030A94E7EA
S214001330280001F0F3F9431F9D4076235B42181AFC
S21400134000239AE780200024C003FF22C1E74D4611
S2140013505346B2E74D4621005346AEE74B461B0CBC
S21400136098464A464FF6FF731A402B401C005443DB
S2140013702F0CA446454644467D4357436246634386
S214001380120CFF18D219934203D980235B029846A9
S214001390454467464FF6FF7314043B40E418A30128
S2140013A05F1EBB41120CA40E55191C43AD0125430C
S2140013B02B0104D5012306006A081D4015433200A0
S2140013C07F32002A27DD6B0704D00F232B40042B27
S2140013D000D004352B0103D53200284B80321D4047
S2140013E0FE2A8DDC0124A801400AD2B20C4070E728
S2140013F080204B46C003034208D0054205D128434F
S2140014004002400A4446FF2263E74B461843400228
S214001410400AFF225DE70124A31A1B2B05DD0C40C2
S2140014200022002055E70600C9E72A002020DA40FF
S214001430C31A9D402B005D1EAB4113435A0704D0D0
S2140014400F221A40042A00D004335A0104D501247E
S21400145001220C4000203CE701249B01580A0C4066
S214001460002236E780200124C00328434002400AB9
S2140014700C40FF222DE7C04658290000FFFFFFF76B
S214001480F8B5CE4647464400C20F80B5470248022C
S214001490400A844666467B0A48009946240E150094
S2140014A0DB00000EC90FF600FF2800D18DE040F2E9
S2140014B0010847467940914265D0221A002A00DC8E
S2140014C09CE000283CD1002E00D18AE0511E002965
S2140014D000D0B3E001249B1B5A0143D59B019F0912
S2140014E0380001F01BF905388740844200DD94E09F
S2140014F0041B3A0020200134E240041BA7403B00B6
S2140015005F1EBB41002413435A0704D00F221A4023
S214001510042A00D004335A0126D50134FF2C00D10A
S21400152077E001229B015B0AE4B22A405B02E405F5
S214001530580AD207204310430CBC90469946F8BD83
S214001540FF2CE1D08021C9040E431B2A7ADC31002F
S2140015502020D140821A9640721E96410E439B1B55
S2140015605A01BBD45A07D1D10122DF082A40FF2CEA
S21400157033D1002F00D1A6E08023DB033B435B0280
S2140015805B0AFF24D2E7211A00294BDD58B3FF2C53
S214001590BAD08020C00406431B2900DDACE0300032
S2140015A02027C840791A8E40711E8E4106439B192B
S2140015B05901D7D50134FF2C00D184E001227649A9
S2140015C01A405B080B4013439EE7002E00D072E7DC
S2140015D06DE73B00002FC5D100227B025B0AE4B218
S2140015E0A4E7140090E7002E4BD0481E002855D1E3
S2140015F09B1901245A01B5D50224DFE72ABB621CD9
S214001600D2B2012A71DD9F1B7A0134D5F71A0D007C
S21400161066E7012200232A4088E73B005F4A241A37
S214001620134071E7002969D1611CC8B201284DDD5D
S214001630FF2948D09B195B080C0065E7FF2A40D0BD
S2140016400A0082E701269B1B8AE7E4B1FF2821D027
S2140016508024E404524223431B2A00DD90E01C0051
S2140016602025D440AA1A93405A1E93412343F31AC6
S21400167004000D0030E7002F00D031E700220024E0
S214001680ABE70C0040E7002B52D0D243002AEED046
S214001690FF28E1D13300FF240D0035E7FF2910D0E5
S2140016A0010079E7002B68D0FF24002E00D12BE73D
S2140016B080224946D203114203D06146114200D12E
S2140016C03300FF2420E7FF2400232FE7002CE9D176
S2140016D0002B5DD0002E00D116E79B195A0100D4CE
S2140016E040E72E4A0C0013400EE7DCB95BBB002E29
S2140016F04BD033000D0007E7012658E7E4B9002B6E
S21400170040D0C94359B1FF2837D01B2942DC1C0002
S2140017102027CC40791A8B40591E8B4123439B19B6
S214001720040045E7CBB926BB80270022FF0323E74A
S214001730330004000D00E7E6FF281ED08024E404F2
S21400174049422343E1E7002E00D1DDE69F1B7A01E4
S21400175000D43EE7F31A0D00D6E6FF24002E00D193
S214001760D2E680224846D2031042AAD060461042F3
S214001770A7D133000D00FF24C6E63300FF24C3E6DE
S214001780012374E733000400BEE60027002224E7A6
S2140017903300B9E60123C2E7FFFFFF7DFFFFFFFB33
S2140017A041024300C20F490A1B0E00207E2B0CDDAF
S2140017B09D2B0BDC802000040143952B09DC962032
S2140017C0C31AD940484202B908007047024BD018E5
S2140017D0FBE7963B9940F5E7FFFFFF7F70B50028D3
S2140017E030D0C317C4185C40C50F200000F096FF29
S2140017F09E231B1A962B0DDC9622D21A94402A00A2
S2140018006402640ADBB26402DB05600AD20718438E
S214001810104370BD992B19DC9922D21A002A29DDB3
S21400182094402200144C1440510704D00F210A4063
S214001830042A00D00434620113D4A401640ADBB283
S2140018402A00E0E7002200230024DCE7052221002E
S214001850121AD140B922D21A9440621E94410C4307
S214001860DAE7054B2A001C409F23A4011B1A640AD2
S214001870DBB2C8E72200D5E7FFFFFFFB10B5040088
S21400188038B300F04BFF9E231B1A962B0ADC9622D9
S214001890D21A94406402640ADBB26402DB05600A72
S2140018A0184310BD992B17DC9922D21A002A27DD7F
S2140018B094402200134C1440510704D00F210A40D4
S2140018C0042A00D00434620112D4A401640ADBB2F4
S2140018D0E3E700230024E0E7B9222100D21A914072
S2140018E00A00511E8A410521091ACC401443DBE741
S2140018F0044B1C409F23A4011B1A640ADBB2CCE7EE
S2140019002200D7E7FFFFFFFBF0B557464546DE4609
S2140019104E46E0B54C001E000F03CB0F640D85B09D
S2140019208346924605003F0B9846002C53D040F263
S214001930FF739C4235D08023420F1B04FF001343E5
S2140019403B439946714B00279C460023C5006444E0
S214001950029333031B0B9B4673005B0DF60F50463A
S2140019600196002B63D040F2FF72934255D05A4640
S214001970D1008022400F120402430A436349934673
S214001980524658180021D2004346201A73409C46FF
S21400199000900F430F2F00D9BEE05D48BF00C0592E
S2140019A0874603003B439946002B75D1022300254A
S2140019B0082740F2FF740293CBE74346CB462A0043
S2140019C002990193022900D0BDE1019B40F2FF7607
S2140019D0002400256DE003003B439946002B55D0BC
S2140019E0002F00D1C8E1380000F098FE03000B3B42
S2140019F01C2B00DDB9E11D22D31A5A460100DA403D
S214001A0008398F4013005D463B4399468D400023BE
S214001A10404C0027241A02939BE752465B461A4323
S214001A207ABB40F2000B40F2FF700221ACE75A4648
S214001A3002430AB35B46002B00D1A8E1584600F0EB
S214001A406DFE03000B3B1C2B00DD99E1020059469E
S214001A50083A914040F21D0C8B466146CB1A51461F
S214001A60D9400B0059460B439B46534693401A00F9
S214001A70284B0021181A87E740F2000B00200121AE
S214001A8082E7524640F2FF7003217DE701230025DE
S214001A900427002402935CE70323B94640F2FF7450
S214001AA00C27029355E7802400230025240340F2E8
S214001AB0FF76002128004FF6FF752403220B0C0D3D
S214001AC024051443C8F20F0532052C402243520069
S214001AD0DB0752081A43110005B03CBC90469946F5
S214001AE0A246AB46F0BD012252420123991B38297B
S214001AF000DCBCE162461340002600240025D8E73F
S214001B0040F2FF7600240025D3E7C04601FCFFFF25
S214001B10982900000DFCFFFFD94500D93EE100D111
S214001B2039E1009B2F00013B009300254B465946A8
S214001B30100E09020143080C16024FF6FF72B3FBA3
S214001B40F0F80A4014000192424662434446444379
S214001B501B1B1B0499464C463B0C23439A420FD949
S214001B600124644244445B18A146994200D93DE1F1
S214001B709A4200D83AE102246442A1465B18C8445F
S214001B809B1AB3FBF0FB5A46019C4FF6FF7A624362
S214001B905C4644431B1B54461B043C4023439A426A
S214001BA00DD95C465B18671E994200D920E19A421F
S214001BB000D81DE102246442A1465B18CB449A1A61
S214001BC043465C464FF6FF781B041C43330C9A468C
S214001BD04346270C2340A3464446344003945C43C4
S214001BE00294039C7C43A146544663436743029C8D
S214001BF04B44240CA0464344994503D980246402F0
S214001C00A04647441C0CA146B9444FF6FF77029CF9
S214001C101B042740DB194A4500D2CBE000D1C5E0C3
S214001C204C46171BEB1A9D42AD416D427F1BB942D5
S214001C3000D107E1B7FBF0F20400019D5443554381
S214001C403F1B3F041C0C2743BD420AD9541E7F1875
S214001C50A046B94200D9FFE0BD4200D8FCE0023AF7
S214001C607F187F1BB7FBF0F568433F1A4FF6FF70EF
S214001C70019C3F046C430340A0463B439C4209D969
S214001C805B18681E994200D9E8E09C4200D8E5E05F
S214001C90023D5B18404612042A43039C150C1B1A8F
S214001CA04FF6FF7027006C43A0465446104047434B
S214001CB0654360433C0CA14640444844804503D9F4
S214001CC080246402A0464544040CA04645444FF6D2
S214001CD0FF78444600043C400019AB4200D299E02D
S214001CE000D194E001231A4340F2FF330099CE1846
S214001CF0002E00DCF9E6530700D097E05B46DB01D8
S214001D0007D55946934B194040F200438B4600993D
S214001D10CE1840F2FE739E426CDD0123624640F20E
S214001D20FF76134000240025C3E680244B46240398
S214001D30234215D05B46234211D11C432403240BB7
S214001D4033001500B3E6032900D1F9E0019B012911
S214001D5000D08AE00B40002600240025A9E64B466A
S214001D601C432403240B4346A1E603005A46283BA3
S214001D709A40002591464AE600F0D0FC203035E631
S214001D8003005246283B9A409346002270E600F035
S214001D90C5FC203055E6954200D2C2E649464B4681
S214001DA0CF0769085B080F43ED07C0E600279D4292
S214001DB000D337E7AD19B542BF4101247F426442E4
S214001DC07F185C44BA18A046914207D2914572D853
S214001DD000D1AAE04C46C346171B23E79142F9D12F
S214001DE0AE42F3D94A46A3468F1A1BE7C846C7E653
S214001DF0BB46E4E65B46D2085D07154340F2FF7239
S214001E005C02164001236246240B134051E600286C
S214001E1000D169E7CB18571E994221D93A00AB4248
S214001E2000D05FE7B04200D05CE75DE70F231340C9
S214001E30042B00D162E713001A1D9A429B415B42B5
S214001E409B445BE740F2FF33009AD618002E00DC76
S214001E5049E601235B42EFE7424602E7050019E741
S214001E609D4235D866D03A003CE79C463CE71F29A1
S214001E7037DC2023140058465B1A9A409840CC4022
S214001E80531E9A4120435C461043CC40430709D07A
S214001E900F230340042B05D00200101D90429B41E7
S214001EA05B42E418230235D501236246012613401F
S214001EB000240025FDE5AD19B542BF4102247F424E
S214001EC064427F18BF18A0464A46C344BF1AA9E614
S214001ED0971E7200B242B641764271185B18160021
S214001EE09CE71F235D465B429E1BF540202925D0BC
S214001EF05F33591A5B468B401A43531E9A412A4356
S214001F000725154000244DB10F2300241340100070
S214001F10042BC2D1020065076402240BD2081543C5
S214001F200123624600261340C3E5AB42C3D8C3462E
S214001F30002777E68642CBD33A0073E70023DBE739
S214001F4080245B4624031C432403240B019B1500BA
S214001F50ADE5C046FFFFFFFEF0B54E46DE465746EF
S214001F604546E0B599464E000B031B0B760D87B031
S214001F70040092469B46CD0F002E00D176E040F23C
S214001F80FF739E423AD05B46DA008023410F1B0463
S214001F900B4313439B46714B40F200089C460023BC
S214001FA0C700664402934B465A001C03520DDB0FD3
S214001FB05046240B9946002A00D182E040F2FF7377
S214001FC09A4200D175E08023410F1B040B436349FE
S214001FD0E4001C43C3005018002249463618404609
S214001FE069400091711C019110430F2800D9BBE095
S214001FF08000804641465A4841588F465F46074310
S214002000002F00D092E0022340F2000B40F20808B6
S21400201040F2FF760293C6E749460091022A6CD04A
S214002020032A00D114E2012A00D06CE100990024B2
S214002030114000270022CDB2002112030B0D120B17
S2140020401B0513434FF6FF72C8F20F021340240518
S2140020501C436400ED0764082C433800210007B0D9
S2140020603CBC90469946A246AB46F0BD1F000743CF
S214002070002F53D0002B00D192E1180000F04EFB49
S21400208003000B3B1C2B00DD84E11D22D31A22002B
S21400209001005E46DA4008398E4013008C40334318
S2140020A09B46270000232F4E40F20008361A029364
S2140020B079E75346234363BB002440F2FF700222B5
S2140020C08BE75346234303B3002C00D15EE1200088
S2140020D000F024FB03000B3B1C2B00DD50E11D2110
S2140020E0CB1A51460200D9405346083A94409340D2
S2140020F00C431C4A101A00226FE70125009B40F291
S214002100FF741D400022002796E7002400200122CD
S21400211063E7534640F2FF7003225EE7012340F276
S214002120000B40F20408002602933CE70323070056
S21400213040F20C0840F2FF76029334E78022002536
S2140021400027120340F2FF7476E75C463B00029AD3
S21400215064E75C463B000095029A5FE701FCFFFFE0
S214002160D82900000DFCFFFF4FF6FF753A0C944689
S2140021701A0C2B4019002F40794389466146484681
S2140021805943150088466146000C82467D435143FC
S214002190454455440291A84504D980204002804613
S2140021A0414402914FF6FF78290C40460391494678
S2140021B02D04014089462900250C49440440049119
S2140021C021007943884661466143894661466943F2
S2140021D08C464146090C8A466F434F445744B945DE
S2140021E003D9802149028946CC44390C61444FF614
S2140021F0FF7C0591604641460140884603993F04AE
S21400220047448846B844414603915946090C8846D7
S2140022105846614601408C465943894641464B43E1
S21400222051438A4661464A434946090C8B46D218B2
S2140022305A44934203D980235B029B46DA44130C2C
S21400224053444FF6FF7A4846514601408946414678
S21400225061438A4641466943120491448846624671
S214002260614662434D43140C55446419A24503D994
S214002270802149028C46E0440398029984466144D2
S214002280B942BF414FF6FF7C0D0079428A46059859
S21400229061468446270411407A1862444D449446A9
S2140022A02F004D45AD41D4446D429B46824292413B
S2140022B0D4458941A946E34452424942D944240CB4
S2140022C00A431219A945AD419B45A4414B466D42B0
S2140022D064422C4314194444DB0D64021C43049BE3
S2140022E07D021D432B005D1EAB41FF0D1F434B4679
S2140022F05B023B43E20157D501275A083B40134394
S214002300E7073B43640840F2FF3201998E18002E1F
S2140023104CDD5A0709D00F221A40042A05D01A1D90
S2140023209A429B415B42E4181300E20105D54D4AF0
S2140023300199144040F200428E1840F2FE72964216
S21400234000DDDAE667076402220B012540F2FF741F
S214002350DB081F43009B34401D406DE68022594633
S2140023601203114207D0144205D122431203120B66
S2140023704D461F00E6E65B461A431203120BE1E6E3
S21400238003005446283B9C400023B2E600F0C6F902
S21400239020309FE60300283B9C400027A34681E6AA
S2140023A000F0BCF920306BE60196ACE70125AA1BCD
S2140023B0382A05DD009B00241D40002200273BE64E
S2140023C01F2A20DC20252000AD1A1E00AB40A840A6
S2140023D0D6405D1EAB4130431843D440430709D076
S2140023E00F230340042B05D00300181D98429B4181
S2140023F05B42E41823021ED50125009B01241D40E4
S2140024000022002718E61F2027004042861BF740C0
S214002410202A1BD05F30821A944023435C1EA341BF
S2140024203B4307271F4000224FB10F2200241A40CB
S2140024301800042AD9D1030067076402220B01257D
S214002440DB081F43009B00241D40F5E50024E4E75D
S214002450802201251203224300991203120B0D401D
S2140024601F006FE6FFFFFFFE70B5002838D0C317C9
S214002470C4185C40C50F200000F050F940F21E431F
S21400248040F233421B1AD21A1F2A1DDD40F21342B5
S214002490D21A944040F2FF72134000222403240B09
S2140024A00021100024030A0D240B120522434FF6C8
S2140024B0FF74C8F20F0422401B0513435B00ED07B0
S2140024C05B082B43190070BD210091400A000B21C8
S2140024D0081AC44040F2FF712403240B0B40DFE7C8
S2140024E00025002300240022DAE7C0464100090E3A
S2140024F04B1C4202DBB270B5560AC40F012B19DD25
S214002500130B40F2803276078D1800210A0D120553
S2140025101A4340F2FF732B404FF6FF75C8F20F05C3
S2140025202A401B0513435B00E4075B082343300087
S214002530190070BDA9B90EB3300000F0EFF80A28F4
S2140025401FDC0B2332001B1ADA40030015339E40B3
S21400255040F2893540F2FF7112032D1A130B0D401D
S214002560D3E73EB18023120B1B037607134340F2DA
S214002570FF75CAE740F2FF750023C6E70025002373
S214002580C3E7030032000B3B9A400026E0E7C04654
S214002590F0B540F2FF754C000B03640D460F5B0A66
S2140025A0671C3343C90FC6003D40012D29DD3B4A59
S2140025B0A518FE2D1CDC002D3EDD80010200501EFD
S2140025C08241760F3243DB0013435A0704D00F22B2
S2140025D01A40042A00D004338022D2041A40002A6B
S2140025E059D00135FF2D03D09B015B0AECB201E008
S2140025F0FF2400235802E405400AC9072043084385
S214002600F0BD44B11E43002EF2D08020DB008004D3
S2140026100343FF25D9E733431BB10523DB08FF2C13
S21400262003D05B025B0AE4B2E4E793B38020C00306
S21400263003435B025B0ADDE72A00173214DB8022C5
S2140026401E27120413437F1B1F2F0FDC144A9446C9
S21400265064443200A6403500A3406E1EB541FA40E1
S2140026602B4313430025B0E70024D6E7022252424C
S214002670551B1A00EA40202F09D00A4884466444B5
S214002680A34033435E1EB341002513439DE700235A
S214002690F7E70023AEE72C00C0E7C04680FCFFFF4C
S2140026A082FCFFFFA2FCFFFF8446081C6146FFE792
S2140026B01FB500F0B1F8002801D40021C8421FBDA4
S2140026C010B500F049F84042013010BD10B500F0DA
S2140026D0A3F8002801DB002010BD012010BDC04675
S2140026E010B500F099F8002801DD002010BD01208B
S2140026F010BDC04610B500F055F8002801DC0020DB
S21400270010BD012010BDC04610B500F04BF80028E3
S21400271001DA002010BD012010BDC0461C21012397
S2140027201B04984201D3000C10391B0A984201D3AF
S214002730000A08391B09984201D30009043902A28D
S214002740105C40187047C0460403020201010101F4
S214002750000000000000000070B5420045024E0276
S2140027604C00C30F6D0A120E760A240EC90F012004
S214002770FF2A06D0FF2C03D0A24201D1B54206D0D4
S21400278070BD002DFCD1FF2CFAD1002EF8D18B4263
S21400279006D00120002AF3D12800451EA841EFE705
S2140027A00020EDE7F0B5420045024C02C30F48009A
S2140027B06D0A120E640A000EC90FFF2A1DD0FF28EC
S2140027C010D03AB96E426E41F6B280B97CB900209C
S2140027D03DB103E000B90CB18B4211D00121584243
S2140027E00843F0BD002CECD002204042F9E7002E52
S2140027F0F2D0012001390843F3E7002DDFD0F3E7DC
S2140028008242EBDC04DBA542E8D80020A542E8D2F1
S2140028100121581E0843E4E7F0B542004D024C0083
S2140028204602760A120EC30F6D0A240EC90FFF2A3F
S21400283016D0FF2C10D042B970427041C0B29CB185
S21400284020B1012001390843F0BD9CB1994214D053
S21400285001205B421843F7E70220002DF4D1EAE797
S2140028600220002EF0D1E4E7002DE9D10020002E52
S214002870EAD0EDE7002DE9D1EAE7A24206DCE0DB8C
S214002880AE4203D80020AE42DBD3DDE7012049424A
S2140028900843D9E770B500250E4B0F4CE41AA41078
S2140028A0A54209D1002500F0B7F80C4C0C4BE41AF1
S2140028B0A410A54207D170BD064AAB009B181B6842
S2140028C098470135ECE7064AAB009B181B6898470B
S2140028D00135EEE7242A0000242A0000282A0000FA
S2140028E0242A00002E2E2F68616C2F7372632F68C7
S2140028F0616C5F6932635F6D5F73796E632E630030
S2140029002E2E2F68616C2F7372632F68616C5F695F
S2140029106F2E63000004004200080042000C0042D4
S2140029200000000014002000000100000E0F000050
S2140029300000D70000093D002E2E2F68706C2F7304
S2140029406572636F6D2F68706C5F736572636F6D11
S2140029502E630000491000005C130000BA1200004D
S214002960BA120000B81200004E1300004E1300000A
S21400297044130000B81200004E1300004413000079
S2140029804E130000B8120000541300005413000049
S21400299054130000F0130000181B0000001B00007A
S2140029A0F81A0000C4190000F81A0000A61A000061
S2140029B0F81A0000C4190000001B0000001B0000ED
S2140029C0A61A0000C4190000BA190000BA190000BF
S2140029D0BA1900002A1D0000682100001C20000013
S2140029E01C200000182000004A2100004A21000098
S2140029F03C210000182000004A2100003C21000075
S214002A004A21000018200000522100005221000038
S214002A10522100005C230000F8B5C046F8BC08BC94
S214002A209E46704791030000F8B5C046F8BC08BC47
S20C002A309E4670476503000096
S214007C007FE97FE9F8F720BB7FE97FE9F8F701BB5A
S214007C107FE97FE9F8F787BA7FE97FE9F8F76ABA7C
S2148040003F438FB0BB1800008020084001000000AE
S214804010000000000800000078000000000000009B
S804000000FB
