:020000041000EA
:100000000080003045010010DD010010172E0010A7
:10001000E1010010E3010010E5010010E70100100C
:10002000000000000000000000000000E9010010D6
:10003000EB01001000000000ED010010EF010010C6
:100040002B2C0010332C00103B2C0010432C0010E4
:100050004B2C0010532C00105B2C0010632C001054
:100060006B2C0010732C00107B2C0010832C0010C4
:100070008B2C0010932C00109B2C0010A32C001034
:10008000AB2C0010B32C0010BB2C0010C32C0010A4
:10009000CB2C0010D32C0010DB2C0010E32C001014
:1000A000EB2C0010F32C0010FB2C0010032D001083
:1000B0000B2D0010132D00101B2D0010232D0010F0
:1000C0002B2D0010332D00103B2D0010432D001060
:1000D0004B2D0010532D00105B2D0010632D0010D0
:1000E0006B2D0010732D00107B2D0010832D001040
:1000F0008B2D0010932D00109B2D0010A32D0010B0
:10010000AB2D0010B32D0010BB2D0010C32D00101F
:10011000CB2D0010D32D0010DB2D0010E32D00108F
:10012000EB2D0010F32D0010FB2D0010032E0010FE
:10013000983800100000003008000000080000306F
:100140006000000072B6134B134A17480360196829
:1001500081F3088882F30A8801F0D6FF0F4B07E08D
:1001600003F10C049A685968186800F01FF82346D8
:100170000B4A9342F4D306E01C46596854F8080B26
:1001800000F023F82346074A9342F5D362B600F005
:100190007DFDFEE700000010007800303001001007
:1001A0003C0100104401001008ED00E000239342E0
:1001B0000AD210B450F8044B41F8044B0433934274
:1001C000F8D35DF8044B70477047002303E000222A
:1001D00040F8042B04338B42F9D37047FEE7FEE767
:1001E000FEE7FEE7FEE7FEE7FEE7FEE7FEE7FEE7E7
:1001F000FEE7FFFF80B586B002AFF860B9607A60B5
:100200003B607B680093BB68FA683968024802F07B
:10021000A1FB00BEFDE700BF1832001080B588B01A
:1002200000AFB9607B600346FB731346BB73BB7BB7
:10023000012B01D0012321E0124ABB7B13747B68A0
:100240003B61BB687B6100233B7600237B76012307
:10025000BB760123FB7600233B7700237B77FB7B78
:10026000BB7707F110031946064802F03FFF054B24
:10027000054A9A60034B054ADA6000231846203786
:10028000BD4680BD0800003055230010C922001073
:1002900080B584B000AF786039600023FB60094B03
:1002A0001B7C002B02D14FF0FF3306E03A687968DF
:1002B000054800F023F8F860FB6818461037BD4683
:1002C00080BD00BF08000030CD02001080B582B0B4
:1002D00000AF7860084B1B7C002B02D14FF0FF333E
:1002E00006E0054B9B68391D01220348984701230E
:1002F00018460837BD4680BD0800003080B59CB068
:1003000002AFF860B9607A6000233B660023FB65AA
:100310000023FB61002387F84A3000237B61BB6820
:100320007B667B6E1B78002B00F0D2817B6E1B7886
:1003300087F8493097F84930252B0BD097F849209A
:10034000FB6810469847FB690133FB617B6E013304
:100350007B66BCE1012387F84B3000237B650023DB
:1003600087F85B3020E07B6E01337B667B6E1B7809
:1003700087F8493097F849302F2B0FD997F8493033
:10038000392B0BD87A6D13469B0013445B001A4639
:1003900097F849301344303B7B6505E07B6E013BA9
:1003A0007B66012387F85B3097F85B3083F00103AD
:1003B000DBB2002BD7D17B6E01337B667B6E1B7863
:1003C0002E2B2ED100233B65002387F85B3020E0E5
:1003D0007B6E01337B667B6E1B7887F8493097F81C
:1003E00049302F2B0FD997F84930392B0BD83A6D5C
:1003F00013469B0013445B001A4697F84930134498
:10040000303B3B6505E07B6E013B7B66012387F853
:100410005B3097F85B3083F00103DBB2002BD7D160
:1004200002E07B6E013B7B667B6E01337B667B6EFD
:100430001B7887F8493097F84930642B24D097F817
:100440004930692B20D097F84930662B1CD097F89B
:100450004930462B18D097F84930782B14D097F8AC
:100460004930582B10D097F849306F2B0CD097F8A3
:100470004930622B08D097F84930702B04D097F898
:100480004930752B40F0DC8097F84930642B03D05D
:1004900097F84930692B15D17B681A1D7A601B6863
:1004A000BB6107F1180107F1200097F84B3000936A
:1004B0000A23012202F084FAF86507F12002FB6D9D
:1004C00013443B6697F84930582B03D097F84930CE
:1004D000782B1CD197F84930782B02D1002387F86C
:1004E0004B307B681A1D7A601B687B6107F1140131
:1004F00007F1200097F84B3000931023002202F000
:100500005FFAF86507F12002FB6D13443B6697F82C
:1005100049306F2B0BD097F84930622B07D097F8F2
:100520004930702B03D097F84930752B6AD197F872
:100530004930702B0DD17B681A1D7A601B683B61B6
:1005400007F1100107F114030422184602F046FED9
:1005500004E07B681A1D7A601B687B6197F849305C
:10056000623B132B3AD801A252F823F0C5050010C4
:10057000DD050010DD050010DD050010DD050010B3
:10058000DD050010DD050010DD050010DD050010A3
:10059000DD050010DD050010DD050010DD05001093
:1005A000BD050010CD050010DD050010DD050010B3
:1005B000DD050010DD050010D5050010082387F8C3
:1005C0004A300CE0022387F84A3008E0102387F80D
:1005D0004A3004E00A2387F84A3000E000BF97F869
:1005E0004A2007F1140107F1200097F84B300093DF
:1005F0001346002202F0E4F9F86507F12002FB6DD2
:1006000013443B667A6D07F11C01FB6800930B46AF
:10061000F96D202002F0B4F93B6E002B54D00AE0B3
:100620003B6E5A1E3A661B781A46FB68104698477E
:10063000FB690133FB613B6E1B78002BF0D143E07B
:1006400097F84930632B0BD17B681A1D7A601B68C1
:100650007B64FB68786C9847FB690133FB6133E08E
:1006600097F84930732B27D17B681A1D7A601B6875
:10067000FB64FB6C002B27D0F86C02F0C4FD034632
:10068000FB657A6D07F11C01FB6800930B46F96D61
:10069000202002F075F90AE0FB6C5A1CFA641B7802
:1006A0001A46FB6810469847FB690133FB61FB6CF7
:1006B0001B78002BF0D107E097F84920FB68104623
:1006C0009847FB690133FB617B6E01337B6628E64B
:1006D00000BFFB6918466837BD4680BD90B585B040
:1006E00000AF78607B681B68BB60BB6883F3888859
:1006F00000BF1A4A7B6893607B6804331B68FB6009
:10070000FB681C46640864002046214622462346B6
:10071000B7EE000AF7EE000AB7EE001AF7EE001A7D
:10072000B7EE002AF7EE002AB7EE003AF7EE003AED
:10073000B7EE004AF7EE004AB7EE005AF7EE005A5D
:10074000B7EE006AF7EE006AB7EE007AF7EE007ACD
:1007500002F016FD00BF1437BD4690BD00ED02E06B
:1007600080B400AF8E4B00221A608D4B00229A603D
:100770008B4B0022DA608A4B8A4A1A61884B01222D
:100780009A60874B4FF00052DA60854B864A1A61B7
:10079000834B02229A60824B844ADA60804B844AFF
:1007A0001A61BFF34F8F00BFBFF36F8F00BF7C4B49
:1007B00001221A607F4B33221A617E4B00225A615C
:1007C0007C4B00229A617B4B00221A62794B0022FB
:1007D0005A62784B00229A62764B0022DA62754B9D
:1007E00000221A64734B4FF033321A66714B0022A9
:1007F0005A66704B0022C3F880206E4B0022C3F86B
:1008000084206C4B0022C3F8A0206A4B0022C3F85E
:10081000A420684B0022C3F8C020664B0022C3F816
:10082000C420644B0022C3F8E020624B0022C3F8CE
:100830007021604B604AC3F800215E4B5F4AC3F8E9
:1008400004215C4B6FF44052C3F80821594B5C4AB9
:10085000C3F81021574B5B4AC3F81421554B6FF472
:100860004C12C3F81821534B574AC3F81C21514B63
:10087000564AC3F820214F4B554AC3F824214D4B0B
:10088000544AC3F830214B4B534AC3F83421494BE7
:10089000524AC3F84021474B6FF03302C3F844215A
:1008A000444B4FF00042C3F8D02F424B6FF08042D0
:1008B000C3F8D42F3F4B6FF0C042C3F8802F3D4B9D
:1008C0004FF0FF32C3F8842F3A4B4FF0FF32C3F89A
:1008D000902F384B4FF0FF32C3F8942F404B00223B
:1008E000C3F880223E4B0022C3F884223D4BDA68D5
:1008F00049F6F77313403B4A43F0BF6343F40033B8
:10090000D360384B1B69374A23F008031361354B1A
:100910005B6A344A23F400235362324B40F60342AD
:10092000C3F88C204FF0E0230022DA60214B40F620
:10093000AA22C3F8BC2F1F4BD3F8D03F23F040436B
:100940001C4A43F00043C2F8D03F1A4BD3F8D43FBF
:1009500023F04043174A43F00043C2F8D43F154BFD
:10096000214AC3F8EC2F134B204AC3F8F02F114B48
:10097000D3F8FC3F23F47F4323F0FC030D4A43F4F8
:100980002A4343F0A403C2F8FC3F0A4B4AF6A522CF
:10099000C3F8F82F00BFBD465DF8047B704700BF69
:1009A000D0ED00E0E1FFFF0FE1FFFFDF00FE0010F0
:1009B000E3FF001000C00A50FFCCCCFCCCFFCCFC05
:1009C000FCCFFFFFCCFCCCFFFCCCCFFFFFFCCCCF9F
:1009D000CCCCFCFFFFFFCCCCFCCFFCCFFCCCCCCCF8
:1009E00000E100E000ED00E0AA0200800A000080C3
:1009F00080B584B000AF78604FF48061786802F011
:100A000040F8F860FB68B3F5806F09D17A68FB683D
:100A100013441B78002B03D0254801F09BFFFEE711
:100A20001A22F968786801F091FD0346002B03D182
:100A3000204801F08FFFFEE7786801F08BFF00BFD0
:100A40001037BD46BDE88040704671467246734619
:100A5000B7EE000AF7EE000AB7EE001AF7EE001A3A
:100A6000B7EE002AF7EE002AB7EE003AF7EE003AAA
:100A7000B7EE004AF7EE004AB7EE005AF7EE005A1A
:100A8000B7EE006AF7EE006AB7EE007AF7EE007A8A
:100A90008EF3008C10B4F1EE10CA4FF66074C0F6FD
:100AA000FF740CEA040CE1EE10CA10BCF446744763
:100AB000583200108C32001090B589B000AFF86049
:100AC000B9607A60FB6823F00103FB611222042104
:100AD000F86901F03BFD0346002B03D14F4801F0BC
:100AE00039FFFEE74FF48061B86801F0CAFFB861D2
:100AF000BB69B3F5806F09D1BA68BB6913441B7831
:100B0000002B03D0464801F025FFFEE74FF480613B
:100B1000786801F0B6FFB861BB69B3F5806F09D1A1
:100B20007A68BB6913441B78002B03D03D4801F061
:100B300011FFFEE73C4801F00DFF3C4801F00AFFC1
:100B4000B86801F007FF3A4801F004FF786801F047
:100B500001FFFB697968B8681C4664086400224696
:100B60002346B7EE000AF7EE000AB7EE001AF7EEDA
:100B7000001AB7EE002AF7EE002AB7EE003AF7EEB9
:100B8000003AB7EE004AF7EE004AB7EE005AF7EE29
:100B9000005AB7EE006AF7EE006AB7EE007AF7EE99
:100BA000007A02F0EDFA78617B6918462437BD4679
:100BB000BDE89040714672467346B7EE000AF7EE04
:100BC000000AB7EE001AF7EE001AB7EE002AF7EEA9
:100BD000002AB7EE003AF7EE003AB7EE004AF7EE19
:100BE000004AB7EE005AF7EE005AB7EE006AF7EE89
:100BF000006AB7EE007AF7EE007A8EF3008C10B43C
:100C0000F1EE10CA4FF66074C0F6FF740CEA040CE3
:100C1000E1EE10CA10BCF446744700BFB8320010B1
:100C2000E8320010203300105833001090330010C9
:100C30009C33001080B483B000AF0346FB710B46B9
:100C4000BB7113467B71104B1B6B23F07F02FB794A
:100C500003F01F031A43BB795B0103F060030A49E9
:100C600013430B63084B9B6823F002027B795B0004
:100C700003F00203044913438B6000BF0C37BD46E9
:100C80005DF8047B704700BF0000025080B500AFE4
:100C9000002201210720FFF7CDFF4FF4457000F03F
:100CA00035F801F035FC01F0C3FB01F095FB054878
:100CB00001F050FE044801F04DFE4FF48030FFF784
:100CC0000DFDFEE7A8330010C433001080B483B0DC
:100CD00000AF7860044A7B68C2F8C03000BF0C37B0
:100CE000BD465DF8047B70470000025080B483B0BD
:100CF00000AF7860044A7B68C2F8C83000BF0C3788
:100D0000BD465DF8047B70470000025080B487B098
:100D100000AF78607B687B61204BFB607B68B3F140
:100D2000004F34D000233B612CE07B69002B2DD099
:100D30007B699BB2C3F30B037B817B89002B1BD0A8
:100D40007B897B727B891B0ADBB203F00F03DBB26A
:100D5000013B3B727B7A3F2B08D1114BD3F8982093
:100D60003B7A0F491343C1F8983005E07B7A9B002A
:100D7000FA6813443A7A1A607B691B0B7B613B6902
:100D800001333B613B69012BCFD900E000BF00BFBD
:100D90001C37BD465DF8047B704700BF6002005001
:100DA0000000025080B485B000AF03463960FB718B
:100DB0001346BB711A4BFB60FB79072B0DD9FB79EE
:100DC0000F2B0AD83B681B029AB2FB799B00F9688B
:100DD0000B4442F0FF021A601BE0BB79002B06D0E7
:100DE000FB799B00FA6813444FF000521A603B688D
:100DF000002B07D1FB799B00FA6813444FF0804227
:100E00001A6006E0FB799B00FA6813443A68013ADD
:100E10001A6000BF1437BD465DF8047B704700BF01
:100E20000003005080B582B000AF78607B68194A3B
:100E3000934209D07B68184A934205D07B68174AD1
:100E4000934201D0012320E04FF0A0434FF0006215
:100E5000C3F848214FF0A0434FF00062C3F82822A6
:100E60002020FFF743FF7B680C4A934206D10C4BCE
:100E70001B690B4A43F08043136105E0084B1B6973
:100E8000074A43F480431361002318460837BD46E0
:100E900080BD00BF001BB700006CDC0200D8B805A5
:100EA0000030015080B485B000AF78607B68424A62
:100EB000934202D80023FB604EE07B683F4A934296
:100EC00002D80123FB6047E07B683D4A934202D889
:100ED0000223FB6040E07B683A4A934202D8032336
:100EE000FB6039E07B68384A934202D80423FB60F8
:100EF00032E07B68354A934202D80523FB602BE041
:100F00007B68334A934202D80623FB6024E07B6867
:100F1000304A934202D80723FB601DE07B682E4ACB
:100F2000934202D80823FB6016E07B682B4A934269
:100F300002D80923FB600FE07B68294A934202D85C
:100F40000A23FB6008E07B68264A934202D80B2301
:100F5000FB6001E00C23FB60234B1F22C3F8E82F4A
:100F6000214BD3F8803023F00F02FB6803F00F030E
:100F70001D491343C1F880301B4B02221A6000BF89
:100F8000194BD3F8E03F03F00403002BF8D04FF0E7
:100F9000A043D3F8003423F47042FB681B039BB2D8
:100FA0004FF0A0411343C1F8003400BF1437BD46D1
:100FB0005DF8047B704700BFC0D8A70080B14F0127
:100FC000408AF70100639F02C03B47038014EF0390
:100FD00040ED960400C63E0500E1F505C0C2DA0604
:100FE00080A4BF0780D1F0080040035080B582B0D4
:100FF00000AF78607B680F4A934201D9012315E066
:101000004FF48070FFF772FE4FF48010FFF76EFE12
:101010004FF0A043D3F8183A4FF0A04243F020031A
:10102000C2F8183A044A7B68136000231846083750
:10103000BD4680BD0048E8010000003080B400AF2C
:101040004FF0A043D3F8183A03F04003002B01D02F
:10105000034B00E000231846BD465DF8047B704753
:1010600040420F0080B400AF074B1B6A03F080734F
:10107000002B02D0054B1B6800E000231846BD463C
:101080005DF8047B704700BF003001500000003065
:1010900080B400AF134BD3F8B83003F04003002BFB
:1010A00006D1104BD3F8983003F00103002B12D077
:1010B0000C4BD3F8B83003F08003002B09D1094B57
:1010C000D3F8983003F00103002B02D04FF4004313
:1010D00003E0002301E04FF400431846BD465DF8ED
:1010E000047B70470000025080B582B000AF00233F
:1010F0007B604FF0A043D3F8903203F00703032B3B
:1011000019D801A252F823F0191100101F11001074
:10111000271100102F1100100B4B7B600EE0FFF722
:10112000A1FF78600AE0FFF789FF786006E0FFF72B
:10113000AFFF786002E000237B6000BF7B68184649
:101140000837BD4680BD00BF001BB70080B586B024
:1011500000AF78604FF40070FFF7B8FD4FF4000067
:10116000FFF7B4FD4FF0A0427B681B68C2F88035E2
:101170004FF0A0427B685B68C2F888357B685B688B
:101180004FF0A04243F48073C2F888354FF0A0427C
:101190007B689B68C2F88C357B689B684FF0A042E7
:1011A00043F02003C2F88C354FF0A0427B681B69E6
:1011B000C2F890354FF0A0427B685B69C2F8943565
:1011C0007B685B694FF0A04243F0806343F0020309
:1011D000C2F894354FF40070FFF788FD4FF400001B
:1011E000FFF784FD7B68DB6903F00203002B2FD03F
:1011F0004FF0A043D3F894251A4B1340002B22D074
:10120000FFF772FF786101F02EFE38617A693B6961
:10121000B2FBF3F3FB60FB68134A93420DD9FB6802
:10122000124A934209D800BF01F00BFE034683F037
:101230000103DBB2002BF7D10AE00D4941F27070D7
:1012400000F01AF804E00A4941F2707000F014F856
:101250007B689B69074A1360002318461837BD4610
:1012600080BD00BF00FCFF039F860100002D3101FF
:1012700080D1F0081C0000302DE9B04384B000AFED
:10128000786039607968002935D07968002088460F
:101290008146396800200A46034602FB09F008FB34
:1012A00003F10144A8FB02454B191D46144A4FF0B7
:1012B00000032046294601F0BDF902460B46C7E966
:1012C0000223D7E90223012B05D30E4B0E4AC52179
:1012D0000E48FEF78FFFD7E902014FF000024FF0F2
:1012E0000003820842EA81728B08C7E90223BB68C7
:1012F000184601F0D7FD00BF1037BD46BDE8B083EA
:1013000040420F00E033001008340010F4330010A6
:1013100080B584B000AF78607B68BB600023FB6061
:1013200009E0BA680D49FB6851F823309A4206D0AB
:10133000FB680133FB60FB68082BF2D900E000BFBB
:10134000FB68082B05D9064B064A6A210648FEF7BA
:1013500051FFFB6818461037BD4680BD1C34001095
:1013600078340010E0340010A834001080B584B048
:1013700000AF78600B46FB707868FFF7C9FFF86034
:101380000C4AFB6832F81330184601F09BFD0A4AFC
:10139000FB6852F82330184601F06DFEFB780022FE
:1013A0001946786801F0D8FD034618461037BD4647
:1013B00080BD00BF403400105434001080B582B0AE
:1013C00000AF1148FFF7A4FF7860104A7B6852F81D
:1013D0002330002B05D10E4B0E4AB7210E48FEF7E5
:1013E00009FF0A4A7B6852F823300C497A6851F8A1
:1013F000222010460A497A6851F82220114698475F
:1014000000BF0837BD4680BD006008502000003096
:10141000B8340010F8340010A83400101C34001048
:101420004400003080B582B000AF1148FFF770FF74
:101430007860104A7B6852F82330002B05D10E4BA0
:101440000E4AC5210E48FEF7D5FE0A4A7B6852F8BF
:1014500023300C497A6851F8222010460A497A68EC
:1014600051F822201146984700BF0837BD4680BD7D
:101470000070085020000030B834001014350010FF
:10148000A83400101C3400104400003080B582B035
:1014900000AF1148FFF73CFF7860104A7B6852F8B4
:1014A0002330002B05D10E4B0E4AD3210E48FEF7F8
:1014B000A1FE0A4A7B6852F823300C497A6851F839
:1014C000222010460A497A6851F82220114698478E
:1014D00000BF0837BD4680BD0080085020000030A6
:1014E000B834001030350010A83400101C3400103F
:1014F0004400003080B582B000AF1148FFF708FF0C
:101500007860104A7B6852F82330002B05D10E4BCF
:101510000E4AE1210E48FEF76DFE0A4A7B6852F83A
:1015200023300C497A6851F8222010460A497A681B
:1015300051F822201146984700BF0837BD4680BDAC
:101540000090085020000030B83400104C350010D6
:10155000A83400101C3400104400003080B582B064
:1015600000AF1148FFF7D4FE7860104A7B6852F84C
:101570002330002B05D10E4B0E4AEF210E48FEF70B
:1015800039FE0A4A7B6852F823300C497A6851F8D0
:10159000222010460A497A6851F8222011469847BD
:1015A00000BF0837BD4680BD00A0085020000030B5
:1015B000B834001068350010A83400101C34001036
:1015C0004400003080B582B000AF1148FFF7A0FEA4
:1015D0007860104A7B6852F82330002B05D10E4BFF
:1015E0000E4AFE210E48FEF705FE0A4A7B6852F8B5
:1015F00023300C497A6851F8222010460A497A684B
:1016000051F822201146984700BF0837BD4680BDDB
:101610000060095020000030B834001084350010FC
:10162000A83400101C3400104400003080B582B093
:1016300000AF1248FFF76CFE7860114A7B6852F8E1
:101640002330002B06D10F4B0F4A4FF486710F4801
:10165000FEF7D0FD0A4A7B6852F823300C497A68BD
:1016600051F8222010460B497A6851F82220114681
:10167000984700BF0837BD4680BD00BF00700950C5
:1016800020000030B8340010A0350010A83400103D
:101690001C3400104400003080B582B000AF124806
:1016A000FFF736FE7860114A7B6852F82330002B32
:1016B00006D10F4B0F4A4FF48D710F48FEF79AFD7C
:1016C0000A4A7B6852F823300C497A6851F8222084
:1016D00010460B497A6851F822201146984700BFFE
:1016E0000837BD4680BD00BF008009502000003093
:1016F000B8340010BC350010A83400101C340010A1
:101700004400003080B582B000AF1248FFF700FE01
:101710007860114A7B6852F82330002B06D10F4BBA
:101720000F4A4FF494710F48FEF764FD0A4A7B6834
:1017300052F823300C497A6851F8222010460B49A0
:101740007A6851F822201146984700BF0837BD46F5
:1017500080BD00BF00F0095020000030B8340010F8
:10176000D8350010A83400101C340010440000309C
:1017700080B487B000AF786018237B611D233B6184
:101780000623FB607B6840F2B632934206D8002302
:10179000FB600A237B610F233B616EE07B68B3F53E
:1017A000747F06D20123FB600C237B6111233B6114
:1017B00063E07B68B3F57A7F06D80223FB600E23D3
:1017C0007B6113233B6158E07B6840F20142934206
:1017D00006D80323FB6011237B6116233B614CE099
:1017E0007B6840F21A42934206D80423FB6014231C
:1017F0007B6119233B6140E07B6840F233429342B6
:1018000006D80523FB6016237B611B233B6134E074
:101810007B6840F24C42934206D80623FB601823B3
:101820007B611D233B6128E07B6840F26542934267
:1018300006D80723FB601B237B611E233B611CE052
:101840007B6840F27E42934206D80823FB601E2349
:101850007B611F233B6110E07B68B3F5936F06D279
:101860000923FB601E237B611F233B6105E00A23E4
:10187000FB601E237B611F233B61114BDB6923F45B
:10188000F84323F01F037A6902F01F021A433B69F1
:101890009B0203F4F8430A491343CB61084B1B69CD
:1018A00023F4F012FB685B0403F4F01304491343C0
:1018B0000B6100BF1C37BD465DF8047B704700BF5D
:1018C0000000025080B487B000AF0346FB712F4B7D
:1018D0007B612F4B3B61FB79022B30D0022B43DC29
:1018E000002B02D0012B15D03EE02A4B1B68FB6079
:1018F000294B1B68BB60FB6803F00103002B3AD047
:10190000FB685B08FB60254AFB681361234ABB68E0
:10191000536130E0224B1B68FB60224B1B68BB60AD
:10192000FB6803F00103002B27D0FB685B08FB601A
:101930001A4AFB681361194ABB6853611DE01A4BD0
:101940001B68FB60194B1B68BB60FB6803F001035D
:10195000002B14D0FB685B08FB60104AFB68136126
:101960000E4ABB6853610AE00C4A7B6913610B4A5B
:101970003B69536104E000BF02E000BF00E000BF2C
:1019800000BF1C37BD465DF8047B7047684E0C01F4
:10199000983A8001E0FC0900E4FC090000000250D4
:1019A000E8FC0900ECFC0900D8FC0900DCFC09009B
:1019B00080B485B000AF1E4B1B687B601D4B1B685D
:1019C0003B607B6803F00103002B03D07B685B085E
:1019D0007B6001E0184B7B603B6803F00103002B48
:1019E00003D03B685B083B6001E0134B3B603A6807
:1019F0007B689A4202D83B68BB6001E07B68BB60B1
:101A0000BB680E4A934202D80023FB7308E0BB6810
:101A10000B4A934202D80123FB7301E00223FB73BC
:101A2000FB7B18461437BD465DF8047B704700BF4A
:101A300030FD090040FD0900A07E2601A0DF010164
:101A4000A01D4B0180B582B000AF78607B680F4A63
:101A5000934206D80020FFF735FF002001F0B6FAC8
:101A600010E07B680A4A934206D80120FFF72AFF5C
:101A7000012001F0ABFA05E00220FFF723FF02206E
:101A800001F0A4FA00BF0837BD4680BD00E1F505AE
:101A900080A4BF0780B586B000AF78607B681B0C60
:101AA0007B617B689BB23B6101223B6902FA03F3D5
:101AB000FB603B691F2B05D90E4B0F4A30210F48A5
:101AC000FEF798FB4FF0A0417B694833FA6841F874
:101AD000232000BF4FF0A0427B69403352F82320FF
:101AE000FB681340002BF5D000BF00BF1837BD4680
:101AF00080BD00BFF4350010103600100436001011
:101B000080B586B000AF78607B681B0C7B617B681A
:101B10009BB23B6101223B6902FA03F3FB603B6924
:101B20001F2B05D90E4B0F4A49210F48FEF762FBC8
:101B30004FF0A0417B695033FA6841F8232000BF81
:101B40004FF0A0427B69403352F82320FB681340DA
:101B5000FA689A42F4D000BF00BF1837BD4680BD76
:101B6000F43500102C3600100436001080B586B015
:101B700000AFF860B9607A60FB68002B05D0BB68E5
:101B8000002B02D07B68002B05D16B4B6B4AC62122
:101B90006B48FEF72FFBFB68002B05D0BB68002BC2
:101BA00002D07B68002B01D10423C1E00121F86839
:101BB000FFF7DCFB78617B69002B01D07B69B7E024
:101BC000BB685B7A002B23D0FB68D3F8003E43F060
:101BD0000112FB68C3F8002EFB68D3F8083E23F41B
:101BE0007062FB68C3F8082EFB68D3F8082EBB6848
:101BF0005B7B1B0203F470631A43FB68C3F8082E77
:101C0000FB68D3F8083E43F00102FB68C3F8082ED6
:101C1000BB681B7A002B23D0FB68D3F8003E43F04F
:101C20000212FB68C3F8002EFB68D3F8083E23F4C9
:101C30007022FB68C3F8082EFB68D3F8082EBB6837
:101C40009B7B1B0403F470231A43FB68C3F8082E24
:101C5000FB68D3F8083E43F00202FB68C3F8082E85
:101C6000BB681B791B0103F03002BB685B799B01E9
:101C700003F040031A43BB689B799B0003F00C03FD
:101C80001A43BB68DB79DB039BB21A43BB68DB7B7F
:101C90005B08DBB2DB0203F400631A43BB68DB7B47
:101CA0009B0303F480431A43BB681B7C1B0303F4B0
:101CB00080531A43BB68DB7ADB01DBB21A43BB6893
:101CC0001B7B5B0203F40073134343F00102FB68C8
:101CD0001A60BB68DB7A002B16D0BB681B684FF418
:101CE0001652B2FBF3F101FB03F3D31A002B08D118
:101CF000BB681B684FF41652B2FBF3F2FB681A6222
:101D00000FE041F2516313E0BB681B687A68194623
:101D1000F86800F05FF878617B69002B01D07B697F
:101D200006E0BB689B7A1946F86801F0B2F9002317
:101D300018461837BD4680BD803600103837001071
:101D40007436001080B582B000AF78607B68002BDD
:101D500006D11D4B1D4A4FF498711D48FEF74AFAF3
:101D600014220021786801F046FA7B684FF4E132D2
:101D70001A607B6800221A717B6800225A717B68A6
:101D800001229A717B680022DA717B6800221A7244
:101D90007B6800225A727B680022DA727B6800221C
:101DA0005A737B6800229A737B680022DA737B681F
:101DB00000229A727B6800221A747B6800221A73D0
:101DC00000BF0837BD4680BDC03600104437001044
:101DD0007436001080B58CB000AFF860B9607A60DE
:101DE0004FF0FF33FB620F23BB624FF0FF337B6288
:101DF000FB68002B05D0BB68002B02D07B68002B52
:101E000006D1504B504A4FF4AE715048FEF7F2F9EC
:101E1000FB68002B05D0BB68002B02D07B68002B31
:101E200001D1042389E0FB681B6803F40063002BE5
:101E30000FD0FB681B6803F48043002B7CD07A68CA
:101E4000BB68B2FBF3F37B617B695A1EFB681A62C5
:101E500072E0BB6A3B623BE07A6813469B00134426
:101E60005B0019463B6A0133BA6802FB03F3B1FB1E
:101E7000F3F3053B364AA2FB0323DB087B617B6956
:101E8000B3F5803F20D23B6A01337A69013202FB0D
:101E900003F37A68B2FBF3F3FB61BA68FB699A4219
:101EA00003D2FA69BB68D31A02E0BA68FB69D31A95
:101EB000BB61BA69FB6A9A4207D2BB69FB623B6AA3
:101EC000BB627B697B6200E000BF3B6A013B3B6217
:101ED0003B6A072BC0D8BB6A01337A6A013202FB26
:101EE00003F37A68B2FBF3F3FB61BA68FB699A42C9
:101EF00003D2FA69BB68D31A02E0BA68FB69D31A45
:101F0000BB61BB68134AA2FB03235A0913465B005B
:101F10001344BA699A4202D941F251630DE07B6AD7
:101F2000B3F5803F02D341F2516306E0FB68BA6A21
:101F30009A62FB687A6A1A62002318463037BD46F7
:101F400080BD00BFD03600105C3700107436001022
:101F5000CDCCCCCC1F85EB5180B584B000AFF86000
:101F6000B9607A60FB68002B02D0BB68002B06D1F9
:101F70001D4B1E4A40F2FF111D48FEF73BF9FB685E
:101F8000002B02D0BB68002B01D1042327E0FB68A3
:101F9000D3F8003E03F00103002B15D104231EE00B
:101FA00000BFFB68D3F8043E03F02003002BF8D0F9
:101FB000BB681B781A46FB68C3F8202EBB68013348
:101FC000BB607B68013B7B607B68002BE8D100BF76
:101FD000FB689B6803F00803002BF9D00023184628
:101FE0001037BD4680BD00BF143700107037001099
:101FF0007436001080B586B000AFF860B9607A60C2
:1020000000237B61FB68002B02D0BB68002B06D14C
:102010003A4B3B4A40F24B213A48FEF7EBF8FB685B
:10202000002B02D0BB68002B01D1042361E0FB68C8
:10203000D3F8003E03F00203002B54D1012358E0F3
:1020400000BFFB68D3F8043E03F04003002BF8D038
:10205000FB68D3F8043E03F00203002B13D0FB68A7
:10206000D3F8003E43F40032FB68C3F8002EFB684F
:10207000D3F8043E43F00202FB68C3F8042E41F299
:102080004D637B6134E0FB689B683B61FB689A6849
:102090003B691A43FB689A603B6903F48043002B59
:1020A00002D041F250637B613B6903F40053002B83
:1020B00002D041F24F637B613B6903F40043002B84
:1020C00002D041F24E637B617B69002B0FD1FB682C
:1020D000D3F8303EDAB2BB681A70BB680133BB601C
:1020E0007B68013B7B607B68002BA9D100E000BFCF
:1020F0007B6918461837BD4680BD00BF14370010F5
:10210000843700107436001080B500AF1D4BD3F833
:1021100088301C4A43F47003C2F888301A4BD3F855
:102120008830194A43F47003C2F88830154BD3F84D
:102130008830144A43F00F03C2F88830124BD3F8AA
:102140008830114A43F00F03C2F888300D4BD3F8A2
:102150008C300C4A43F4406343F00303C2F88C30E4
:10216000084B0A4A9A604FF0A0430022C3F80823A4
:102170004FF0A0437822C3F8202200F046FE00BFB3
:1021800080BD00BF00ED00E000ED02E000000010A7
:1021900080B588B000AF786039607B68002B06D1CD
:1021A000424B434A40F215114248FEF723F83B6880
:1021B000002B06D1404B3E4A4FF48B713D48FEF751
:1021C00019F83B689B7B072B06D93C4B384A40F2F9
:1021D00017113848FEF70EF83B689B7B1A46384BC0
:1021E00053F82230002B06D1364B314A4FF48C7114
:1021F0003048FDF7FFFF07F108031846FFF7A2FD7F
:102200003B685B68BB603B681B7B002B03D13B6872
:102210005B7B002B01D001233B753B681B7A022BB3
:1022200002D102233B7308E03B681B7A032B02D1E7
:1022300003233B7301E000233B733B685B7A012B74
:1022400002D101237B7301E000237B733B689B7AFF
:10225000002B14BF01230023DBB23B743B68DB7A05
:10226000002B14BF01230023DBB27B7400237B759A
:102270000023BB753B689B7B1A46114B53F8220029
:102280003B681A6807F108031946FFF76FFCF8610D
:10229000FB69002B04D0F86900F017FF034600E04B
:1022A000002318462037BD4680BD00BFB837001058
:1022B00054380010C0370010C8360010D437001052
:1022C000983700101C38001080B586B000AFF86059
:1022D000B9607A60FB68002B06D1184B184A40F2AF
:1022E0007B111848FDF786FFBB68002B06D1164B03
:1022F000134A4FF4BE711348FDF77CFF7B68002B37
:1023000006D1124B0E4A40F27D110E48FDF772FFC6
:10231000FB687B617B691B781A460D4B53F82230B2
:102320007A68B9681846FFF765FE3861386900F0C9
:10233000CCFE034618461837BD4680BDB83700109E
:1023400068380010C0370010443800104C380010B6
:102350009837001080B586B000AFF860B9607A6039
:10236000FB68002B06D1164B164A4FF4C87116486D
:10237000FDF740FFBB68002B06D1144B114A40F219
:1023800091111148FDF736FF7B68002B06D1104BE9
:102390000C4A4FF4C9710C48FDF72CFFFB687B61B8
:1023A0007B691B781A460B4B53F822307A68B96860
:1023B0001846FFF7D1FD002318461837BD4680BDEB
:1023C000B837001080380010C037001044380010B3
:1023D0004C3800109837001080B582B000AF4FF431
:1023E0004570FEF793FC0848FFF78AFB074B7B60BC
:1023F0007B6801224FF4E1310020FDF70FFF00BFA1
:102400000837BD4680BD00BF0B000100001BB700B0
:1024100080B483B000AF7860044A7B68C2F8C830EB
:1024200000BF0C37BD465DF8047B704700000250CA
:1024300080B588B000AF2020FFF7EAFF2B48FEF7F9
:10244000F1FC2B48FEF762FC4FF48070FFF7E0FFD1
:102450004FF48010FFF7DCFF2648FEF7C7FD4FF072
:10246000A043D3F8183A4FF0A04243F02003C2F83B
:10247000183A214B1B6A204A43F0807313621F48AD
:10248000FFF7E0FA1D48FEF70DFD4FF40370FEF76D
:102490003DFC4FF40070FFF7BBFF4FF40000FFF767
:1024A000B7FF3B4620220021184600F0A4FE144B43
:1024B0003B6008237B600123BB60124B7B610F4BA9
:1024C000BB610223FB613B461846FEF73FFE00223C
:1024D00001212020FEF766FC0B48FEF717FC0B4B92
:1024E000064A1A6000BF2037BD4680BD001BB700FA
:1024F000089110000024F4000030015080D1F00851
:10250000507F200000580210089120000400003085
:1025100080B582B000AF0D2000F003FE40F2011341
:102520007B607B681D220021074800F012FE40F20C
:1025300001133B603B681E220021034800F009FEA6
:1025400000BF0837BD4680BD00100050C3438B421A
:102550006DD332F01F036AD1013902F01403014434
:1025600000B581EA000C142B0ED8DFE803F03F0D14
:102570000D0D480D0D0D0D0D0D0D0D0D0D0D510D0C
:102580000D0D1000DB0200D400205DF804FBBCF14F
:102590001F0F40E8C0F304D99C4641E8C0F39C45B6
:1025A000F2D122F01402013A0A2AEDD801A151F821
:1025B00022F000BFE725001029260010E1250010B9
:1025C0008925001089250010892500108925001013
:1025D00023260010E725001085250010E1250010B6
:1025E0009A02D2D4D0E71A03CFD4CDE7BCF11F0FA3
:1025F00040E800F3D5D99C4641E800F3CFE7BCF1B1
:102600001F0F40E840F3CCD99C4641E840F3C6E7B1
:10261000BCF11F0F40E880F3C3D99C4641E880F32A
:10262000BDE75B03B0D5B0E75902AED5ACE70020FB
:10263000704700BF53B94AB9002908BF00281CBF22
:102640004FF0FF314FF0FF3000F082B9ADF1080CD0
:102650006DE904CE00F006F8DDF804E0DDE90223C0
:1026600004B070472DE9F04F099D04460F46002B3A
:1026700048D18A42944661D9B2FA82F343B1C3F198
:1026800020019F4002FA03FC9C4020FA01F10F4315
:102690004FEA1C411FFA8CFE220CB7FBF1F601FB3E
:1026A000167706FB0EF042EA0742904208D91CEB6F
:1026B000020206F1FF3702D2904200F237813E4615
:1026C000121AA4B2B2FBF1F001FB102200FB0EFEC5
:1026D00044EA0244A64508D91CEB040400F1FF3289
:1026E00002D2A64500F21C81104640EA0640A4EB47
:1026F0000E0400261DB1DC400023C5E9004331462D
:10270000BDE8F08F8B4209D9002D00F0FD80002636
:10271000C5E9000130463146BDE8F08FB3FA83F6D3
:10272000002E4BD18B42C0F0F280824240F2EF800B
:102730003046002DE3D0C5E90047E0E702B9FFDEEF
:10274000B2FA82F3002B40F09D80891A4FEA124EB4
:1027500097B20126200CB1FBFEF20EFB121140EAEB
:10276000014107FB02F088420FD91CEB010102F185
:10277000FF382CBF4FF001094FF00009884203D900
:10278000B9F1000F00F0CF804246091AA4B2B1FBA4
:10279000FEF00EFB101100FB07F744EA0144A742CC
:1027A00008D91CEB040400F1FF3102D2A74200F269
:1027B000B4800846E41B40EA02409BE7C6F12007CC
:1027C000B34001FA06F422FA07FCF940B2404CEAA1
:1027D000030C20FA07F34FEA1C491C431FFA8CFE36
:1027E00000FA06F3200CB1FBF9F809FB181140EAD6
:1027F000014108FB0EF088420FD91CEB010108F1E2
:10280000FF3A2CBF4FF0010B4FF0000B884203D969
:10281000BBF1000F00F08D80D046091AA4B2B1FBC5
:10282000F9F009FB101100FB0EFE44EA01418E4550
:1028300007D91CEB010100F1FF3401D28E457FD88E
:10284000204640EA0840A1EB0E01A0FB029841455A
:102850004C46C64602D306D14B4504D20138B9EBEB
:10286000020468EB0C0E002D70D01A1B61EB0E01F8
:1028700022FA06F301FA07F7F14000261F43C5E9E3
:1028800000713CE702FA03FCC3F1200001FA03F2F5
:1028900021FA00F64FEA1C4E24FA00F11FFA8CF7D9
:1028A0009C401143B6FBFEF00A0C0EFB106642EA98
:1028B000064200FB07F696420ED91CEB020200F11D
:1028C000FF382CBF4FF001094FF00009964202D9A2
:1028D000B9F1000F31D04046921B89B2B2FBFEF62F
:1028E0000EFB162241EA024106FB07F28A4207D993
:1028F0001CEB010106F1FF3801D28A4223D846467B
:10290000891A46EA004625E72E462846F7E6841A45
:1029100061EB030301201F460BE76444023849E7DB
:1029200064440238E1E6023A61442EE7023E624422
:10293000C6E6A8F1020861446FE702386244CBE7BB
:10294000023861447DE7023E6144D9E72E46D6E66F
:10295000704700BF0FB480B582B000AF00237B602A
:1029600007F114033B6039683869FDF791FC786022
:102970007B6818460837BD46BDE8804004B0704704
:1029800080B586B000AFB9607A603B600346FB73E8
:10299000BB687B610BE0FA7B3B6A104698473B685B
:1029A0001B685A1C3B681A607B6901337B617A693A
:1029B0007B689A42EFDB00BF00BF1837BD4680BD81
:1029C00080B48FB000AFF860B9607A603B600023DC
:1029D000FB62FB68BB62BB6A5A1CBA6200221A70B7
:1029E00000237B6000237B6200233B620023FB61AA
:1029F00000237B630023BB6100233B6300237B61D7
:102A0000BB681B687B637B6B002B30D1BB6A3022B9
:102A10001A70FB6A0133FB62FB6A2CE03B687A6B3D
:102A2000B2FBF3F3BB613B68BA6902FB03F37A6B59
:102A3000D31A3B633B6B092B03D83B6B30333B63AF
:102A40000AE097F84030002B01D0412200E06122DB
:102A50003B6B13440A3B3B63BB697B63BB6A5A1CF9
:102A6000BA623A6BD2B21A70FB6A0133FB627B6BBB
:102A7000002BD3D1FB6A18463C37BD465DF8047B7A
:102A8000704780B485B000AF786039600023FB6088
:102A900005E07B6801337B60FB680133FB60FA680B
:102AA0003B689A4203D87B681B78002BF1D1FB6806
:102AB00018461437BD465DF8047B704780B485B076
:102AC00000AF78600023FB6072E0FA687B689A428E
:102AD00001DA4FF04050FA687B689A4201DB4FF010
:102AE0004050016801680168016801680168016877
:102AF000016801680168016801680168016801688E
:102B0000016801680168016801680168016801687D
:102B1000016801680168016801680168016801686D
:102B2000016801680168016801680168016801685D
:102B3000016801680168016801680168016801684D
:102B4000016801680168016801680168016801683D
:102B5000016801680168016801680168016801682D
:102B6000016801680168016801680168016801681D
:102B7000016801680168016801680168016801680D
:102B800001680168016801680168016801680168FD
:102B900001680168016801680168016801680168ED
:102BA00001680168016801680168FB680133FB6026
:102BB000FB68FF2B89DD00BF00BF1437BD465DF801
:102BC000047B7046714672467346B7EE000AF7EE14
:102BD000000AB7EE001AF7EE001AB7EE002AF7EE79
:102BE000002AB7EE003AF7EE003AB7EE004AF7EEE9
:102BF000004AB7EE005AF7EE005AB7EE006AF7EE59
:102C0000006AB7EE007AF7EE007A8EF3008C10B40B
:102C1000F1EE10CA4FF66074C0F6FF740CEA040CB3
:102C2000E1EE10CA10BCF446744708B5FDF7E0FAAF
:102C300008BD08B5FDF7DCFA08BD08B5FDF7D8FA00
:102C400008BD08B5FDF7D4FA08BD08B5FDF7D0FA00
:102C500008BD08B5FDF7CCFA08BD08B5FDF7C8FA00
:102C600008BD08B5FDF7C4FA08BD08B5FDF7C0FA00
:102C700008BD08B5FDF7BCFA08BD08B5FDF7B8FA00
:102C800008BD08B5FDF7B4FA08BD08B5FDF7B0FA00
:102C900008BD08B5FDF7ACFA08BD08B5FEF78EFB18
:102CA00008BD08B5FEF7BEFB08BD08B5FEF7EEFB94
:102CB00008BD08B5FEF71EFC08BD08B5FEF74EFCC2
:102CC00008BD08B5FEF77EFC08BD08B5FEF7AEFCF2
:102CD00008BD08B5FEF7E0FC08BD08B5FDF788FAA9
:102CE00008BD08B5FDF784FA08BD08B5FDF780FA00
:102CF00008BD08B5FDF77CFA08BD08B5FDF778FA00
:102D000008BD08B5FDF774FA08BD08B5FDF770FAFF
:102D100008BD08B5FDF76CFA08BD08B5FDF768FAFF
:102D200008BD08B5FDF764FA08BD08B5FDF760FAFF
:102D300008BD08B5FDF75CFA08BD08B5FDF758FAFF
:102D400008BD08B5FDF754FA08BD08B5FDF750FAFF
:102D500008BD08B5FDF74CFA08BD08B5FDF748FAFF
:102D600008BD08B5FDF744FA08BD08B5FDF740FAFF
:102D700008BD08B5FDF73CFA08BD08B5FDF738FAFF
:102D800008BD08B5FDF734FA08BD08B5FDF730FAFF
:102D900008BD08B5FDF72CFA08BD08B5FDF728FAFF
:102DA00008BD08B5FDF724FA08BD08B5FDF720FAFF
:102DB00008BD08B5FDF71CFA08BD08B5FDF718FAFF
:102DC00008BD08B5FDF714FA08BD08B5FDF710FAFF
:102DD00008BD08B5FDF70CFA08BD08B5FDF708FAFF
:102DE00008BD08B5FDF704FA08BD08B5FDF700FAFF
:102DF00008BD08B5FDF7FCF908BD08B5FDF7F8F901
:102E000008BD08B5FEF77EFC08BD80B500AFFDF734
:102E1000A7FC00BF80BD04207146084202D0EFF33A
:102E2000098001E0EFF3088081690A884BF6AB6303
:102E30009A4200D0FEE70231816120210160704793
:102E400000BF80B400AF4FF0A043D3F8843503F047
:102E50000103002B14BF01230023DBB21846BD463B
:102E60005DF8047B704780B483B000AF01237B60C2
:102E70004FF0A043D3F8803503F40023002B0AD190
:102E80004FF0A043D3F88835DBB27B607B68002B22
:102E900001D101237B607B6818460C37BD465DF885
:102EA000047B704780B483B000AF78607B681846BD
:102EB000A0F101000028FBD100BF0C37BD465DF832
:102EC000047B704780B485B000AF0346FB80FB886D
:102ED0001B0AFB60FB88DBB24FF0A04101229A4045
:102EE000FB68883341F8232000BF1437BD465DF8E6
:102EF000047B704780B483B000AF78600B46FB70F2
:102F0000FB78002B01D1012320E0FB78042B0ED8A5
:102F10007B68D3F8F82FFB78033322FA03F303F02E
:102F20000103002B14BF01230023DBB20EE0FB786A
:102F3000052B0AD17B68D3F8F83F03F08003002B00
:102F400014BF01230023DBB200E0002318460C3736
:102F5000BD465DF8047B704780B584B000AFF86073
:102F60000B467A60FB72FB7A1946F868FFF7C2FFDE
:102F7000034683F00103DBB2002B01D0032321E0E1
:102F8000FB68D3F8F83F03F00803002B09D0FB6877
:102F9000D3F8F83F03F00702FB7A9A4201D00123ED
:102FA00010E07B68002B08D0FB7A43F00803DBB20B
:102FB0001A46FB68C3F8F82F03E0FA7AFB68C3F8F7
:102FC000F82F002318461037BD4680BD80B584B069
:102FD00000AF0346FB71FEF7EBFC0346FB73FB7B84
:102FE000002B02D0022B16D02BE0FB79012B02D054
:102FF000022B05D009E040F27E40FEF7B9FB09E064
:103000004FF49660FEF7B4FB04E040F23340FEF765
:10301000AFFB00BF2BE0FB79012B02D0022B05D0C8
:1030200009E040F20140FEF7A3FB09E040F21A403C
:10303000FEF79EFB04E04FF47A70FEF799FB00BFA9
:1030400015E0FB79012B02D0022B05D009E040F2FC
:103050004C40FEF78DFB09E040F27E40FEF788FB16
:1030600004E04FF47A70FEF783FB00BF00BF00BF9F
:103070001037BD4680BD80B582B000AF78607868FB
:10308000FEF708FD7868FEF73BFD00BF0837BD4638
:1030900080BD80B483B000AF78600B46FB70FB78D6
:1030A000002B06D07B685B6843F480727B685A60B3
:1030B00005E07B685B6823F480727B685A6000BF20
:1030C0000C37BD465DF8047B704780B483B000AF19
:1030D00078607B68002B01D1002301E042F6AF73DA
:1030E00018460C37BD465DF8047B704780B584B048
:1030F00000AF7860396039687868FFF749F80346AF
:10310000FB81FB89002B01D0FB8906E07B68BB605B
:103110003B689A7BBB681A70002318461037BD467F
:1031200080BD80B485B000AF0346FB80FB881B0ADE
:10313000FB60FB88DBB24FF0A04101229A40FB68A4
:10314000883341F8232000BF1437BD465DF8047B67
:10315000704780B485B000AFF8607B600B46FB72AF
:103160001346BB72F97ABA7AFB6849010A44796856
:1031700043F8221000BF1437BD465DF8047B70474A
:103180002DE9E04F2746A046A146A246A346A44605
:103190002DED108B4FF0000545EC185B45EC195AEE
:1031A00045EC1A5A45EC1B5A45EC1C5A45EC1D5A85
:1031B00045EC1E5A45EC1F5AF1EE105A4FF6607658
:1031C000C0F6FF763540E1EE105A84F300882546BC
:1031D0002646A447BDEC108BBDE8E08F0A44431E91
:1031E000914200D1704710B511F8014B914203F89C
:1031F000014FF9D110BD02440346934200D17047FC
:1032000003F8011BF9E7034613F8012B002AFBD151
:10321000181A01387047FFFF415353455254204557
:1032200052524F52202220257320223A2066696C88
:10323000652022257322204C696E65202225642298
:103240002066756E6374696F6E206E616D652022F5
:10325000257322200A00FFFF537472696E67207481
:103260006F6F206C6F6E67206F7220696E76616C75
:10327000696420737472696E67207465726D696E1B
:103280006174696F6E210D0A000000005374726949
:103290006E67206973206E6F74206C6F6361746554
:1032A0006420696E206E6F726D616C20776F726C36
:1032B00064210D0A000000005468652063616C6C95
:1032C0006261636B206973206E6F74206C6F636141
:1032D00074656420696E206E6F726D616C20776F0B
:1032E000726C64210D0A0000466972737420737455
:1032F00072696E6720746F6F206C6F6E67206F72DB
:1033000020696E76616C696420737472696E6720DF
:103310007465726D696E6174696F6E210D0A0000CB
:103320005365636F6E6420737472696E6720746F87
:103330006F206C6F6E67206F7220696E76616C69AA
:103340006420737472696E67207465726D696E6152
:1033500074696F6E210D0A00436F6D706172696E42
:10336000672074776F20737472696E6720617320B1
:10337000612063616C6C6261636B20746F206E6F9F
:10338000726D616C20776F726C640D0A0000000032
:10339000537472696E6720313A2000005374726969
:1033A0006E6720323A2000FF48656C6C6F206672B1
:1033B0006F6D2073656375726520776F726C642121
:1033C0000D0A0000456E746572696E67206E6F723B
:1033D0006D616C20776F726C642E0D0A00FFFFFF29
:1033E000636F756E74203C3D2055494E5433325FF7
:1033F0004D41580066736C5F636F6D6D6F6E5F61FA
:10340000726D2E6300FFFFFF53444B5F44656C6198
:103410007941744C65617374557300FF0060085006
:1034200000700850008008500090085000A008501C
:1034300000600950007009500080095000F00950E8
:103440000B010C010D010E010F0110011101120100
:103450001C02FFFF0B0001000C0001000D00010029
:103460000E0001000F00010010000100110001001A
:10347000120001001C00020069203C202875696EC2
:103480007433325F742946534C5F4645415455525C
:10349000455F534F435F464C4558434F4D4D5F4347
:1034A0004F554E540000000066736C5F666C657883
:1034B000636F6D6D2E6300FF735F666C6578636F7D
:1034C0006D6D49727148616E646C65725B696E7393
:1034D00074616E63655D20213D204E554C4C00FFAC
:1034E000464C4558434F4D4D5F476574496E737464
:1034F000616E636500FFFFFF464C4558434F4D4DDD
:10350000305F44726976657249525148616E646CED
:10351000657200FF464C4558434F4D4D315F447234
:103520006976657249525148616E646C657200FF3C
:10353000464C4558434F4D4D325F44726976657233
:1035400049525148616E646C657200FF464C4558A3
:10355000434F4D4D335F447269766572495251480D
:10356000616E646C657200FF464C4558434F4D4D8B
:10357000345F44726976657249525148616E646C79
:10358000657200FF464C4558434F4D4D355F4472C0
:103590006976657249525148616E646C657200FFCC
:1035A000464C4558434F4D4D365F447269766572BF
:1035B00049525148616E646C657200FF464C455833
:1035C000434F4D4D375F4472697665724952514899
:1035D000616E646C657200FF464C4558434F4D4D1B
:1035E000385F44726976657249525148616E646C05
:1035F000657200FF626974506F73203C203332752E
:103600000000000066736C5F72657365742E630062
:1036100052455345545F53657450657269706865CF
:1036200072616C526573657400FFFFFF524553452C
:10363000545F436C65617250657269706865726150
:103640006C526573657400FF69203C202875696EB3
:103650007433325F742946534C5F4645415455528A
:10366000455F534F435F55534152545F434F554E4F
:103670005400000066736C5F75736172742E630092
:103680002128284E554C4C203D3D20626173652910
:10369000207C7C20284E554C4C203D3D20636F6E95
:1036A00066696729207C7C20283055203D3D2073A9
:1036B0007263436C6F636B5F487A292900FFFFFFD9
:1036C0004E554C4C20213D20636F6E66696700FFAC
:1036D0002128284E554C4C203D3D206261736529C0
:1036E000207C7C20283055203D3D2062617564722D
:1036F0006174655F42707329207C7C2028305520DE
:103700003D3D20737263436C6F636B5F487A292978
:1037100000FFFFFF2128284E554C4C203D3D2062E4
:1037200061736529207C7C20284E554C4C203D3D02
:10373000206461746129290055534152545F496ED8
:10374000697400FF55534152545F47657444656680
:1037500061756C74436F6E66696700FF5553415223
:10376000545F536574426175645261746500FFFF74
:1037700055534152545F5772697465426C6F636B65
:10378000696E670055534152545F52656164426CE3
:103790006F636B696E6700FF00600850007008502F
:1037A000008008500090085000A0085000600950A8
:1037B000007009500080095068616E646C650000FB
:1037C00066736C5F616461707465725F757361725A
:1037D000742E6300636F6E6669672D3E696E737445
:1037E000616E6365203C202873697A656F66287373
:1037F0005F55736172744164617074657242617384
:103800006529202F2073697A656F662855534152C8
:10381000545F54797065202A29290000735F55731D
:1038200061727441646170746572426173655B6357
:103830006F6E6669672D3E696E7374616E63655D58
:1038400000FFFFFF64617461000000006C656E673B
:10385000746800FF48414C5F55617274496E697429
:10386000436F6D6D6F6E00FF48414C5F5561727420
:1038700052656365697665426C6F636B696E67005C
:1038800048414C5F5561727453656E64426C6F635E
:083890006B696E6700FFFFFF8A
:083898000024F400001BB7003E
:0838A000C4EDFF7F01000000F0
:10FE00007FE97FE9F2F75ABE7FE97FE9F0F754BE58
:10FE10007FE97FE9F0F7ECBD000000000000000082
:0400000510000145A1
:00000001FF
